:0E0000000C9456010C9400000C9400000C941B
:10000E0000000C9400000C9400000C9400000C9462
:10001E0000000C9400000C9400000C94430A0C9405
:10002E00250A0C9400000C9400000C9400000C9413
:10003E0000000C9400000C9400000C9400000C9432
:10004E0000000C9400001027E80364000A00010071
:10005E000010000110000100000000000A00640002
:10006E00C80060FFC800DC005000A000AA00050018
:10007E00550025642564256425642564256425645E
:10008E000042616361204C696E650073656E736F2B
:10009E00723A2564203D2025642020004261636170
:1000AE00204261636B67726F756E640043656E7498
:1000BE00657220506F696E74202020200073656E6B
:1000CE00736F723A2564202D2D3E2025642020006A
:1000DE002564202020004D656E750043616C6962B9
:1000EE00726174696F6E0052756E20426F740053A8
:1000FE00656E73205761726E61004D6170204269AA
:10010E007275004D6170204D65726168004D6F749F
:10011E006F7200427574746F6E0043617069740083
:10012E00436C69636B203220746F20737461727438
:10013E000052756E6E696E672E2E2E0054657374A6
:10014E00204D6F746F72002B313030202B313030D8
:10015E00002D313030202D313030002B3130302019
:10016E002D313030002D313030202B3130300043E6
:10017E006C69636B203120746F206578697400742C
:10018E006F6D626F6C203D20312020202020007486
:10019E006F6D626F6C203D20322020202020007475
:1001AE006F6D626F6C203D20332020202020007464
:1001BE006F6D626F6C203D20342020202020005770
:1001CE0061726E613A0045786974696E672E2E2EE3
:1001DE0000546573742043617069740043617069E3
:1001EE00743A203E203C0043617069743A203C20F2
:1001FE003E0043617069743A205C2F004361706960
:10020E00743A202F5C00486F6C64203120746F208C
:10021E00657869740058440020202020204C454702
:10022E00494F4E202020202000204D414E203420CA
:10023E004A4F4D42414E4720000001002D4E414E87
:10024E0000494E46000080C0040004006600010014
:10025E0095026A00010097026C00010099026E007F
:10026E0002009B02700001009D0272000100A502B7
:10027E0074000100A70276000100A90278000100B7
:10028E00AB027A000100AD027C000100AF027E00DD
:10029E000100B30248020200B70254020000F894B3
:1002AE00EE27ECBBF1E0FBBFEBBFE5BFF8E1F1BD24
:1002BE00E1BD8DE0A2E0BB27ED938A95E9F780E0E2
:1002CE0098E0A0E6ED930197E9F7E6E5F2E0859177
:1002DE009591009761F0A591B59105901590BF018C
:1002EE00F00105900D920197E1F7FB01F0CFEFE5DC
:1002FE00EDBFE8E0EEBFC0E6D2E00C94440AAA934C
:10030E00E881E066E7B9369A349BFECF349AE5B1C0
:10031E0021960895BA93AA93A881B9810E940D11CE
:10032E003CC3882499240E94B90DD4F40E94BE0DBA
:10033E00EA17FB0734F4A8E8B2E0A80DB91DE1E016
:10034E000AC00E94BE0DAE17BF0734F4A8E8B2E093
:10035E00A80DB91DE0E0EC93F40131964F01E3CF07
:10036E000895A0918E02E0E4EA9FB001A0918D0263
:10037E00E0E20E94CE0DA0918C02E0E10E94CE0D33
:10038E00A0918B02E8E00E94CE0DA0918A02E4E0DB
:10039E000E94CE0DA0918902E2E00E94CE0DA091A6
:1003AE008802E1E0EA9FF001E60FF71FE0938F026B
:1003BE00F09390020895B5DFD4DF0895B2DFE9E03F
:1003CE000E94D30D0E94D70DE0E8F0E0FA93EA9375
:1003DE00E09188020E94DC0DE09189020E94DC0D02
:1003EE00E0918A020E94DC0DE0918B020E94DC0DEE
:1003FE00E0918C020E94DC0DE0918D020E94DC0DDA
:10040E00E0918E020E94DC0D8CE10E94630CA0969E
:10041E00E1C2882499240E94B90DD4F40E94E20D01
:10042E00EA0FFB1FFF93EF93A82D69DFAF91BF91EA
:10043E000E94E80DAFE8B0E00E94ED0D0E94F50DB0
:10044E000E94E20D0E94FF0DF40131964F01E3CFA1
:10045E000895882499240E94B90DD4F40E94160E92
:10046E00EA0FFB1FFF93EF93A82D49DFAF91BF91CA
:10047E000E94E80DAAEAB0E00E94ED0D0E94F50D73
:10048E000E94160E0E94FF0DF40131964F01E3CF2C
:10049E000895882499240E94B90D0CF040C0F401EF
:1004AE00ACE1B0E0EE0FFF1FEA0FFB1FBF010E9491
:1004BE00160E0E941C0E0F010E94E20D0E941C0ED1
:1004CE00D001AE0FBF1FE2E0F0E00E94D90FDB01BA
:1004DE000E940910E0E00E94D30DAAEBB0E00E944A
:1004EE00ED0DEBECF0E0FA93EA93F4010E94210E8D
:1004FE00F401ACE1B0E0EE0FFF1F0E941C0E0E9453
:10050E00210E88E00E94630C2C96A0E6B2E00E94B9
:10051E00520DC398C39AF40131964F01BCCF089582
:10052E000E94260E929A93989698979A36C20E9497
:10053E00260E9298939A969A97982FC20E94260EFC
:10054E009298939A9698979A28C20E94260E929AFB
:10055E009398969A979821C2BA93AA93AA81BB812F
:10056E000E9422101CF4929A939808C09298939A23
:10057E00AA81BB810E94B80CEA83FB83EA81FB81CE
:10058E00FBBDEABD0E94300E1CF4979A969808C0E7
:10059E009798969AA881B9810E94B80CE883F9833E
:1005AE00E881F981F9BDE8BDDFC1BA93AA93949AA7
:1005BE00959A9298939896989798A881B9810E9447
:1005CE000D11EBC1BA93AA93EA81EA93AB81A8DF2E
:1005DE000E94350EC9C1BA93AA930E94390EAAE998
:1005EE00B9E989E19EE30E94BF10A5E9B2E00E943D
:1005FE00400E0E94390EAAE9B9E989E19FE30E94F3
:10060E00BF10A7E9B2E00E94400EE881F981E093A5
:10061E009902F0939A020E94390EA0E0B0E080E4B5
:10062E009FE30E94BF100E942610ABE9B2E00E9429
:10063E00400EE881F981E0939D02F0939E02ADC1D8
:10064E00C3980E94450EFDCFBA93AA9322970E949B
:10065E00960FA885B985BFDF0E94490EEF77F0701F
:10066E00E0938F02F09390020E94490EE130A0E0D9
:10067E00FA0719F4EAEFFFEF56C0E330A0E0FA07ED
:10068E0019F4EBEFFFEF4FC0E230A0E0FA0719F4D8
:10069E00ECEFFFEF48C0E630A0E0FA0719F4EDEFFB
:1006AE00FFEF41C0E430A0E0FA0719F4EEEFFFEFE0
:1006BE003AC0EC30A0E0FA0719F4EFEFFFEF33C0C9
:1006CE00E830A0E0FA0731F4E0E0E0939102E09325
:1006DE0092022DC0E831A0E0FA0719F4E1E0F0E053
:1006EE0022C0E031A0E0FA0719F4E2E0F0E01BC00E
:1006FE00E033A0E0FA0719F4E3E0F0E014C0E032D2
:10070E00A0E0FA0719F4E4E0F0E00DC0E036A0E056
:10071E00FA0719F4E5E0F0E006C0E034A0E0FA07CD
:10072E0031F4E6E0F0E0E0939102F0939202A091B2
:10073E009302B0919402E0919102F0919202EA1B21
:10074E00FB0B8F01E0919102F0919202E0939302E4
:10075E00F0939402E0919502F0919602A09191028D
:10076E00B09192020E94C10FBF01E0919702F091E9
:10077E009802D8010E94C10FE60FF71F9F01A091AA
:10078E009902B0919A02EA0FFB1FAF01E091990214
:10079E00F0919A02E21BF30BEE83FF830E944E0E42
:1007AE00E417F50724F440919D0250919E020E9499
:1007BE00530E4E175F0724F440919B0250919C02FA
:1007CE000E944E0EAE81BF81EA17FB0724F40E94F1
:1007DE004E0EEE83FF830E94530EAE81BF81AE1785
:1007EE00BF0724F40E94530EEE83FF835A934A935D
:1007FE00A885B985B1DE0E949D0F2A960895BA93F9
:10080E00AA93EA81FB814E165F06D4F40E94580E1D
:10081E0029F0D1DDA881B98117DFF8CF0E94580EDB
:10082E0071F4C9DDC398A881B9810EDF0E94580EFC
:10083E0029F0F20131962F013197C39AEFCFE1CF14
:10084E004424552491C0BA93AA93E0E0E0939F020A
:10085E00E093A002EC81FD81A0919F02B091A002D5
:10086E00AE17BF073CF40E945C0EAFE9B2E00E94E7
:10087E00620EF0CF0E94680E20C0BA93AA93EC814C
:10088E00FD814E165F06BCF40E945C0E0E94490E5E
:10089E00EF77EF3771F4F20131962F013197EA813C
:1008AE00EA93AB8144DE0E94350EAAE0B0E07DDE15
:1008BE0001C0EACFE4CF4424552426960895BA9376
:1008CE00AA9379DDE0918802E03021F4E09189026B
:1008DE00E03019F00E946C0EF5CFE0918802E03006
:1008EE0021F4E0918902E03009F003C00E946C0E01
:1008FE00F4CF0E94300E14F40E94680E35C0BA93E5
:10090E00AA9359DDE0918D02E03021F4E0918E0240
:10091E00E03019F00E94730EF5CFE0918D02E030B9
:10092E0021F4E0918E02E03009F003C00E94730EB4
:10093E00F4CF0E94300E14F40E94680E15C00E946F
:10094E007A0E21F40E94820EDADF03C00E94820E1C
:10095E00B6DF0AC00E947A0E21F40E94820EAFDF2B
:10096E0003C00E94820ECBDF24960895BA93AA93F9
:10097E00EDEEDE2E0E94350EEAEECE2E0E94350EE4
:10098E000CC0BA93AA93E0EFCE2E0E94350EE6EE7F
:10099E00DE2E0E94350EEAEECE2E22960895E0EF60
:1009AE00CE2EE6EEDE2E0895A7E0A9DC6E2E77247D
:1009BE00EDE00E94890E0E94D70DEEEDF0E0FA9365
:1009CE00EA93F301662777270E94F40F84E00E94D2
:1009DE00630C2896A0E6B2E00E94520D08951A9379
:1009EE000A93A7E08CDC6E2E7724E091AF02F09193
:1009FE00B002E615F70538F4E091A902F091AA02CB
:100A0E006E167F0608F003C000E010E026C0E091ED
:100A1E00AD02F091AE02E615F70538F4E091A702AB
:100A2E00F091A8026E167F0608F003C001E010E0F8
:100A3E0014C0E091AB02F091AC02E615F70538F464
:100A4E00E091A502F091A6026E167F0608F003C093
:100A5E0002E010E002C003E010E0F80109911991E4
:100A6E0008950E948D0E0E94920E0E94960E0E9474
:100A7E009B0E0E949F0E0E94A40E0E94BE0E0E940C
:100A8E009B0E0E94C30E0E94BE0E0E94920E0E94EA
:100A9E00C80EAAE5E6C00E94960E0E949B0E0E940A
:100AAE00C30E0E94CB0E0E948D0E0E94920E0E94CB
:100ABE00960E0E949B0E0E949F0E0E94A40EA5E011
:100ACE00B0E048DF0E94C30E0E94CF0E0E94960E29
:100ADE000E949B0E0E94D30E0E94960E0E949B0EA9
:100AEE000E94C30E0E94CF0E0E94C80E0E949B0E43
:100AFE00E2E3F0E0FA93EA93EAE5F0E0BAC00E948E
:100B0E00960E0E949B0E0E94C30E0E94BE0E0E9465
:100B1E00920E0E94960E0E949B0E0E949F0E0E94A5
:100B2E00A40E0E94D80E0E94CB0E0E94960E0E941A
:100B3E009B0E0E94C30E0E94CB0E0E94C80E0E94F6
:100B4E009B0EEBE2F0E0FA93EA93EFE5F0E091C052
:100B5E000E94960E0E949B0E0E94C30E0E94CF0E04
:100B6E000E94960E0E949B0E0E948D0E0E94920E67
:100B7E000E948D0E0E949B0E0E949F0E0E94A40E3C
:100B8E000E94D80E0E94CB0E0E94960E0E949B0EC3
:100B9E000E948D0E0E949B0E0E94C30E0E94CB0ED1
:100BAE000E948D0E0E94920E0E94960E0E949B0E27
:100BBE000E94960E0E949B0E0E94DD0EAAE0B0E0EF
:100BCE00BEDE0E94960E0E949B0EE9DEEFE3F0E081
:100BDE004CC00E94960E0E949B0E0E94C30E0E9455
:100BEE00CB0E0E94960E0E949B0E0E949F0E0E949C
:100BFE00A40E0E94CB0E0E948D0E0E94920E0E9499
:100C0E00960E0E949B0E0E94960E0E949B0E0E94B4
:100C1E00C30E0E94CB0EE2E0F0E018C00E94E20E7E
:100C2E000E94D80E0E94CB0E0E94960E0E94EC0ED1
:100C3E000E94920E0E94960E0E949B0E0E949F0E84
:100C4E000E94A40E0E94CB0EE1E0F0E0FA93EA932C
:100C5E000E94920E0E94960E0E949B0E0E94C80E3B
:100C6E00A4E6B0E0CCDDE1E2F0E0FA93EA93E0E551
:100C7E00F0E0FA93EA930E94F10E08950E94E20EBC
:100C8E000E94D80E0E94CB0E0E94960E0E949B0EC2
:100C9E000E94960E0E94920E0DC00E94960E0E9409
:100CAE009B0E0E94C30E0E94CF0E0E949F0EE4E682
:100CBE00F0E00EC0E1E0F0E0FA93EA930E94920EAB
:100CCE000E94960E0E949B0E0E949F0EEAE5F0E097
:100CDE00FA93EA930E94F90E54DE08950E94000FD3
:100CEE0029F40E94060F0E94CF0E3CC00E94100FE6
:100CFE00119751F40E94060F0E94D80E0E94CB0E3F
:100D0E000E94960EA4E624C00E94100F129769F45A
:100D1E000E94060F0E94D80E0E94CB0E0E94960EC5
:100D2E000E949B0EE2E0F0E010C00E94100F13979D
:100D3E00C9F40E94060F0E94D80E0E94CB0E0E948C
:100D4E00960E0E949B0EE4E0F0E0FA93EA93A8E779
:100D5E00B0E055DD0E94960E0E949B0E0E94C30EBF
:100D6E000E94CB0EACC00E94000FD1F4E4E6EA93D1
:100D7E00A4E6DDDBA6E2B0E0CDDA0E94150F0E94FC
:100D8E00CF0E0E94960E0E949B0E0E94D30E0E94C2
:100D9E00960E0E949B0E0E94C30E0E94CF0E3AC06A
:100DAE000E94100F1197A9F40E94060F0E94CF0EF9
:100DBE000E94960E0E949B0E0E94960E0E94920E0C
:100DCE000E94960E0E949B0E0E94C30E0E94CF0E92
:100DDE0021C00E94100F129769F40E94060F0E9404
:100DEE00CF0E0E94960E0E949B0E0E94C30E0E9472
:100DFE00CF0E10C00E94100F139761F40E94060FC1
:100E0E000E94CB0E0E94960E0E949B0E0E94C30E55
:100E1E000E94CB0E54C00E94000FC9F40E94060F10
:100E2E000E94D80E0E94CB0E0E94960E0E949B0E20
:100E3E00E4E0F0E0FA93EA930E94920E0E94960E7E
:100E4E000E949B0E0E94C30E0E94CF0E38C00E94BD
:100E5E00100F1197B9F40E94060F0E94D80E0E942F
:100E6E00CB0E0E94960E0E949B0E0E948D0E0E942B
:100E7E00920E0E94960E0E949B0E0E94C30E0E941E
:100E8E00CF0E1DC00E94100F129789F40E94060FFC
:100E9E000E94CF0E0E94960E0E949B0E0E94960EEE
:100EAE000E949B0E0E94C30E0E94CF0E08C00E948D
:100EBE00100F139721F40E94060F0E94CB0E01D043
:100ECE0008950E94D30E0E94960E0E949B0E0E94C1
:100EDE00C80E0E949B0E0E949F0E0E94DD0E0E9465
:100EEE00F90E44DD01D008950E94060FAAE0B0E08D
:100EFE0026DD0E94C30E0E94CB0E0E94960E0E940B
:100F0E00EC0E0E94920E0E94C30E0E94CF0E0E9403
:100F1E00000F21F40E94960EA4E627C00E94100F27
:100F2E00119759F40E94960E0E949B0E0E94960EE7
:100F3E000E94920EE1E0F0E015C00E94100F129791
:100F4E0039F40E94960E0E949B0EE4E0F0E00AC077
:100F5E000E94100F139759F40E94960E0E949B0E3A
:100F6E00E6E0F0E0FA93EA93A8E7B0E048DC0E94EE
:100F7E009F0E0E94DD0E0E94F90E03DD01D0089532
:100F8E00E4E6EA93A4E6D3DAA4E1B0E0C3D90E9482
:100F9E00C30E0E94CB0E0E94960E0E949B0E0E94C4
:100FAE00D30E0E94960E0E949B0E0E94C30E0E94AC
:100FBE00CB0E0E94960E0E94920E0E94960E0E94DA
:100FCE009B0E0E949F0E0E94DD0EA5E0B0E055DC48
:100FDE00E4E6EA93A4E6A4DAAEE1B0E09BD90E947F
:100FEE00450E2EDB08950E94150FACE3B0E0EADA51
:100FFE000E948D0E0E94920E0E94C80E0E949B0EA1
:10100E00ECE1F0E0FA93EA930E94150F0E94F10EC4
:10101E000E941A0F11F473DD0BC00E94260F119758
:10102E0011F439DD05C00E94260F129701F419DD67
:10103E00D6DCE093B102F093B202309711F4EEDDFC
:10104E000BC00E94260F119711F4C3DD05C00E943C
:10105E00260F129701F47CDD0E941A0F19F42ADE76
:10106E00DADE0DC00E94260F119719F416DE7BDE14
:10107E0006C00E94260F129701F400DE2FDE08959F
:10108E00BA93AA93C398EB81FC81E0938202F0930A
:10109E008302E881F981E0938402F0938502EA816C
:1010AE00E03021F4E0918602E03009F006C00E94A3
:1010BE002B0FA4EEB0E00E94610DEB81FC81309706
:1010CE0069F4EA81E03011F0BAD08EC0E0E00E94FF
:1010DE00890EA9EEB0E00E94610D86C0E130A0E05D
:1010EE00FA0789F4EA81E03021F4E0918602E030DB
:1010FE0011F07BD079C0E0E00E94890EA5EFB0E040
:10110E000E94610D71C0E230A0E0FA0769F4EA8135
:10111E00E03011F01BD168C0E0E00E94890EADEF07
:10112E00B0E00E94610D60C0E330A0E0FA0799F4D0
:10113E00EA81E03021F4E0918602E03021F0A0E077
:10114E00B0E086D051C0E0E00E94890EA8E0B1E088
:10115E000E94610D49C0E430A0E0FA0799F4EA81DB
:10116E00E03021F4E0918602E03021F0A1E0B0E021
:10117E006FD03AC0E0E00E94890EA1E1B1E00E947A
:10118E00610D32C0E530A0E0FA0769F4EA81E03083
:10119E0011F077D029C0E0E00E94890EABE1B1E0FA
:1011AE000E94610D21C0E630A0E0FA0769F4EA81E1
:1011BE00E03011F095D018C0E0E00E94890EA1E257
:1011CE00B1E00E94610D10C0E730A0E0FA0761F4B3
:1011DE00EA81E03011F0E6D007C0E0E00E94890E0F
:1011EE00A8E2B1E00E94610D29C2E0918602E030D2
:1011FE0071F40E942B0FA5EFB0E00E942F0FAEE20C
:10120E00B1E00E94610DE1E0E093860217C0E0912B
:10121E008602E03099F00E94160DE0E00E94890EE1
:10122E00AFE3B1E00E94610DDEDEE0E0E093860206
:10123E00E0938402E09385020E94330F0895E9D86B
:10124E00ACE2B1E067D805D90E943C0F22D942C06A
:10125E00BA93AA93A881B981109711F0119709F446
:10126E0003C0E0E0E883E983E881F981AAE2B0E017
:10127E000E940910E0E0E09386020E94330F0C9466
:10128E00140D0E942B0FAAE4B1E00E942F0FA5E5CA
:10129E00B1E00E94610D0E94C30E0E94400FE0E07B
:1012AE000E94890EAFE5B1E00E94480F0E944F0FD9
:1012BE00A9E6B1E00E94610D0E94C30E0E944F0F7D
:1012CE00A3E7B1E00E94480F0E94400F0E94450E16
:1012DE000E942B0FE0E0E09386020E94330F0895E8
:1012EE00E0E00E94890EADE7B1E00E94610DE1E001
:1012FE00E0938702E0918702E03039F1989909C0B6
:10130E00E0E00E94D30DADE8B1E00E94590F0E94BB
:10131E00330F999907C0E0E00E94D30DADE9B1E01B
:10132E000E94610D9A9907C0E0E00E94D30DADEACC
:10133E00B1E00E94610D9B9907C0E0E00E94D30DC1
:10134E00ADEBB1E00E94610DD5CF08950E942B0F39
:10135E00ADEFB0E00E942F0FADECB1E00E94610D39
:10136E00E1E0E09387021BDBA8ECB0E00E94910164
:10137E00A4E1B0E0FBDA18DBE0918702E03039F44B
:10138E000E94160DE6EEDE2E0E94330F0AC09899CB
:10139E0007C0E0E00E94D30DA4EDB1E00E94590F0A
:1013AE00EACF08950E942B0FAFEDB1E00E942F0FF0
:1013BE00AAEEB1E00E94610DEDEEDE2EA2E3B0E0EA
:1013CE000E949101E0E00E94890EA5EFB1E00E941B
:1013DE00610DE6EEDE2E0E943C0FE0E00E94890ECB
:1013EE00A0E0B2E00E94610DE0EFCE2E0E943C0F15
:1013FE00E0E00E94890EAAE0B2E00E94610DEAEEE2
:10140E00CE2E0E943C0F08950E94E201E7E00E945A
:10141E00D30D0E94D70DECE8F0E0FA93EA93AAE21E
:10142E00B0E00E94F90F0E94210E84E00E94630C2E
:10143E002896A0E6B2E00E94520D0895AA93EA9370
:10144E00EFB7EA93E6E9E2BFE0918102EF5FE09346
:10145E008102A0918102DA1610F0AE9801C0AE9A08
:10146E00A0918102CA1610F0AF9801C0AF9AE9910F
:10147E00EFBFE991A99118951895E0E0EBBBEABB97
:10148E00E8E0E8BBEFEFE7BBE5BBE0EFE4BBE3E092
:10149E00E2BBECEFE1BBEAE4E3BFE6E9E2BFE0E08A
:1014AE00ECBFE1EAEFBDE9E0EEBDE0E0EDBDECBD85
:1014BE00E7BDE6BDEBBDEABDE9BDE8BDE2BDE5BDFC
:1014CE00E4BDE3BDE5BFE4BFE1E0E9BFE0E8E8B9B4
:1014DE00E0E0E0BFE5BFE4BFEBB9E8E1EAB9E6E87A
:1014EE00E0BDE0E0E0BDE7E4E9B9E0E6E7B9E4E855
:1014FE00E6B9E0B7EF71E0BFA0E10E94850D0E9452
:10150E00160DC398E0E00E94D30DA6E2B2E00E9451
:10151E002F0FA7E3B2E00E94610DA2E3B0E00E949C
:10152E000D110E94160D7894EAEECE2EE6EEDE2E0A
:10153E00AAE2B0E00E94F90F309721F0E130A0E06E
:10154E00FA0709F406C0AAE2B0E0E0E0F0E00E947B
:10155E0009100E942B0FA4EEB0E00E942F0FA9EEEF
:10156E00B0E00E94610DE0918602E03021F40E940D
:10157E00E5011ADA49DF98991CC0E0918602E03045
:10158E0021F4A2E8B2E00E94620EA0918202B09114
:10159E00830217972CF0E0E0E0938202E09383023F
:1015AE00AAE0B0E00E9491010E94620FE0E00E946A
:1015BE00690F999909C00E94620FE1E00E94690FBC
:1015CE00AAE0B0E00E949101CECFFFCFBA93AA93CA
:1015DE001A930A93AA81BB8112960E94EC0F309740
:1015EE0029F1AA81BB8114960E94EC0F8F013097CE
:1015FE0061F00230E0E01E0780F0F80131978F01B4
:10160E00AA81BB811496ED93FC93AA81BB8112969D
:10161E000E94620E3197AC81A083AA81BB810E9489
:10162E00EC0FFF2312F00E94620E06C0AA81BB814E
:10163E00EFEFFFEFED93FC93198108812596089546
:10164E00BA93AA9326970E94960F10E0AC85BD859B
:10165E00E0E0F0E0ED93FC93EA89FB893196EA8BAA
:10166E00FB8B3197E4912E2FE03009F41DC1E12F51
:10167E00E03039F4253211F411E002C00E94700FEF
:10168E0012C1E130A9F4253219F40E94700F0AC17B
:10169E0012E040E000E02D3211F401E004C12B32E3
:1016AE0011F44BE200C1203211F440E2FCC002C042
:1016BE00E23039F450E013E0203311F40068F3C047
:1016CE0003C0E33009F0EFC0203310F02A3308F0E6
:1016DE0007C0AAE05A9F502DE22FE0535E0FE3C0E1
:1016EE00E22FE33649F40E94770FE889F989A48145
:1016FE00AA930E947D0FD6C0E33741F40E94770F64
:10170E000E94830F0E949F0C1E2F0AC0E03761F4C7
:10171E000E94770F0E94830F0E94AB0C1E2F086051
:10172E0002600F7730E03CC0E43611F0E93611F478
:10173E00046002C0E53731F4E4E5F0E0EE83FF83A8
:10174E0015E00CC0E83511F4086003C0E83709F065
:10175E00A9C0EEE5F0E0EE83FF8314E002FF17C0B0
:10176E000E94770FA889B9891496ED91FD91EA87A9
:10177E00FB87AB85AA232AF40E94A80FEA87FB8772
:10178E004DE2403011F01F5F01C00B7F09C00E9477
:10179E00770FA889B98914960E94EC0FEA87FB8708
:1017AE0000FD11C0151778F407FF08C002FF04C032
:1017BE000B7F242F115001C020E301C020E20E94B4
:1017CE00700F5150EFCF312F01FF17C03030A1F005
:1017DE0003FF06C0EE81FF812591EE83FF8305C0D6
:1017EE00AE81BF812D91AE83BF830E94700F5030AA
:1017FE0009F051503150EACF4BC020E3EE81FF810A
:10180E000E94F00FE887F987EE81FF813296EE8312
:10181E00FF83E885F985AA85BB85AE17BF0750F013
:10182E002F5FA885B985EA85FB85EA1BFB0BEA8746
:10183E00FB87EFCF2A3328F003FF02C0295F01C0D8
:10184E00295D04FD1AC0213320F4A885B9851197AE
:10185E0009F409C0531710F000FF01C013C020E2B5
:10186E0007FF0BC020E3006102FF07C00B7F4A9306
:10187E000E947D0F503009F051500E94700F503071
:10188E0009F051503150A885B985129708F0B5CF9F
:10189E0000FF08C0503031F05150E0E2EA930E9450
:1018AE007D0FF8CF10E0D8CEAC85BD85ED91FD91C2
:1018BE000E949D0F64960895FF92F82E26970E941F
:1018CE00980FDE011C960E94A40F0E94EC0F309719
:1018DE0019F4EFEFFFEF27C0DE0116960E94A40F5A
:1018EE008D01DE011C960E94A40FED91FD91EE83F9
:1018FE00FF83E0E0E887E987DE011A960E94A40FD5
:10190E00ED91FD91FA93EA931A930A93EDEEFAE0B4
:10191E00FA93EA93DE011A9693DE9F01AE81BF81A0
:10192E00E0E0EC93F9010E949F0F2A96FF90089534
:10193E00BA93AA93A991B991EE27FF276D916623C9
:10194E0011F03196FBCF0895BA93AA93AA27BB271D
:10195E00E991F9910590002011F01196FBCFFD0150
:10196E000895BA93AA93E991F99130971AF4E095F4
:10197E00F09531960895FFE0FA95F1F70895A7B323
:10198E00AF70A7BBC19AC098F6DFC29AF4DFA6B3B8
:10199E00C298F1DFC29AEFDFC298A7FDF5CF089586
:1019AE00A07FAB2BA8BBC29A0E94C20CC2980E9409
:1019BE00C20C0895AA93C198A7B3A76FA7BBB8B3DB
:1019CE00BF70A881EDDFA881A295EADFC19A0C94C1
:1019DE00B70DC29A0E94C20CE6B3C2980E94C20C06
:1019EE00E07F08950E94C20CF4DFAE2FF2DFC198A3
:1019FE00E295EA2B0895AA930E94C60CE881F0E0C6
:101A0E00E954FD4FE081A981AE0F0E94E10CE981FE
:101A1E00E093BB02E881E093BC02229608950E94F7
:101A2E00C60CA2E00E94E10C0E94C60CACE00E9423
:101A3E00E10C0E94C60CA1E00E94E10CE0E0E093F4
:101A4E00BC02E093BB020895AA93EF93FF93A88183
:101A5E006894AA3039F0E894E091BD02A091BB02DF
:101A6E00AE1758F0E091BC02EF5FE093BC02E0E0ED
:101A7E00EA93A091BC02BFDF56F0E091BB02EF5F8C
:101A8E00E093BB027CDFC09AA8810E94E10CFF911B
:101A9E00EF910C94B70DBA93AA931A93A981BA81B8
:101AAE00ED91A983BA831E2FE03019F0A12FCCDF60
:101ABE00F5CF10C0BA93AA931A93E981FA813196A1
:101ACE00E983FA833197E4911E2FE03019F0A12FAC
:101ADE00BBDFF3CF188123960895AA27BB27119752
:101AEE00F1F70895AA93C198A7B3A76FA7BBB8B390
:101AFE00BF70A8810E94D70CC19A32C0AA93C29817
:101B0E00C098E881E093BD02E058E093B902E88105
:101B1E00E054E093BA020E948D0F0E948D0F0E9436
:101B2E008D0FDBDFA0E2DEDFD8DFA8E20E94920F8E
:101B3E00A4E00E94920FA5E80E94920FA7B3AF7087
:101B4E00A7BBC19A0E94F90CE53011F0E0E008C085
:101B5E000E94C60CA6E00E94E10C0E94160DE1E068
:101B6E0021960895E7E0F0E08E169F060895A82DC1
:101B7E000E9486010E2EF401ACE1B0E0EE0FFF1FC5
:101B8E00AE0FBF1F0E94F90FA02DB0E00895EA9F7F
:101B9E00F0016E0F7F1F0895EA93A0E00C94020DE2
:101BAE00E0E6F2E0FA93EA930895FF276627772797
:101BBE000E94F40F0895F401A0E0B0E0EE0FFF1FB5
:101BCE000895F0E00E940910E0E0E6CF0E94610D5A
:101BDE00E0E0EA93A1E00E94020DE2CFE9E9F0E035
:101BEE00FA93EA93F4010E94B40F0E94F40F089541
:101BFE00AE0FBF1F0E94F90F0E94B40F0E94F40F88
:101C0E0088E00E94630C2C96A0E6B2E00E94520D72
:101C1E00C398AAE0B0E00E940D11C39A0895F40192
:101C2E00AEE0B0E0EE0FFF1F0895AE0FBF1F0E9493
:101C3E00F90F08950E94B40F0E94F40F0895AA930D
:101C4E00E881F0E0F9BDE8BDE981F0E0FBBDEABD59
:101C5E000895A881B9810E9422100895A881B981A2
:101C6E000C949101E881F9810E94B40F0E949210A8
:101C7E0008950E945B10ED93FC930895A4E6B0E0E6
:101C8E000C94DC02E0918F02F09190020895E091A5
:101C9E009D02F0919E020895E0919B02F0919C02AC
:101CAE000895F0DFEC71EC3108950E94E201AA81F3
:101CBE00BB810C942B03ED91FD913196FE93EE9327
:101CCE000895A881B9810C94DC02EA81EA93AB8174
:101CDE000E94AC020C94E201EA81EA93AB810E946D
:101CEE00A5020C94E201BA93AA93AAE2B0E00E9474
:101CFE00F90F30970895EA81FB81FA93EA93AA814E
:101D0E00BB810895EA93A1E00C94020DE2E0F0E0AD
:101D1E00FA93EA930895A8E7B0E00C940604E1E084
:101D2E00F0E0FA93EA930895A4E6B0E00C9406046A
:101D3E00AFE0B0E00E949101F2CFEAE5F0E0FA9355
:101D4E00EA93A5E0B0E00E944404A4E1B0E00E9452
:101D5E00C804E4E6EA93A4E60E949E02A6E2B0E07E
:101D6E000E949101E4E6F0E0FA93EA930895A4E16B
:101D7E00B0E00E94B104CACFE4E6F0E0FA93EA9331
:101D8E0008950E94D604CBCFA4E1B0E00C94A60433
:101D9E00A4E1B0E00C94B104E3E0F0E0FA93EA932E
:101DAE00BACFA5E0B0E00E94A604E6CFEAE5F0E0E7
:101DBE00FA93EA930895E4E6EA93A4E60E949E025B
:101DCE00A1E2B0E00E949101D7CFAAE5B0E00E9457
:101DDE000604A5CFA2E3B0E00E942A04A4E1B0E07D
:101DEE000C94BD04A5E0B0E00E944404A4E1B0E070
:101DFE000895E091A302F091A40230970895E4E6CD
:101E0E00EA93A4E60E949E02A6E2B0E00E9491012F
:101E1E00B3CFA091A302B091A4020895E0E5F0E043
:101E2E00FA93EA930895A2E3B0E00E9491010E9412
:101E3E00F604E093B102F093B20230970895A091A8
:101E4E00B102B091B20208950E94160DE0E0A4CE48
:101E5E000E94610DE0E056CFE0E0F0E0FA93EA93E5
:101E6E00EA93A0E0B0E00C944708A4E6B0E00C942E
:101E7E009101A4E6B0E00E94B302A8ECB0E00C948D
:101E8E000D110E94610DECE9FFEFFA93EA930895AC
:101E9E00ACE9BFEF0E94B302A8ECB0E00E940D11B6
:101EAE00E0E030CF0E94610DE0E0E0938702A2E314
:101EBE00B0E00C949101E0918202F0918302FA93CA
:101ECE00EA930895EA93A0918402B09185020C944E
:101EDE0047082A93AD85BE85EF85F8890995089543
:101EEE00E889F9893497E88BF98B0895AD85BE851D
:101EFE00EF85F88909950895A889B9891496ED9109
:101F0E00FD91EE83FF83AE81BF8108950E94740D13
:101F1E00A0E30C94790D0E94E10C0C94740D5A936D
:101F2E004A933A932A931A930A9308955D814C81AA
:101F3E003B812A811981088108950024AF0DB01DBF
:101F4E000895F195E195F0400895F095609570959E
:101F5E00E195FF4F6F4F7F4F08956F2F660F660B02
:101F6E00762F0895FA9FF02DEB9FF00DEA9FE02D4E
:101F7E00F10D08951CD0F6DF0EF4E3DF0895002472
:101F8E00112490E1AA0FBB1F001C111C0E1A1F0A70
:101F9E0018F40E0E1F1E01C0A1609A9599F7FD014F
:101FAE00D001089504D0EBDF0EF4CBDF0895E89452
:101FBE00F7FF02C0C6DF6894B7FF06C0B195A195C2
:101FCE00B04000F8039400FA0895ED91FC9111973A
:101FDE0008950590F491E02D08957A936A93FA93FB
:101FEE00EA930895119602D0FE2F1197E199FECF34
:101FFE00FF93FFB7F894AEBBBFBBE09AEDB3FFBF44
:10200E00FF91089507D01196EF93EF2F03D0EF9124
:10201E0011970895E19B02C0A895FCCF9FB7F89445
:10202E00AEBBBFBBE09A8DB3E81719F0EDBBE29AD9
:10203E00E19A9FBF089500240A160B060895309763
:10204E006040704009F070580895552342F450389E
:10205E0011F4E0FF04C03196691F791F6BF050E850
:10206E00572711F45F9373C05F3F31F0660F000C7A
:10207E0057956795752F08955F9300200AF072C0EB
:10208E006BC050E8192E1522880F991F9527550FF2
:10209E00879550E8072E0522660F771F7527550F77
:1020AE0067950895689401C0E8945F93F2DF7038E5
:1020BE0018F07F3F08F44BC056E1571BAAF4519518
:1020CE0058300EF4593030F0EFEFFFEF6FEF7FE73F
:1020DE0077F91AC077275523B9F0EE0FFF1F661F49
:1020EE00771F5A95D1F710C07727583028F0EF2F69
:1020FE00F62F672F5850F9CF552331F07695679507
:10210E00F795E7955A95D1F700200AF41EDF5F91F7
:10211E000895689401C0E894309760407040B1F023
:10212E00002426F0772312F400940FDF172E7EE1A1
:10213E00112032F07A95EE0FFF1F661F111CF9CF9A
:10214E00EF2FF62F612D5F938ADF5F910895EE27B3
:10215E00FF27BF015F910895EFEFFFEF6FE77FEF6E
:10216E005F910895EFEFFFEF6FE77FE75F910895BF
:10217E005F9387DF703859F3903849F30124089440
:10218E00791F23F424F300203AF3ECCF0F921F9320
:10219E002F933F934F93112722279927689FA001D2
:1021AE008F9F302D410D591F6B9F300D411D591FB3
:1021BE008E9F27D0BF9F25D06A9F23D0BE9F1DD054
:1021CE00AF9F1BD0AE9F110D291F391F491F591FDD
:1021DE00E32FF42F652F522F4F913F912F911F9187
:1021EE000F9066232AF0550FEE1FFF1F661F02C0C9
:1021FE0073954BF22ADF5F910895100D211D391F43
:10220E0002C0200D311D491F591F0895109639F037
:10221E00A8958DEC9AE00197F1F71197C9F70895FB
:00000001FF
