:0C0000000C9456010C9400000C940000BD
:10000C000C9400000C9400000C9400000C94000064
:10001C000C9400000C9400000C9400000C94330A17
:10002C000C94150A0C9400000C9400000C94000025
:10003C000C9400000C9400000C9400000C94000034
:10004C000C9400000C9400001027E80364000A00D4
:10005C0001000010000110000100000000000A0067
:10006C006400C80060FFC800DC005000A000AA00BB
:10007C0005005500256425642564256425642564E4
:10008C0025640042616361204C696E650073656E86
:10009C00736F723A2564203D202564202000426154
:1000AC006361204261636B67726F756E64004365B8
:1000BC006E74657220506F696E742020202000735E
:1000CC00656E736F723A2564202D2D3E20256420B9
:1000DC0020002564202020004D656E750043616C66
:1000EC006962726174696F6E0052756E20426F7432
:1000FC000053656E73205761726E61004D61702004
:10010C0042697275004D6170204D65726168004DD9
:10011C006F746F7200427574746F6E004361706916
:10012C007400436C69636B203220746F20737461AC
:10013C0072740052756E6E696E672E2E2E005465A9
:10014C007374204D6F746F72002B313030202B3153
:10015C003030002D313030202D313030002B31300B
:10016C0030202D313030002D313030202B313030DB
:10017C0000436C69636B203120746F20657869745F
:10018C0000746F6D626F6C203D2031202020202088
:10019C0000746F6D626F6C203D2032202020202077
:1001AC0000746F6D626F6C203D2033202020202066
:1001BC0000746F6D626F6C203D2034202020202055
:1001CC00005761726E613A0045786974696E672EEA
:1001DC002E2E005465737420436170697400436162
:1001EC007069743A203E203C0043617069743A2077
:1001FC003C203E0043617069743A205C2F004361DF
:10020C007069743A202F5C00486F6C642031207444
:10021C006F20657869740058440020202020204C01
:10022C004547494F4E202020202000204D414E2094
:10023C0034204A4F4D42414E4720000001002D4EC4
:10024C00414E00494E46000080C004000400660088
:10025C00010093026A00010095026C0001009702F4
:10026C006E0002009902700001009B0272000100F6
:10027C00A30274000100A50276000100A702780019
:10028C000100A9027A000100AB027C000100AD0262
:10029C007E000100B10248020200B50254020000C7
:1002AC00F894EE27ECBBF1E0FBBFEBBFE5BFF8E148
:1002BC00F1BDE1BD8DE0A2E0BB27ED938A95E9F796
:1002CC0080E098E0A0E6ED930197E9F7E6E5F2E02F
:1002DC0085919591009761F0A591B5910590159038
:1002EC00BF01F00105900D920197E1F7FB01F0CFF2
:1002FC00EFE5EDBFE8E0EEBFC0E6D2E00C94340AC7
:10030C00AA93E881E066E7B9369A349BFECF349A1B
:10031C00E5B121960895BA93AA93A881B9810E9458
:10032C00FC103CC3882499240E94A70DD4F40E948D
:10033C00AC0DEA17FB0734F4A6E8B2E0A80DB91D22
:10034C00E1E00AC00E94AC0DAE17BF0734F4A6E87A
:10035C00B2E0A80DB91DE0E0EC93F40131964F0129
:10036C00E3CF0895A0918C02E0E4EA9FB001A09144
:10037C008B02E0E20E94BC0DA0918A02E0E10E9497
:10038C00BC0DA0918902E8E00E94BC0DA0918802EE
:10039C00E4E00E94BC0DA0918702E2E00E94BC0D3B
:1003AC00A0918602E1E0EA9FF001E60FF71FE093CF
:1003BC008D02F0938E020895B5DFD4DF0895B2DF7D
:1003CC00E9E00E94C10D0E94C50DE0E8F0E0FA934F
:1003DC00EA93E09186020E94CA0DE09187020E9486
:1003EC00CA0DE09188020E94CA0DE09189020E9418
:1003FC00CA0DE0918A020E94CA0DE0918B020E9404
:10040C00CA0DE0918C020E94CA0D8CE10E94510C25
:10041C00A096E1C2882499240E94A70DD4F40E94CE
:10042C00D00DEA0FFB1FFF93EF93A82D69DFAF915F
:10043C00BF910E94D60DAFE8B0E00E94DB0D0E9488
:10044C00E30D0E94D00D0E94ED0DF40131964F0189
:10045C00E3CF0895882499240E94A70DD4F40E9418
:10046C00040EEA0FFB1FFF93EF93A82D49DFAF910A
:10047C00BF910E94D60DAAEAB0E00E94DB0D0E944B
:10048C00E30D0E94040E0E94ED0DF40131964F0114
:10049C00E3CF0895882499240E94A70D0CF040C046
:1004AC00F401ACE1B0E0EE0FFF1FEA0FFB1FBF0140
:1004BC000E94040E0E940A0E0F010E94D00D0E9491
:1004CC000A0ED001AE0FBF1FE2E0F0E00E94C80F91
:1004DC00DB010E94F80FE0E00E94C10DAAEBB0E036
:1004EC000E94DB0DEBECF0E0FA93EA93F4010E942E
:1004FC000F0EF401ACE1B0E0EE0FFF1F0E940A0EEC
:10050C000E940F0E88E00E94510C2C96A0E6B2E0DF
:10051C000E94400DC398C39AF40131964F01BCCF91
:10052C0008950E94140E929A93989698979A36C2B0
:10053C000E94140E9298939A969A97982FC20E94A2
:10054C00140E9298939A9698979A28C20E94140E19
:10055C00929A9398969A979821C2BA93AA93AA8141
:10056C00BB810E9411101CF4929A939808C0929827
:10057C00939AAA81BB810E94A60CEA83FB83EA8131
:10058C00FB81FBBDEABD0E941E0E1CF4979A969847
:10059C0008C09798969AA881B9810E94A60CE88306
:1005AC00F983E881F981F9BDE8BDDFC1BA93AA935B
:1005BC00949A959A9298939896989798A881B981BD
:1005CC000E94FC10EBC1BA93AA93EA81EA93AB8127
:1005DC00A8DF0E94230EC9C1BA93AA930E94270ECA
:1005EC00AAE9B9E989E19EE30E94AE10A3E9B2E061
:1005FC000E942E0E0E94270EAAE9B9E989E19FE319
:10060C000E94AE10A5E9B2E00E942E0EE881F9819D
:10061C00E0939702F09398020E94270EA0E0B0E0BE
:10062C0080E49FE30E94AE100E941510A9E9B2E08D
:10063C000E942E0EE881F981E0939B02F0939C02BC
:10064C00ADC1C3980E94330EFDCFBA93AA932297E3
:10065C000E94850FA885B985BFDF0E94370EEF7702
:10066C00F070E0938D02F0938E020E94370EE13011
:10067C00A0E0FA0719F4EAEFFFEF56C0E330A0E070
:10068C00FA0719F4EBEFFFEF4FC0E230A0E0FA07E6
:10069C0019F4ECEFFFEF48C0E630A0E0FA0719F4CC
:1006AC00EDEFFFEF41C0E430A0E0FA0719F4EEEFF4
:1006BC00FFEF3AC0EC30A0E0FA0719F4EFEFFFEFD0
:1006CC0033C0E830A0E0FA0731F4E0E0E0938F02A9
:1006DC00E09390022DC0E831A0E0FA0719F4E1E0B4
:1006EC00F0E022C0E031A0E0FA0719F4E2E0F0E01B
:1006FC001BC0E033A0E0FA0719F4E3E0F0E014C00B
:10070C00E032A0E0FA0719F4E4E0F0E00DC0E036C6
:10071C00A0E0FA0719F4E5E0F0E006C0E034A0E050
:10072C00FA0731F4E6E0F0E0E0938F02F0939002E8
:10073C00A0919102B0919202E0918F02F0919002FF
:10074C00EA1BFB0B8F01E0918F02F0919002E0937A
:10075C009102F0939202E0919302F0919402A09195
:10076C008F02B09190020E94B00FBF01E0919502F0
:10077C00F0919602D8010E94B00FE60FF71F9F016F
:10078C00A0919702B0919802EA0FFB1FAF01E09184
:10079C009702F0919802E21BF30BEE83FF830E9409
:1007AC003C0EE417F50724F440919B0250919C02F7
:1007BC000E94410E4E175F0724F44091990250910C
:1007CC009A020E943C0EAE81BF81EA17FB0724F40B
:1007DC000E943C0EEE83FF830E94410EAE81BF81CE
:1007EC00AE17BF0724F40E94410EEE83FF835A9389
:1007FC004A93A885B985B1DE0E948C0F2A9608957C
:10080C00BA93AA93EA81FB814E165F06D4F40E9438
:10081C00460E29F0D1DDA881B98117DFF8CF0E94EF
:10082C00460E71F4C9DDC398A881B9810EDF0E9410
:10083C00460E29F0F20131962F013197C39AEFCF72
:10084C00E1CF4424552491C0BA93AA93E0E0E093FD
:10085C009D02E0939E02EC81FD81A0919D02B091DE
:10086C009E02AE17BF073CF40E944A0EADE9B2E0FF
:10087C000E94500EF0CF0E94560E20C0BA93AA933D
:10088C00EC81FD814E165F06BCF40E944A0E0E945C
:10089C00370EEF77EF3771F4F20131962F01319764
:1008AC00EA81EA93AB8144DE0E94230EAAE0B0E019
:1008BC007DDE01C0EACFE4CF44245524269608956A
:1008CC00BA93AA9379DDE0918602E03021F4E091AD
:1008DC008702E03019F00E945A0EF5CFE0918602A3
:1008EC00E03021F4E0918702E03009F003C00E946F
:1008FC005A0EF4CF0E941E0E14F40E94560E35C0F0
:10090C00BA93AA9359DDE0918B02E03021F4E09187
:10091C008C02E03019F00E94610EF5CFE0918B0251
:10092C00E03021F4E0918C02E03009F003C00E9429
:10093C00610EF4CF0E941E0E14F40E94560E15C0C8
:10094C000E94680E21F40E94700EDADF03C00E9430
:10095C00700EB6DF0AC00E94680E21F40E94700E61
:10096C00AFDF03C00E94700ECBDF24960895BA93BC
:10097C00AA93EDEEDE2E0E94230EEAEECE2E0E94FE
:10098C00230E0CC0BA93AA93E0EFCE2E0E94230E36
:10099C00E6EEDE2E0E94230EEAEECE2E229608956F
:1009AC00E0EFCE2EE6EEDE2E0895A7E0A9DC6E2E4B
:1009BC007724EDE00E94770E0E94C50DEEEDF0E07D
:1009CC00FA93EA93F301662777270E94E30F84E0FA
:1009DC000E94510C2896A0E6B2E00E94400D0895AA
:1009EC001A930A93A7E08CDC6E2E7724E091AD026B
:1009FC00F091AE02E615F70538F4E091A702F091FC
:100A0C00A8026E167F0608F003C000E010E026C0B6
:100A1C00E091AB02F091AC02E615F70538F4E091E9
:100A2C00A502F091A6026E167F0608F003C001E045
:100A3C0010E014C0E091A902F091AA02E615F705A6
:100A4C0038F4E091A302F091A4026E167F0608F030
:100A5C0003C002E010E002C003E010E0F8010991CD
:100A6C00199108950E947B0E0E94800E0E94840EA4
:100A7C000E94890E0E948D0E0E94920E0E94AC0E56
:100A8C000E94890E0E94B10E0E94AC0E0E94800E34
:100A9C000E94B60EAAE5E6C00E94840E0E94890E42
:100AAC000E94B10E0E94B90E0E947B0E0E94800E15
:100ABC000E94840E0E94890E0E948D0E0E94920E3E
:100ACC00A5E0B0E048DF0E94B10E0E94BD0E0E946E
:100ADC00840E0E94890E0E94C10E0E94840E0E94F8
:100AEC00890E0E94B10E0E94BD0E0E94B60E0E948D
:100AFC00890EE2E3F0E0FA93EA93EAE5F0E0BAC09B
:100B0C000E94840E0E94890E0E94B10E0E94AC0EAF
:100B1C000E94800E0E94840E0E94890E0E948D0EEF
:100B2C000E94920E0E94C60E0E94B90E0E94840E64
:100B3C000E94890E0E94B10E0E94B90E0E94B60E40
:100B4C000E94890EEBE2F0E0FA93EA93EFE5F0E015
:100B5C0091C00E94840E0E94890E0E94B10E0E94C8
:100B6C00BD0E0E94840E0E94890E0E947B0E0E9474
:100B7C00800E0E947B0E0E94890E0E948D0E0E9498
:100B8C00920E0E94C60E0E94B90E0E94840E0E9404
:100B9C00890E0E947B0E0E94890E0E94B10E0E944B
:100BAC00B90E0E947B0E0E94800E0E94840E0E9441
:100BBC00890E0E94840E0E94890E0E94CB0EAAE020
:100BCC00B0E0BEDE0E94840E0E94890EE9DEEFE3E7
:100BDC00F0E04CC00E94840E0E94890E0E94B10E5F
:100BEC000E94B90E0E94840E0E94890E0E948D0EE6
:100BFC000E94920E0E94B90E0E947B0E0E94800EE3
:100C0C000E94840E0E94890E0E94840E0E94890EFE
:100C1C000E94B10E0E94B90EE2E0F0E018C00E94F2
:100C2C00D00E0E94C60E0E94B90E0E94840E0E9425
:100C3C00DA0E0E94800E0E94840E0E94890E0E9481
:100C4C008D0E0E94920E0E94B90EE1E0F0E0FA9334
:100C5C00EA930E94800E0E94840E0E94890E0E94CC
:100C6C00B60EA4E6B0E0CCDDE1E2F0E0FA93EA9354
:100C7C00E0E5F0E0FA93EA930E94DF0E08950E94FB
:100C8C00D00E0E94C60E0E94B90E0E94840E0E94C5
:100C9C00890E0E94840E0E94800E0DC00E94840E4C
:100CAC000E94890E0E94B10E0E94BD0E0E948D0EF4
:100CBC00E4E6F0E00EC0E1E0F0E0FA93EA930E9483
:100CCC00800E0E94840E0E94890E0E948D0EEAE511
:100CDC00F0E0FA93EA930E94E70E54DE08950E9426
:100CEC00EE0E29F40E94F40E0E94BD0E3CC00E9430
:100CFC00FE0E119751F40E94F40E0E94C60E0E9433
:100D0C00B90E0E94840EA4E624C00E94FE0E129717
:100D1C0069F40E94F40E0E94C60E0E94B90E0E9445
:100D2C00840E0E94890EE2E0F0E010C00E94FE0EDC
:100D3C001397C9F40E94F40E0E94C60E0E94B90EBD
:100D4C000E94840E0E94890EE4E0F0E0FA93EA938C
:100D5C00A8E7B0E055DD0E94840E0E94890E0E9427
:100D6C00B10E0E94B90EACC00E94EE0ED1F4E4E6B6
:100D7C00EA93A4E6DDDBA6E2B0E0CDDA0E94030F35
:100D8C000E94BD0E0E94840E0E94890E0E94C10E0C
:100D9C000E94840E0E94890E0E94B10E0E94BD0E0C
:100DAC003AC00E94FE0E1197A9F40E94F40E0E9404
:100DBC00BD0E0E94840E0E94890E0E94840E0E9419
:100DCC00800E0E94840E0E94890E0E94B10E0E9419
:100DDC00BD0E21C00E94FE0E129769F40E94F40E03
:100DEC000E94BD0E0E94840E0E94890E0E94B10EBC
:100DFC000E94BD0E10C00E94FE0E139761F40E945B
:100E0C00F40E0E94B90E0E94840E0E94890E0E945C
:100E1C00B10E0E94B90E54C00E94EE0EC9F40E948D
:100E2C00F40E0E94C60E0E94B90E0E94840E0E94FF
:100E3C00890EE4E0F0E0FA93EA930E94800E0E949F
:100E4C00840E0E94890E0E94B10E0E94BD0E38C005
:100E5C000E94FE0E1197B9F40E94F40E0E94C60E69
:100E6C000E94B90E0E94840E0E94890E0E947B0E75
:100E7C000E94800E0E94840E0E94890E0E94B10E68
:100E8C000E94BD0E1DC00E94FE0E129789F40E9496
:100E9C00F40E0E94BD0E0E94840E0E94890E0E94C8
:100EAC00840E0E94890E0E94B10E0E94BD0E08C0D5
:100EBC000E94FE0E139721F40E94F40E0E94B90EAC
:100ECC0001D008950E94C10E0E94840E0E94890ECA
:100EDC000E94B60E0E94890E0E948D0E0E94CB0EAF
:100EEC000E94E70E44DD01D008950E94F40EAAE0A2
:100EFC00B0E026DD0E94B10E0E94B90E0E94840E55
:100F0C000E94DA0E0E94800E0E94B10E0E94BD0E4D
:100F1C000E94EE0E21F40E94840EA4E627C00E94CB
:100F2C00FE0E119759F40E94840E0E94890E0E94A5
:100F3C00840E0E94800EE1E0F0E015C00E94FE0ECF
:100F4C00129739F40E94840E0E94890EE4E0F0E0BE
:100F5C000AC00E94FE0E139759F40E94840E0E9440
:100F6C00890EE6E0F0E0FA93EA93A8E7B0E048DCFB
:100F7C000E948D0E0E94CB0E0E94E70E03DD01D065
:100F8C000895E4E6EA93A4E6D3DAA4E1B0E0C3D989
:100F9C000E94B10E0E94B90E0E94840E0E94890E0E
:100FAC000E94C10E0E94840E0E94890E0E94B10EF6
:100FBC000E94B90E0E94840E0E94800E0E94840E24
:100FCC000E94890E0E948D0E0E94CB0EA5E0B0E00F
:100FDC0055DCE4E6EA93A4E6A4DAAEE1B0E09BD9F2
:100FEC000E94330E2EDB08950E94030FACE3B0E099
:100FFC00EADA0E947B0E0E94800E0E94B60E0E94BE
:10100C00890EECE1F0E0FA93EA930E94030F0E9440
:10101C00DF0E0E94080F11F473DD0BC00E94140F39
:10102C00119711F439DD05C00E94140F129701F4C9
:10103C0019DDD6DCE093AF02F093B002309711F4D7
:10104C00EEDD0BC00E94140F119711F4C3DD05C027
:10105C000E94140F129701F47CDD0E94080F19F402
:10106C002ADEDADE0DC00E94140F119719F416DE79
:10107C007BDE06C00E94140F129701F400DE2FDEF7
:10108C000895AA93C398E981FA81E0938202F093C0
:10109C008302E881E03021F4E0918402E03009F031
:1010AC0006C00E94190FA4EEB0E00E944F0DE9811A
:1010BC00FA81309769F4E881E03011F0B4D08EC039
:1010CC00E0E00E94770EA9EEB0E00E944F0D86C0C2
:1010DC00E130A0E0FA0789F4E881E03021F4E091F6
:1010EC008402E03011F07CD079C0E0E00E94770EF1
:1010FC00A5EFB0E00E944F0D71C0E230A0E0FA07FE
:10110C0069F4E881E03011F012D168C0E0E00E948F
:10111C00770EADEFB0E00E944F0D60C0E330A0E061
:10112C00FA0799F4E881E03021F4E0918402E03090
:10113C0021F0A0E0B0E080D051C0E0E00E94770E3A
:10114C00A8E0B1E00E944F0D49C0E430A0E0FA07DE
:10115C0099F4E881E03021F4E0918402E03021F050
:10116C00A1E0B0E069D03AC0E0E00E94770EA1E1C6
:10117C00B1E00E944F0D32C0E530A0E0FA0769F4EF
:10118C00E881E03011F06ED029C0E0E00E94770ECB
:10119C00ABE1B1E00E944F0D21C0E630A0E0FA07B0
:1011AC0069F4E881E03011F08CD018C0E0E00E94C6
:1011BC00770EA1E2B1E00E944F0D10C0E730A0E025
:1011CC00FA0761F4E881E03011F0DDD007C0E0E00F
:1011DC000E94770EA8E2B1E00E944F0D0C94600DB6
:1011EC00E0918402E03071F40E94190FA5EFB0E099
:1011FC000E941D0FAEE2B1E00E944F0DE1E0E093C2
:10120C00840210C0E0918402E03061F00E94040D71
:10121C00E0E00E94770EAFE3B1E00E944F0DE4DEF8
:10122C000E94210F0895F6D8ACE2B1E074D812D91F
:10123C000E942B0F2FD93FC0BA93AA93A881B981D2
:10124C00109711F0119709F403C0E0E0E883E983EB
:10125C00E881F981AAE2B0E00E94F80F0E94210F08
:10126C000C94020D0E94190FAAE4B1E00E941D0F0C
:10127C00A5E5B1E00E944F0D0E94B10E0E942F0F08
:10128C00E0E00E94770EAFE5B1E00E94370F0E94BC
:10129C003E0FA9E6B1E00E944F0D0E94B10E0E94D4
:1012AC003E0FA3E7B1E00E94370F0E942F0F0E9460
:1012BC00330E0E94190FE0E0E09384020E94480F65
:1012CC000895E0E00E94770EADE7B1E00E944F0D6B
:1012DC00E1E0E0938502E0918502E03039F19899E4
:1012EC0009C0E0E00E94C10DADE8B1E00E944F0FD3
:1012FC000E94480F999907C0E0E00E94C10DADE92A
:10130C00B1E00E944F0D9A9907C0E0E00E94C10D18
:10131C00ADEAB1E00E944F0D9B9907C0E0E00E943E
:10132C00C10DADEBB1E00E944F0DD5CF08950E94D9
:10133C00190FADEFB0E00E941D0FADECB1E00E94B3
:10134C004F0DE1E0E09385022BDBA8ECB0E00E94AE
:10135C009101A4E1B0E00BDB28DBE0918502E030E9
:10136C0039F40E94040DE6EEDE2E0E94480F0AC0EE
:10137C00989907C0E0E00E94C10DA4EDB1E00E9475
:10138C004F0FEACF08950E94190FAFEDB1E00E9404
:10139C001D0FAAEEB1E00E944F0DEDEEDE2EA2E382
:1013AC00B0E00E949101E0E00E94770EA5EFB1E061
:1013BC000E944F0DE6EEDE2E0E942B0FE0E00E9405
:1013CC00770EA0E0B2E00E944F0DE0EFCE2E0E940F
:1013DC002B0FE0E00E94770EAAE0B2E00E944F0DC6
:1013EC00EAEECE2E0E942B0F08950E94E201E7E058
:1013FC000E94C10D0E94C50DECE8F0E0FA93EA934F
:10140C00AAE2B0E00E94E80F0E940F0E84E00E9456
:10141C00510C2896A0E6B2E00E94400D0895AA93C4
:10142C00EA93EFB7EA93E6E9E2BFE0918102EF5F5E
:10143C00E0938102A0918102DA1610F0AE9801C0FF
:10144C00AE9AA0918102CA1610F0AF9801C0AF9A63
:10145C00E991EFBFE991A99118951895E0E0EBBBE4
:10146C00EABBE8E0E8BBEFEFE7BBE5BBE0EFE4BBD2
:10147C00E3E0E2BBECEFE1BBEAE4E3BFE6E9E2BFA9
:10148C00E0E0ECBFE1EAEFBDE9E0EEBDE0E0EDBD90
:10149C00ECBDE7BDE6BDEBBDEABDE9BDE8BDE2BD17
:1014AC00E5BDE4BDE3BDE5BFE4BFE1E0E9BFE0E8D5
:1014BC00E8B9E0E0E0BFE5BFE4BFEBB9E8E1EAB9C9
:1014CC00E6E8E0BDE0E0E0BDE7E4E9B9E0E6E7B975
:1014DC00E4E8E6B9E0B7EF71E0BFA0E10E94730D5C
:1014EC000E94040DC398E0E00E94C10DA6E2B2E098
:1014FC000E941D0FA7E3B2E00E944F0DA2E3B0E0E3
:10150C000E94FC100E94040D7894EAEECE2EE6EEBA
:10151C00DE2EAAE2B0E00E94E80F309721F0E13015
:10152C00A0E0FA0709F406C0AAE2B0E0E0E0F0E0BF
:10153C000E94F80F0E94190FA4EEB0E00E941D0F3C
:10154C00A9EEB0E00E944F0DE0918402E03021F44E
:10155C000E94E5012ADA49DF98991BC0E0918402C8
:10156C00E03021F4A2E8B2E00E94500EA091820279
:10157C00B091830217972CF0E0E0E0938202E093A5
:10158C008302AAE0B0E00E9491010E94580FA0E0F3
:10159C0078DD999908C00E94580FA1E072DDAAE08D
:1015AC00B0E00E949101D0CFFFCFBA93AA931A93C7
:1015BC000A93AA81BB8112960E94DB0F309729F106
:1015CC00AA81BB8114960E94DB0F8F01309761F0CA
:1015DC000230E0E01E0780F0F80131978F01AA81FC
:1015EC00BB811496ED93FC93AA81BB8112960E9449
:1015FC00500E3197AC81A083AA81BB810E94DB0F76
:10160C00FF2312F00E94500E06C0AA81BB81EFEF9F
:10161C00FFEFED93FC931981088125960895BA93F9
:10162C00AA9326970E94850F10E0AC85BD85E0E05B
:10163C00F0E0ED93FC93EA89FB893196EA8BFB8B06
:10164C003197E4912E2FE03009F41DC1E12FE030E9
:10165C0039F4253211F411E002C00E945F0F12C15F
:10166C00E130A9F4253219F40E945F0F0AC112E08F
:10167C0040E000E02D3211F401E004C12B3211F4F2
:10168C004BE200C1203211F440E2FCC002C0E23057
:10169C0039F450E013E0203311F40068F3C003C0B8
:1016AC00E33009F0EFC0203310F02A3308F007C004
:1016BC00AAE05A9F502DE22FE0535E0FE3C0E22FB9
:1016CC00E33649F40E94660FE889F989A481AA934C
:1016DC000E946C0FD6C0E33741F40E94660F0E9443
:1016EC00720F0E948D0C1E2F0AC0E03761F40E940D
:1016FC00660F0E94720F0E94990C1E2F08600260E8
:10170C000F7730E03CC0E43611F0E93611F4046098
:10171C0002C0E53731F4E4E5F0E0EE83FF8315E039
:10172C000CC0E83511F4086003C0E83709F0A9C013
:10173C00EEE5F0E0EE83FF8314E002FF17C00E9499
:10174C00660FA889B9891496ED91FD91EA87FB87FC
:10175C00AB85AA232AF40E94970FEA87FB874DE2F8
:10176C00403011F01F5F01C00B7F09C00E94660F53
:10177C00A889B98914960E94DB0FEA87FB8700FDC4
:10178C0011C0151778F407FF08C002FF04C00B7FC7
:10179C00242F115001C020E301C020E20E945F0FF2
:1017AC005150EFCF312F01FF17C03030A1F003FFA4
:1017BC0006C0EE81FF812591EE83FF8305C0AE81CB
:1017CC00BF812D91AE83BF830E945F0F503009F013
:1017DC0051503150EACF4BC020E3EE81FF810E9483
:1017EC00DF0FE887F987EE81FF813296EE83FF8366
:1017FC00E885F985AA85BB85AE17BF0750F02F5F2A
:10180C00A885B985EA85FB85EA1BFB0BEA87FB8774
:10181C00EFCF2A3328F003FF02C0295F01C0295DF6
:10182C0004FD1AC0213320F4A885B985119709F459
:10183C0009C0531710F000FF01C013C020E207FFCE
:10184C000BC020E3006102FF07C00B7F4A930E948C
:10185C006C0F503009F051500E945F0F503009F05E
:10186C0051503150A885B985129708F0B5CF00FFBB
:10187C0008C0503031F05150E0E2EA930E946C0FF6
:10188C00F8CF10E0D8CEAC85BD85ED91FD910E94CE
:10189C008C0F64960895FF92F82E26970E94870F5E
:1018AC00DE011C960E94930F0E94DB0F309719F4F7
:1018BC00EFEFFFEF27C0DE0116960E94930F8D010C
:1018CC00DE011C960E94930FED91FD91EE83FF8338
:1018DC00E0E0E887E987DE011A960E94930FED910C
:1018EC00FD91FA93EA931A930A93EBEDFAE0FA93CB
:1018FC00EA93DE011A9693DE9F01AE81BF81E0E090
:10190C00EC93F9010E948E0F2A96FF900895BA93DA
:10191C00AA93A991B991EE27FF276D91662311F037
:10192C003196FBCF0895BA93AA93AA27BB27E991C6
:10193C00F9910590002011F01196FBCFFD0108954F
:10194C00BA93AA93E991F99130971AF4E095F0952E
:10195C0031960895FFE0FA95F1F70895A7B3AF70AB
:10196C00A7BBC19AC098F6DFC29AF4DFA6B3C2989F
:10197C00F1DFC29AEFDFC298A7FDF5CF0895A07FE3
:10198C00AB2BA8BBC29A0E94B00CC2980E94B00CA0
:10199C000895AA93C198A7B3A76FA7BBB8B3BF709C
:1019AC00A881EDDFA881A295EADFC19A0C94A50D60
:1019BC00C29A0E94B00CE6B3C2980E94B00CE07FB1
:1019CC0008950E94B00CF4DFAE2FF2DFC198E295BF
:1019DC00EA2B0895AA930E94B40CE881F0E0EB5432
:1019EC00FD4FE081A981AE0F0E94CF0CE981E093FD
:1019FC00B902E881E093BA02229608950E94B40CD1
:101A0C00A2E00E94CF0C0E94B40CACE00E94CF0C60
:101A1C000E94B40CA1E00E94CF0CE0E0E093BA026B
:101A2C00E093B9020895AA93EF93FF93A881689469
:101A3C00AA3039F0E894E091BB02A091B902AE173C
:101A4C0058F0E091BA02EF5FE093BA02E0E0EA935B
:101A5C00A091BA02BFDF56F0E091B902EF5FE093BC
:101A6C00B9027CDFC09AA8810E94CF0CFF91EF9144
:101A7C000C94A50DBA93AA931A93A981BA81ED91EE
:101A8C00A983BA831E2FE03019F0A12FCCDFF5CF3C
:101A9C0010C0BA93AA931A93E981FA813196E9831B
:101AAC00FA833197E4911E2FE03019F0A12FBBDFA0
:101ABC00F3CF188123960895AA27BB271197F1F726
:101ACC000895AA93C198A7B3A76FA7BBB8B3BF706B
:101ADC00A8810E94C50CC19A32C0AA93C298C09822
:101AEC00E881E093BB02E058E093B702E881E05450
:101AFC00E093B8020E947C0F0E947C0F0E947C0F26
:101B0C00DBDFA0E2DEDFD8DFA8E20E94810FA4E0D9
:101B1C000E94810FA5E80E94810FA7B3AF70A7BBED
:101B2C00C19A0E94E70CE53011F0E0E008C00E9479
:101B3C00B40CA6E00E94CF0C0E94040DE1E02196AB
:101B4C000895E7E0F0E08E169F060895A82D0E94F8
:101B5C0086010E2EF401ACE1B0E0EE0FFF1FAE0FCC
:101B6C00BF1F0E94E80FA02DB0E00895EA9FF0017E
:101B7C006E0F7F1F0895EA93A0E00C94F00CE0E642
:101B8C00F2E0FA93EA930895FF27662777270E94DD
:101B9C00E30F0895F401A0E0B0E0EE0FFF1F0895ED
:101BAC00F0E00E94F80FE0E0E6CF0E944F0DE0E07D
:101BBC00EA93A1E00E94F00CE2CFE9E9F0E0FA939D
:101BCC00EA93F4010E94A30F0E94E30F0895AE0F55
:101BDC00BF1F0E94E80F0E94A30F0E94E30F88E032
:101BEC000E94510C2C96A0E6B2E00E94400DC398C6
:101BFC00AAE0B0E00E94FC10C39A0895F401AEE094
:101C0C00B0E0EE0FFF1F0895AE0FBF1F0E94E80F4C
:101C1C0008950E94A30F0E94E30F0895AA93E881F0
:101C2C00F0E0F9BDE8BDE981F0E0FBBDEABD089547
:101C3C00A881B9810E9411100895A881B9810C94D2
:101C4C009101E881F9810E94A30F0E9481100895EF
:101C5C000E944A10ED93FC930895A4E6B0E00C9416
:101C6C00DC02E0918D02F0918E020895E0919B02CE
:101C7C00F0919C020895E0919902F0919A020895D6
:101C8C00F0DFEC71EC3108950E94E201AA81BB8176
:101C9C000C942B03ED91FD913196FE93EE930895E8
:101CAC00A881B9810C94DC02EA81EA93AB810E9491
:101CBC00AC020C94E201EA81EA93AB810E94A5028A
:101CCC000C94E201BA93AA93AAE2B0E00E94E80F46
:101CDC0030970895EA81FB81FA93EA93AA81BB813C
:101CEC000895EA93A1E00C94F00CE2E0F0E0FA9392
:101CFC00EA930895A8E7B0E00C940604E1E0F0E064
:101D0C00FA93EA930895A4E6B0E00C940604AFE0CD
:101D1C00B0E00E949101F2CFEAE5F0E0FA93EA9389
:101D2C00A5E0B0E00E944404A4E1B0E00E94C80425
:101D3C00E4E6EA93A4E60E949E02A6E2B0E00E94CA
:101D4C009101E4E6F0E0FA93EA930895A4E1B0E09F
:101D5C000E94B104CACFE4E6F0E0FA93EA93089546
:101D6C000E94D604CBCFA4E1B0E00C94A604A4E16D
:101D7C00B0E00C94B104E3E0F0E0FA93EA93BACF4C
:101D8C00A5E0B0E00E94A604E6CFEAE5F0E0FA9305
:101D9C00EA930895E4E6EA93A4E60E949E02A1E287
:101DAC00B0E00E949101D7CFAAE5B0E00E940604F2
:101DBC00A5CFA2E3B0E00E942A04A4E1B0E00C9409
:101DCC00BD04A5E0B0E00E944404A4E1B0E0089595
:101DDC00E091A102F091A20230970895E4E6EA9313
:101DEC00A4E60E949E02A6E2B0E00E949101B3CF4D
:101DFC00A091A102B091A2020895E0E5F0E0FA935F
:101E0C00EA930895A2E3B0E00E9491010E94F604C7
:101E1C00E093AF02F093B00230970895A091AF0217
:101E2C00B091B00208950E94040DE0E0A4CE0E948F
:101E3C004F0DE0E056CFE0E0E0938402E0E0F0E00C
:101E4C00FA93EA93A0E00C944708A4E6B0E00C9453
:101E5C009101A4E6B0E00E94B302A8ECB0E00C94AF
:101E6C00FC100E944F0DECE9FFEFFA93EA930895F2
:101E7C00ACE9BFEF0E94B302A8ECB0E00E94FC10EA
:101E8C00E0E02FCFE0E0F0E0FA93EA93A0E00C94CE
:101E9C0047080E944F0DE0E0E0938502A2E3B0E01A
:101EAC000C949101E0918202F0918302FA93EA93EF
:101EBC0008952A93AD85BE85EF85F8890995089517
:101ECC00E889F9893497E88BF98B0895AD85BE853F
:101EDC00EF85F88909950895A889B9891496ED912B
:101EEC00FD91EE83FF83AE81BF8108950E94620D48
:101EFC00A0E30C94670D0E94CF0C0C94620D5A93C6
:101F0C004A933A932A931A930A9308955D814C81CC
:101F1C003B812A811981088108950024AF0DB01DE1
:101F2C000895F195E195F0400895F09560957095C0
:101F3C00E195FF4F6F4F7F4F08956F2F660F660B24
:101F4C00762F0895FA9FF02DEB9FF00DEA9FE02D70
:101F5C00F10D08951CD0F6DF0EF4E3DF0895002494
:101F6C00112490E1AA0FBB1F001C111C0E1A1F0A92
:101F7C0018F40E0E1F1E01C0A1609A9599F7FD0171
:101F8C00D001089504D0EBDF0EF4CBDF0895E89474
:101F9C00F7FF02C0C6DF6894B7FF06C0B195A195E4
:101FAC00B04000F8039400FA0895ED91FC9111975C
:101FBC0008950590F491E02D08957A936A93FA931D
:101FCC00EA930895119602D0FE2F1197E199FECF56
:101FDC00FF93FFB7F894AEBBBFBBE09AEDB3FFBF66
:101FEC00FF91089507D01196EF93EF2F03D0EF9147
:101FFC0011970895E19B02C0A895FCCF9FB7F89468
:10200C00AEBBBFBBE09A8DB3E81719F0EDBBE29AFB
:10201C00E19A9FBF089500240A160B060895309785
:10202C006040704009F070580895552342F45038C0
:10203C0011F4E0FF04C03196691F791F6BF050E872
:10204C00572711F45F9373C05F3F31F0660F000C9C
:10205C0057956795752F08955F9300200AF072C00D
:10206C006BC050E8192E1522880F991F9527550F14
:10207C00879550E8072E0522660F771F7527550F99
:10208C0067950895689401C0E8945F93F2DF703807
:10209C0018F07F3F08F44BC056E1571BAAF451953A
:1020AC0058300EF4593030F0EFEFFFEF6FEF7FE761
:1020BC0077F91AC077275523B9F0EE0FFF1F661F6B
:1020CC00771F5A95D1F710C07727583028F0EF2F8B
:1020DC00F62F672F5850F9CF552331F07695679529
:1020EC00F795E7955A95D1F700200AF41EDF5F911A
:1020FC000895689401C0E894309760407040B1F046
:10210C00002426F0772312F400940FDF172E7EE1C3
:10211C00112032F07A95EE0FFF1F661F111CF9CFBC
:10212C00EF2FF62F612D5F938ADF5F910895EE27D5
:10213C00FF27BF015F910895EFEFFFEF6FE77FEF90
:10214C005F910895EFEFFFEF6FE77FE75F910895E1
:10215C005F9387DF703859F3903849F30124089462
:10216C00791F23F424F300203AF3ECCF0F921F9342
:10217C002F933F934F93112722279927689FA001F4
:10218C008F9F302D410D591F6B9F300D411D591FD5
:10219C008E9F27D0BF9F25D06A9F23D0BE9F1DD076
:1021AC00AF9F1BD0AE9F110D291F391F491F591FFF
:1021BC00E32FF42F652F522F4F913F912F911F91A9
:1021CC000F9066232AF0550FEE1FFF1F661F02C0EB
:1021DC0073954BF22ADF5F910895100D211D391F65
:1021EC0002C0200D311D491F591F0895109639F05A
:1021FC00A8958DEC9AE00197F1F71197C9F708951E
:00000001FF
