:0C0000000C942C010C9400000C940000E7
:10000C000C9400000C9400000C9400000C94000064
:10001C000C9400000C9400000C9400000C94D3077A
:10002C000C94A8070C9400000C9400000C94000095
:10003C000C9400000C9400000C9400000C94000034
:10004C000C9400000C9400001027E80364000A00D4
:10005C000100001000011000010000000000000071
:10006C0000000000AA0001000A006400C80060FF44
:10007C00C800BE0028008700AA005A002564256429
:10008C002564256425642564256400426163612030
:10009C004C696E650073656E736F723A2564203D12
:1000AC0020256420200042616361204261636B67FC
:1000BC00726F756E640043656E74657220506F6963
:1000CC006E74202020200073656E736F723A256465
:1000DC00202D2D3E2025642020002564202020008A
:1000EC004D656E750052756E20426F740043616CE5
:1000FC006962726174696F6E004D6170004D6F744E
:10010C006F7200427574746F6E00436C69636B2080
:10011C003120746F2073746172740052756E6E6945
:10012C006E672E2E2E004D61702042697275004351
:10013C006C69636B203120746F2073656C6563741C
:10014C00004D6170204D65726168005465737420B8
:10015C004D6F746F72002B313030202B31303000EA
:10016C002D313030202D313030002B313030202DDE
:10017C00313030002D313030202B31303000436C99
:10018C0069636B203120746F206578697400746F1B
:10019C006D626F6C203D2031202020202000746F78
:1001AC006D626F6C203D2032202020202000746F67
:1001BC006D626F6C203D2033202020202000746F56
:1001CC006D626F6C203D20342020202020004C4597
:1001DC0047494F4E004D414E2034204A4F4D42412D
:1001EC004E4700544553540001002D4E414E0049DA
:1001FC004E46000080C001000200660008000400AA
:10020C00680001009A02740001009C027600010053
:10021C009E0278000200A0027A000100A2027C007B
:10022C000100A8027E000100AA0280000100AC02BD
:10023C0082000100AE0284000100B20286000100BF
:10024C00B602F4010200BA0200020000F894EE2794
:10025C00ECBBF1E0FBBFEBBFE5BFF8E1F1BDE1BDED
:10026C008DE0A2E0BB27ED938A95E9F780E098E05A
:10027C00A0E6ED930197E9F7E2E0F2E08591959124
:10028C00009761F0A591B59105901590BF01F00113
:10029C0005900D920197E1F7FB01F0CFEFE5EDBF73
:1002AC00E8E0EEBFC0E6D2E00C94D407AA93E88154
:1002BC00E066E7B9369A349BFECF349AE5B12196C5
:1002CC000895BA93AA93A881B9810E94AC0E22C357
:1002DC00CC24DD240E944F0BD4F40E94540BEA175B
:1002EC00FB0734F4ADE8B2E0AC0DBD1DE1E00AC093
:1002FC000E94540BAE17BF0734F4ADE8B2E0AC0D5E
:10030C00BD1DE0E0EC93F60131966F01E3CF08954B
:10031C00A0919302E0E4EA9FB001A0919202E0E286
:10032C000E94640BA0919102E0E10E94640BA091E9
:10033C009002E8E00E94640BA0918F02E4E00E941E
:10034C00640BA0918E02E2E00E94640BA0918D02DE
:10035C00E1E0EA9FF001E60FF71FE0939402F093BF
:10036C0095020895B5DFD4DF0895B2DFE9E00E946D
:10037C00690B0E946D0BE8E8F0E0FA93EA93E091C8
:10038C008D020E94720BE0918E020E94720BE09122
:10039C008F020E94720BE09190020E94720BE0910E
:1003AC0091020E94720BE09192020E94720BE091FA
:1003BC0093020E94720B8CE10E94F909A096C9C2AB
:1003CC00CC24DD240E944F0BD4F40E94780BEA0F4E
:1003DC00FB1FFF93EF93AC2D69DFAF91BF910E9490
:1003EC007E0BA7E9B0E00E94830B0E948B0B0E944E
:1003FC00780B0E94950BF60131966F01E3CF0895AF
:10040C00CC24DD240E944F0BD4F40E94AC0BEA0FD9
:10041C00FB1FFF93EF93AC2D49DFAF91BF910E946F
:10042C007E0BA2EBB0E00E94830B0E948B0B0E9410
:10043C00AC0B0E94950BF60131966F01E3CF08953A
:10044C00CC24DD240E944F0B0CF044C0F601ACE12F
:10045C00B0E0EE0FFF1FEA0FFB1FBF010E94AC0BB9
:10046C000E94B20B0F010E94780B0E94B20BD001BC
:10047C00AE0FBF1FE2E0F0E00E94780DDB010E949E
:10048C00A80DE0E00E94690BA2ECB0E00E94830B87
:10049C00E3EDF0E0FA93EA93F6010E94530D0E940B
:1004AC00930DF601ACE1B0E0EE0FFF1F0E94B20B12
:1004BC000E94530D0E94930D88E00E94F9092C961E
:1004CC00A0E6B2E00E94E80AC398C39AF6013196FE
:1004DC006F01B8CF08950E94B70B929A9398969893
:1004EC00979A18C20E94B70B9298939A969A9798DB
:1004FC0011C20E94B70B9298939A9698979A0AC237
:10050C000E94B70B929A9398969A979803C2BA93B3
:10051C00AA93AA81BB810E94C10D1CF4929A939854
:10052C0008C09298939AAA81BB810E944E0AEA83D2
:10053C00FB83EA81FB81FBBDEABD0E94C10B1CF46D
:10054C00979A969808C09798969AA881B9810E9414
:10055C004E0AE883F983E881F981F9BDE8BDBCC195
:10056C00BA93AA93949A959A9298939896989798E6
:10057C00A881B9810E94AC0ECDC1BA93AA93EA812D
:10058C00EA93AB81A8DF0E94C60BA6C1BA93AA93CB
:10059C000E94CA0BAAE9B9E989E19EE30E945E0EAA
:1005AC00AAE9B2E00E94D10B0E94CA0BAAE9B9E9F0
:1005BC0089E19FE30E945E0EACE9B2E00E94D10B90
:1005CC00E881F981E0939E02F0939F020E94CA0B8E
:1005DC00A0E0B0E080E49FE30E945E0E0E94C50D97
:1005EC00A0EAB2E00E94D10BE881F981E093A2026B
:1005FC00F093A3028FC1BA93AA9322970E94350D50
:10060C00A885B985C3DF0E94D60BEF77F070E09315
:10061C009402F09395020E94D60BE130A0E0FA0709
:10062C0019F4EAEFFFEF56C0E330A0E0FA0719F433
:10063C00EBEFFFEF4FC0E230A0E0FA0719F4ECEF5C
:10064C00FFEF48C0E630A0E0FA0719F4EDEFFFEF3A
:10065C0041C0E430A0E0FA0719F4EEEFFFEF3AC026
:10066C00EC30A0E0FA0719F4EFEFFFEF33C0E830FD
:10067C00A0E0FA0731F4E0E0E0939602E0939702F1
:10068C002DC0E831A0E0FA0719F4E1E0F0E022C057
:10069C00E031A0E0FA0719F4E2E0F0E01BC0E0332F
:1006AC00A0E0FA0719F4E3E0F0E014C0E032A0E0B7
:1006BC00FA0719F4E4E0F0E00DC0E036A0E0FA0728
:1006CC0019F4E5E0F0E006C0E034A0E0FA0731F4FC
:1006DC00E6E0F0E0E0939602F0939702A091980286
:1006EC00B0919902E0919602F0919702EA1BFB0BF4
:1006FC008F01E0919602F0919702E0939802F093AB
:10070C009902E0919A02F0919B02A0919602B0910D
:10071C0097020E94600DBF01E0919C02F0919D0236
:10072C00D8010E94600DE60FF71F9F01A0919E0259
:10073C00B0919F02EA0FFB1FAF01E0919E02F09176
:10074C009F02E21BF30BEE83FF830E94DB0BE4178B
:10075C00F50724F44091A2025091A3020E94E00BF1
:10076C004E175F0724F44091A0025091A1020E9401
:10077C00DB0BAE81BF81EA17FB0724F40E94DB0B75
:10078C00EE83FF830E94E00BAE81BF81AE17BF07E3
:10079C0024F40E94E00BEE83FF835A934A93A885BE
:1007AC00B985B5DE0E943C0D2A960895BA93AA939A
:1007BC00EA81FB814E165F06D4F40E94E50B29F00A
:1007CC00D1DDA881B98117DFF8CF0E94E50B71F458
:1007DC00C9DDC398A881B9810EDF0E94E50B29F011
:1007EC00F20131962F013197C39AEFCFE1CF442418
:1007FC00552472C0BA93AA93E0E0E093A402E0936C
:10080C00A502EC81FD81A091A402B091A502AE17C6
:10081C00BF074CF4A7DDAA81BB81EDDEA4EAB2E0F0
:10082C000E94E90BEECF0E94EF0B26960895BA9327
:10083C00AA9398DDE0918D02E03021F4E0918E02D4
:10084C00E03019F00E94F30BF5CFE0918D02E0300F
:10085C0021F4E0918E02E03009F003C00E94F30B0A
:10086C00F4CF0E94C10B14F40E94EF0B35C0BA9365
:10087C00AA9378DDE0919202E03021F4E0919302AA
:10088C00E03019F00E94FA0BF5CFE0919202E030C3
:10089C0021F4E0919302E03009F003C00E94FA0BBE
:1008AC00F4CF0E94C10B14F40E94EF0B15C00E94F0
:1008BC00010C21F40E94090CDADF03C00E94090C20
:1008CC00B6DF0AC00E94010C21F40E94090CAFDFB4
:1008DC0003C00E94090CCBDF24960895BA93AA9307
:1008EC00EEEEE09383020E94C60BEAEEE0938402E4
:1008FC000E94C60B0FC0BA93AA93E0EFE093840258
:10090C000E94C60BE6EEE09383020E94C60BEAEE51
:10091C00E093840222960895E0EFE0938402E6EEE1
:10092C00E09383020895A7E0C1DC8E2E9924EDE0BC
:10093C000E94100C0E946D0BE6EEF0E0FA93EA9325
:10094C00F401662777270E94930D84E00E94F90931
:10095C002896A0E6B2E00E94E80A08951A930A933A
:10096C00A7E0A4DC8E2E9924E091B202F091B302A0
:10097C00E815F90538F4E091AC02F091AD028E1651
:10098C009F0608F003C000E010E026C0E091B00222
:10099C00F091B102E815F90538F4E091AA02F09152
:1009AC00AB028E169F0608F003C001E010E014C0E5
:1009BC00E091AE02F091AF02E815F90538F4E09140
:1009CC00A802F091A9028E169F0608F003C002E05F
:1009DC0010E002C003E010E0F801099119910895AC
:1009EC000E94140C0E941A0C0E94220CE8E2F0E007
:1009FC000E94260C0E94420C0E94460CA8E70E9402
:100A0C001A0C0E944B0C0E94420C0E94140CACC09D
:100A1C000E94460C0E94220C0E94540C0E94590CFD
:100A2C000E94140C0E941A0C0E94220C0E945D0C55
:100A3C000E94720C0E94770CA4E1B0E043DF0E948C
:100A4C007C0C0E94220C0E94540C0E94420C0E94AE
:100A5C00460C0E94220C60DFEDE2F0E08EC00E949A
:100A6C00460C0E94220C0E94540C0E94420C0E94C4
:100A7C00140C0E941A0C0E94220C0E945D0CA4E122
:100A8C00B0E01FDC0E94540C0E94820C0E94870C68
:100A9C000E94460C0E944B0C0E94590C0E94460C62
:100AAC000E94220C39DF0E948B0C6BC00E94460CFA
:100ABC000E94220C0E94540C0E94420C0E947C0C3E
:100ACC000E94220C0E945D0C0E94720C0E94820CEF
:100ADC000E94870C0E94920C0E944B0C0E94870C67
:100AEC000E94970C0E94220C17DF0E94540C0E944B
:100AFC00590CE8E2F0E041C00E94460C0E944B0CFD
:100B0C000E94590C0E94460C0E94220C0E948B0CD5
:100B1C000E949D0C0E94A70C0E94870C0E94970CAF
:100B2C000E944B0C0E94590C0E94920CA6E90E9448
:100B3C00AD0C0E94220CE8E2F0E01FC00E94A70C52
:100B4C000E94770CA4E1B0E0BDDE0E94140C0E9460
:100B5C001A0C0E94220CEEE1F0E00E94260C0E947E
:100B6C00870C0E94920CA6E9B0E020DED5DE0E9434
:100B7C00460C0E94220CEEE1F0E0FA93EA93E0E5D9
:100B8C00F0E0FA93EA930E94B30C08950E94A70C2C
:100B9C000E94820C0E94870CE3E0F0E0FA93EA9347
:100BAC00A6E90BC00E94460C0E944B0C0E94420C02
:100BBC00E2E3F0E00AC00E94140CB0E0F7DD0E9402
:100BCC00460C0E94220CE3E2F0E0FA93EA93EFE584
:100BDC00F0E00E949D0C0895E0E5F0E0FA93EA93B2
:100BEC00ADE2B0E0CADC0E94140C0E94AD0C0E9475
:100BFC00220CE3E2F0E0FA93EA93E0E5F0E0FA93FA
:100C0C00EA930E94B30C0E94BB0C11F428DF0BC0BA
:100C1C000E94C70C119711F4FBDE05C00E94C70C93
:100C2C00129701F4DDDE0E94BB0C11F487DF0BC0C0
:100C3C000E94C70C119711F45FDF05C00E94C70C0E
:100C4C00129701F433DF0E94BB0C11F4B4DF0BC01C
:100C5C000E94C70C119711F4A5DF05C00E94C70CA8
:100C6C00129701F493DF0895BA93AA93C398EA817B
:100C7C00E03021F4E0918B02E03009F006C00E94D4
:100C8C00CC0CACEEB0E00E94F70AEB81FC81309703
:100C9C0079F4EA81E03021F4E0918B02E03011F03C
:100CAC0051D04FC0E0E00E94100C0E94D00C49C003
:100CBC00E130A0E0FA0769F4EA81E03011F06DD080
:100CCC0040C0E0E00E94100CA9EFB0E00E94F70ACF
:100CDC0038C0E230A0E0FA0799F4EA81E03021F460
:100CEC00E0918B02E03021F0A881B98165D029C058
:100CFC00E0E00E94100CA5E0B1E00E94F70A21C0D0
:100D0C00E330A0E0FA0769F4EA81E03011F0A7D0F3
:100D1C0018C0E0E00E94100CA9E0B1E00E94F70AB4
:100D2C0010C0E430A0E0FA0761F4EA81E03011F081
:100D3C00CBD007C0E0E00E94100CAFE0B1E00E9405
:100D4C00F70A13C2E0918B02E03079F40E94CC0CCC
:100D5C000E94D00CE0E00E94100CA6E1B1E00E94D1
:100D6C00F70AE1E0E0938B0217C0E0918B02E030D0
:100D7C0099F00E94AC0AE0E00E94100CA7E2B1E0EE
:100D8C000E94F70A29DFE0E0E0938B020E94D40C6A
:100D9C00E0E0F0E00E94DA0C089512DBACE2B1E086
:100DAC0090DA2EDBA4E6B0E08CDA4ADBE0E0E093EC
:100DBC008B02E1E0F0E083C0BA93AA93E881F98159
:100DCC00309711F5E0918B02E03071F4E1E0E093A3
:100DDC008B020E94CC0CA2E3B1E00E94E20CABE3CC
:100DEC00B1E00E94F70A0FC0E0918B02E03059F09D
:100DFC000E94E60C0E94D40CE0E0E0938B020E946F
:100E0C00920C0E94ED0C29C0E130A0E0FA0729F504
:100E1C00E0918B02E03071F4E1E0E0938B020E94F0
:100E2C00CC0CADE4B1E00E94E20CABE3B1E00E946B
:100E3C00F70A13C0E0918B02E03079F0AAE2B0E03F
:100E4C00E1E0F0E00E94A80D0E94D40CE0E0E093F9
:100E5C008B020E94920C0E94ED0C0C94AA0A0E9428
:100E6C00CC0CA7E5B1E00E94E20CA2E6B1E00E9436
:100E7C00F70AE4E6EA93A4E60E94F30CACE6B1E0D0
:100E8C000E94F70AECE9EA93ACE90E94F30CA6E79E
:100E9C00B1E00E94F70AE4E6EA93ACE90E94F30C95
:100EAC00A0E8B1E00E94F70AECE9EA93A4E613DBB0
:100EBC000E94CC0CE0E0E0938B02E3E0F0E0FA93CC
:100ECC00EA930E94ED0C0895E0E00E94100CAAE851
:100EDC00B1E00E94F70AE1E0E0938C02E0918C0211
:100EEC00E03079F1989911C0E0E00E94690BAAE911
:100EFC00B1E00E94F70AE0E0E0938C02A2E3B0E0DC
:100F0C00E0D9E4E0F0E00E94DA0C999907C0E0E047
:100F1C000E94690BAAEAB1E00E94F70A9A9907C0ED
:100F2C00E0E00E94690BAAEBB1E00E94F70A9B99E2
:100F3C0007C0E0E00E94690BAAECB1E00E94F70A3E
:100F4C00CDCF0895AA93EA93EFB7EA93E6E9E2BF0F
:100F5C00E0918602EF5FE0938602E0918302A0911C
:100F6C008602EA1710F0AE9801C0AE9AE0918402A6
:100F7C00A0918602EA1710F0AF9801C0AF9AE091E9
:100F8C008502A0918602EA1710F0AD9801C0AD9AC7
:100F9C00E991EFBFE991A99118951895E0E0EBBBA9
:100FAC00EABBE8E0E8BBEFEFE7BBE5BBE0EFE4BB97
:100FBC00E3E0E2BBECEFE1BBEAE4E3BFE6E9E2BF6E
:100FCC00E0E0ECBFE1EAEFBDE9E0EEBDE0E0EDBD55
:100FDC00ECBDE7BDE6BDEBBDEABDE9BDE8BDE2BDDC
:100FEC00E5BDE4BDE3BDE5BFE4BFE3E0E9BFE0E898
:100FFC00E8B9E0E0E0BFE5BFE4BFEBB9E8E1EAB98E
:10100C00E6E8E0BDE0E0E0BDE7E4E9B9E0E6E7B939
:10101C00E4E8E6B9E0B7EF71E0BFA0E10E941B0B7A
:10102C000E94AC0AC398E0E00E94690BAAEDB1E003
:10103C000E94E20CA1EEB1E00E94FB0C0E94AC0AF3
:10104C007894EAEEE0938402E6EEE0938302EFEF0D
:10105C00E0938502E0E00E94100CAFEEB1E00E943C
:10106C00FB0CAAE2B0E00E94980D309721F0E13021
:10107C00A0E0FA0709F402C00E94E60C0E94CC0C16
:10108C00ACEEB0E00E94E20C0E94D00CE0918B021E
:10109C00E03011F46AD947DC989923C0E0918B02B7
:1010AC00E03021F4A7E8B2E00E94E90BE0918B025A
:1010BC00E03021F0A9E8B2E00E94E90BA091870290
:1010CC00B091880215972CF0E0E0E0938702E09352
:1010DC008802AAE0B0E0F5D80E94010DE0E00E9481
:1010EC00080D999908C00E94010DE1E00E94080DBD
:1010FC00AAE0B0E0E6D8CACFFFCFBA93AA931A936E
:10110C000A93AA81BB8112960E948B0D309729F10C
:10111C00AA81BB8114960E948B0D8F01309761F0D0
:10112C000230E0E01E0780F0F80131978F01AA81B0
:10113C00BB811496ED93FC93AA81BB8112960E94FD
:10114C00E90B3197AC81A083AA81BB810E948B0DE6
:10115C00FF2312F00E94E90B06C0AA81BB81EFEFBE
:10116C00FFEFED93FC931981088125960895BA93AE
:10117C00AA9326970E94350D10E0AC85BD85E0E062
:10118C00F0E0ED93FC93EA89FB893196EA8BFB8BBB
:10119C003197E4912E2FE03009F41DC1E12FE0309E
:1011AC0039F4253211F411E002C00E940F0D12C166
:1011BC00E130A9F4253219F40E940F0D0AC112E096
:1011CC0040E000E02D3211F401E004C12B3211F4A7
:1011DC004BE200C1203211F440E2FCC002C0E2300C
:1011EC0039F450E013E0203311F40068F3C003C06D
:1011FC00E33009F0EFC0203310F02A3308F007C0B9
:10120C00AAE05A9F502DE22FE0535E0FE3C0E22F6D
:10121C00E33649F40E94160DE889F989A481AA9352
:10122C000E941C0DD6C0E33741F40E94160D0E949B
:10123C00220D0E94350A1E2F0AC0E03761F40E946D
:10124C00160D0E94220D0E94410A1E2F086002609A
:10125C000F7730E03CC0E43611F0E93611F404604D
:10126C0002C0E53731F4E4E5F0E0EE83FF8315E0EE
:10127C000CC0E83511F4086003C0E83709F0A9C0C8
:10128C00EEE5F0E0EE83FF8314E002FF17C00E944E
:10129C00160DA889B9891496ED91FD91EA87FB8703
:1012AC00AB85AA232AF40E94470DEA87FB874DE2FF
:1012BC00403011F01F5F01C00B7F09C00E94160D5A
:1012CC00A889B98914960E948B0DEA87FB8700FDCB
:1012DC0011C0151778F407FF08C002FF04C00B7F7C
:1012EC00242F115001C020E301C020E20E940F0DF9
:1012FC005150EFCF312F01FF17C03030A1F003FF59
:10130C0006C0EE81FF812591EE83FF8305C0AE817F
:10131C00BF812D91AE83BF830E940F0D503009F019
:10132C0051503150EACF4BC020E3EE81FF810E9437
:10133C008F0DE887F987EE81FF813296EE83FF836C
:10134C00E885F985AA85BB85AE17BF0750F02F5FDE
:10135C00A885B985EA85FB85EA1BFB0BEA87FB8729
:10136C00EFCF2A3328F003FF02C0295F01C0295DAB
:10137C0004FD1AC0213320F4A885B985119709F40E
:10138C0009C0531710F000FF01C013C020E207FF83
:10139C000BC020E3006102FF07C00B7F4A930E9441
:1013AC001C0D503009F051500E940F0D503009F0B7
:1013BC0051503150A885B985129708F0B5CF00FF70
:1013CC0008C0503031F05150E0E2EA930E941C0DFD
:1013DC00F8CF10E0D8CEAC85BD85ED91FD910E9483
:1013EC003C0D64960895FF92F82E26970E94370DB7
:1013FC00DE011C960E94430D0E948B0D309719F450
:10140C00EFEFFFEF27C0DE0116960E94430D8D0112
:10141C00DE011C960E94430DED91FD91EE83FF833E
:10142C00E0E0E887E987DE011A960E94430DED9112
:10143C00FD91FA93EA931A930A93E3E8F8E0FA938E
:10144C00EA93DE011A9693DE9F01AE81BF81E0E044
:10145C00EC93F9010E943E0D2A96FF900895BA93E1
:10146C00AA93A991B991EE27FF276D91662311F0EC
:10147C003196FBCF0895BA93AA93AA27BB27E9917B
:10148C00F9910590002011F01196FBCFFD01089504
:10149C00BA93AA93E991F99130971AF4E095F095E3
:1014AC0031960895FFE0FA95F1F70895A7B3AF7060
:1014BC00A7BBC19AC098F6DFC29AF4DFA6B3C29854
:1014CC00F1DFC29AEFDFC298A7FDF5CF0895A07F98
:1014DC00AB2BA8BBC29A0E94580AC2980E94580A09
:1014EC000895AA93C198A7B3A76FA7BBB8B3BF7051
:1014FC00A881EDDFA881A295EADFC19A0C944D0B6F
:10150C00C29A0E94580AE6B3C2980E94580AE07F19
:10151C0008950E94580AF4DFAE2FF2DFC198E295CD
:10152C00EA2B0895AA930E945C0AE881F0E0E65445
:10153C00FD4FE081A981AE0F0E94770AE981E0930B
:10154C00BE02E881E093BF02229608950E945C0AD5
:10155C00A2E00E94770A0E945C0AACE00E94770A23
:10156C000E945C0AA1E00E94770AE0E0E093BF02CF
:10157C00E093BE020895AA93EF93FF93A881689419
:10158C00AA3039F0E894E091C002A091BE02AE17E7
:10159C0058F0E091BF02EF5FE093BF02E0E0EA9306
:1015AC00A091BF02BFDF56F0E091BE02EF5FE09367
:1015BC00BE027CDFC09AA8810E94770AFF91EF914E
:1015CC000C944D0BBA93AA931A93A981BA81ED91FD
:1015DC00A983BA831E2FE03019F0A12FCCDFF5CFF1
:1015EC0010C0BA93AA931A93E981FA813196E983D0
:1015FC00FA833197E4911E2FE03019F0A12FBBDF55
:10160C00F3CF188123960895AA27BB271197F1F7DA
:10161C000895AA93C198A7B3A76FA7BBB8B3BF701F
:10162C00A8810E946D0AC19A32C0AA93C298C09830
:10163C00E881E093C002E058E093BC02E881E054FA
:10164C00E093BD020E942C0D0E942C0D0E942C0DCB
:10165C00DBDFA0E2DEDFD8DFA8E20E94310DA4E0E0
:10166C000E94310DA5E80E94310DA7B3AF70A7BB46
:10167C00C19A0E948F0AE53011F0E0E008C00E9488
:10168C005C0AA6E00E94770A0E94AC0AE1E021966F
:10169C000895E7E0F0E0CE16DF060895AC2D0E9429
:1016AC005C010E2EF601ACE1B0E0EE0FFF1FAE0FA9
:1016BC00BF1F0E94980DA02DB0E00895EA9FF00185
:1016CC006E0F7F1F0895EA93A0E00C94980AE0E651
:1016DC00F2E0FA93EA930895FF27662777270E9492
:1016EC00930D0895F601A0E0B0E0EE0FFF1F0895F2
:1016FC00F0E00E94A80DE0E0E6CF0E94F70AE0E0DF
:10170C00EA93A1E00E94980AE2CFE1EAF0E0FA93B2
:10171C00EA93F6010E94530D0E94930D0895AE0FAB
:10172C00BF1F0E94980D0E94530D0E94930D88E0DC
:10173C000E94F9092C96A0E6B2E00E94E80AC39830
:10174C00AAE0B0E00E94AC0EC39A0895F601AEE098
:10175C00B0E0EE0FFF1F0895AE0FBF1F0E94980D53
:10176C000895AA93E881F0E0F9BDE8BDE981F0E0C5
:10177C00FBBDEABD0895A881B9810E94C10D0895F1
:10178C00A881B9810C946701E881F9810E94530DFD
:10179C000E94310E08950E94FA0DED93FC9308956A
:1017AC00E0919402F09195020895E091A202F091DB
:1017BC00A3020895E091A002F091A1020895F0DF38
:1017CC00EC71EC310895ED91FD913196FE93EE9311
:1017DC000895A881B9810C94B602EA81EA93AB8191
:1017EC000E9486020C94B801EA81EA93AB810E94B4
:1017FC007F020C94B801BA93AA93AAE2B0E00E94BB
:10180C00980D30970895EA81FB81FA93EA93AA81A7
:10181C00BB810895EA93A1E00C94980AE2E0F0E011
:10182C00FA93EA93A8E70895B0E00E94DC03E1E0A4
:10183C00F0E0FA93EA930895A0E5B0E00C94DC0391
:10184C00FA93EA93E0E5F0E0FA93EA93A2E3B0E0CE
:10185C000E940004A4E1B0E00E948104E4E6EA9353
:10186C00A4E60E947802AAE0B0E00E946701E4E6D8
:10187C00F0E0FA93EA930895AAE0B0E00C946804BF
:10188C00E1E0F0E0FA93EA930895A4E6B0E00E9458
:10189C00DC03E4E6F0E0FA93EA930895E4E6F0E082
:1018AC00FA93EA930895AAE0B0E00C945D04E3E2A5
:1018BC00F0E0FA93EA93EFE5F0E0FA93EA93A2E30F
:1018CC00B0E00E940004A4E1B0E00E948104E4E6D0
:1018DC00EA93A4E60C947802AAE0B0E00E946701B7
:1018EC00DDCFA0E0B0E00E946804D8CFE4E0F0E0E7
:1018FC00FA93EA93A6E998CFA0E0B0E00E945D04C9
:10190C00CDCFA4E1B0E00C945D04EDE2F0E0FA93ED
:10191C00EA93EFE5F0E00895E2E0F0E0FA93EA9361
:10192C000895E3E0F0E0FA93EA93A6E97DCFFA9309
:10193C00EA93A2E3B0E00E940004A4E1B0E00C94AE
:10194C008104E4E6EA93A4E60E947802C5CFB0E0F5
:10195C000E94DC030E94920493CFA2E3B0E00E94A9
:10196C000004A4E1B0E00C947404A2E3B0E00E9483
:10197C0067010E94B404E093B402F093B50230976F
:10198C000895A091B402B091B50208950E94AC0ADA
:10199C00E0E099CEA1EFB0E00C94F70AE0E0E09320
:1019AC008902E0938A020895FA93EA93E0E0EA93BD
:1019BC00A0E0B0E00C943A060E94F70AE0E02ACFCF
:1019CC00AAE2B0E0E0E0F0E00E94A80D0895E0E0AB
:1019DC00EA93A0E0B0E00C943A060E947102A2E3F4
:1019EC00B0E00E94AC0EE0E015CF0E94F70AA4E62E
:1019FC00B0E00C94AC0EE0918702F0918802FA935F
:101A0C00EA930895EA93A0918902B0918A020C940A
:101A1C003A062A93AD85BE85EF85F8890995089518
:101A2C00E889F9893497E88BF98B0895AD85BE85E3
:101A3C00EF85F88909950895A889B9891496ED91CF
:101A4C00FD91EE83FF83AE81BF8108950E940A0B46
:101A5C00A0E30C940F0B0E94770A0C940A0B5A9378
:101A6C004A933A932A931A930A9308955D814C8171
:101A7C003B812A811981088108950024AF0DB01D86
:101A8C000895F195E195F0400895F0956095709565
:101A9C00E195FF4F6F4F7F4F08956F2F660F660BC9
:101AAC00762F0895FA9FF02DEB9FF00DEA9FE02D15
:101ABC00F10D08951CD0F6DF0EF4E3DF0895002439
:101ACC00112490E1AA0FBB1F001C111C0E1A1F0A37
:101ADC0018F40E0E1F1E01C0A1609A9599F7FD0116
:101AEC00D001089504D0EBDF0EF4CBDF0895E89419
:101AFC00F7FF02C0C6DF6894B7FF06C0B195A19589
:101B0C00B04000F8039400FA0895ED91FC91119700
:101B1C0008950590F491E02D08957A936A93FA93C1
:101B2C00EA930895119602D0FE2F1197E199FECFFA
:101B3C00FF93FFB7F894AEBBBFBBE09AEDB3FFBF0A
:101B4C00FF91089507D01196EF93EF2F03D0EF91EB
:101B5C0011970895E19B02C0A895FCCF9FB7F8940C
:101B6C00AEBBBFBBE09A8DB3E81719F0EDBBE29AA0
:101B7C00E19A9FBF089500240A160B06089530972A
:101B8C006040704009F070580895552342F4503865
:101B9C0011F4E0FF04C03196691F791F6BF050E817
:101BAC00572711F45F9373C05F3F31F0660F000C41
:101BBC0057956795752F08955F9300200AF072C0B2
:101BCC006BC050E8192E1522880F991F9527550FB9
:101BDC00879550E8072E0522660F771F7527550F3E
:101BEC0067950895689401C0E8945F93F2DF7038AC
:101BFC0018F07F3F08F44BC056E1571BAAF45195DF
:101C0C0058300EF4593030F0EFEFFFEF6FEF7FE705
:101C1C0077F91AC077275523B9F0EE0FFF1F661F0F
:101C2C00771F5A95D1F710C07727583028F0EF2F2F
:101C3C00F62F672F5850F9CF552331F076956795CD
:101C4C00F795E7955A95D1F700200AF41EDF5F91BE
:101C5C000895689401C0E894309760407040B1F0EA
:101C6C00002426F0772312F400940FDF172E7EE168
:101C7C00112032F07A95EE0FFF1F661F111CF9CF61
:101C8C00EF2FF62F612D5F938ADF5F910895EE277A
:101C9C00FF27BF015F910895EFEFFFEF6FE77FEF35
:101CAC005F910895EFEFFFEF6FE77FE75F91089586
:101CBC005F9387DF703859F3903849F30124089407
:101CCC00791F23F424F300203AF3ECCF0F921F93E7
:101CDC002F933F934F93112722279927689FA00199
:101CEC008F9F302D410D591F6B9F300D411D591F7A
:101CFC008E9F27D0BF9F25D06A9F23D0BE9F1DD01B
:101D0C00AF9F1BD0AE9F110D291F391F491F591FA3
:101D1C00E32FF42F652F522F4F913F912F911F914D
:101D2C000F9066232AF0550FEE1FFF1F661F02C08F
:101D3C0073954BF22ADF5F910895100D211D391F09
:101D4C0002C0200D311D491F591F0895109639F0FE
:101D5C00A8958DEC9AE00197F1F71197C9F70895C2
:00000001FF
