:080000000C945F010C94000058
:100008000C9400000C9400000C9400000C94000068
:100018000C9400000C9400000C9400000C94000058
:100028000C94030A0C94E5090C9400000C9400004D
:100038000C9400000C9400000C9400000C94000038
:100048000C9400000C9400000C9400001027E803A6
:1000580064000A0001000010000110000100000007
:1000680000000A006400C80060FFC800DC005000FF
:10007800A000AA00050055002564256425642564B0
:100088002564256425640042616361204C696E65BE
:100098000073656E736F723A2564203D20256420D5
:1000A800200042616361204261636B67726F756E05
:1000B800640043656E74657220506F696E74202009
:1000C80020200073656E736F723A2564202D2D3ED3
:1000D8002025642020002564202020004D656E75B1
:1000E8000043616C6962726174696F6E0052756E6B
:1000F80020426F740053656E73205761726E610001
:100108004D6F746F7200427574746F6E0043617046
:10011800697400436C69636B203220746F207374B8
:100128006172740052756E6E696E672E2E2E004DC8
:100138006170204269727500436C69636B203220DC
:10014800746F2073656C656374004D6170204D6534
:100158007261680054657374204D6F746F72002B60
:10016800313030202B313030002D313030202D31DE
:100178003030002B313030202D313030002D3130EF
:1001880030202B31303000436C69636B2031207490
:100198006F206578697400746F6D626F6C203D2004
:1001A80031202020202000746F6D626F6C203D206C
:1001B80032202020202000746F6D626F6C203D205B
:1001C80033202020202000746F6D626F6C203D204A
:1001D800342020202020005761726E613A00457853
:1001E8006974696E672E2E2E0054657374204361FE
:1001F8007069740043617069743A203E203C004382
:10020800617069743A203C203E0043617069743A19
:10021800205C2F0043617069743A202F5C00486F9E
:100228006C64203120746F2065786974005844002C
:1002380020202020204C4547494F4E2020202020B8
:1002480000204D414E2034204A4F4D42414E472018
:10025800000001002D4E414E00494E46000080C06E
:10026800040004006600010095026A00010097027C
:100278006C00010099026E0002009B0270000100F0
:100288009D0272000100A70274000100A902760015
:100298000100AB0278000100AD027A000100AF0254
:1002A8007C000100B1027E000100B5025A02020082
:1002B800B90266020000F894EE27ECBBF1E0FBBF40
:1002C800EBBFE5BFF8E1F1BDE1BD8DE0A2E0BB27E2
:1002D800ED938A95E9F780E098E0A0E6ED93019721
:1002E800E9F7E8E6F2E085919591009761F0A5912C
:1002F800B59105901590BF01F00105900D920197F9
:10030800E1F7FB01F0CFEFE5EDBFE8E0EEBFC0E6B7
:10031800D2E00C94040AAA93E881E066E7B9369A19
:10032800349BFECF349AE5B121960895BA93AA93E7
:10033800A881B9810E94CA103CC3882499240E94CC
:10034800760DD4F40E947B0DEA17FB0734F4A8E875
:10035800B2E0A80DB91DE1E00AC00E947B0DAE17FE
:10036800BF0734F4A8E8B2E0A80DB91DE0E0EC93AB
:10037800F40131964F01E3CF0895A0918E02E0E495
:10038800EA9FB001A0918D02E0E20E948B0DA0913E
:100398008C02E0E10E948B0DA0918B02E8E00E94A4
:1003A8008B0DA0918A02E4E00E948B0DA091890236
:1003B800E2E00E948B0DA0918802E1E0EA9FF00143
:1003C800E60FF71FE0938F02F09390020895B5DFD0
:1003D800D4DF0895B2DFE9E00E94900D0E94940DE9
:1003E800E0E8F0E0FA93EA93E09188020E94990D20
:1003F800E09189020E94990DE0918A020E94990D6C
:10040800E0918B020E94990DE0918C020E94990D57
:10041800E0918D020E94990DE0918E020E94990D43
:100428008CE10E94200CA096E1C2882499240E94A5
:10043800760DD4F40E949F0DEA0FFB1FFF93EF93F4
:10044800A82D69DFAF91BF910E94A50DAFE8B0E07C
:100458000E94AA0D0E94B20D0E949F0D0E94BC0D21
:10046800F40131964F01E3CF0895882499240E941E
:10047800760DD4F40E94D30DEA0FFB1FFF93EF9380
:10048800A82D49DFAF91BF910E94A50DAAEAB0E05F
:100498000E94AA0D0E94B20D0E94D30D0E94BC0DAD
:1004A800F40131964F01E3CF0895882499240E94DE
:1004B800760D0CF040C0F401ACE1B0E0EE0FFF1F88
:1004C800EA0FFB1FBF010E94D30D0E94D90D0F0137
:1004D8000E949F0D0E94D90DD001AE0FBF1FE2E010
:1004E800F0E00E94960FDB010E94C60FE0E00E9438
:1004F800900DAAEBB0E00E94AA0DEBECF0E0FA93A5
:10050800EA93F4010E94DE0DF401ACE1B0E0EE0FD5
:10051800FF1F0E94D90D0E94DE0D88E00E94200C6A
:100528002C96A0E6B2E00E940F0DC398C39AF4017E
:1005380031964F01BCCF08950E94E30D929A93988B
:100548009698979A36C20E94E30D9298939A969A33
:1005580097982FC20E94E30D9298939A9698979A2B
:1005680028C20E94E30D929A9398969A979821C26E
:10057800BA93AA93AA81BB810E94DF0F1CF4929AB6
:10058800939808C09298939AAA81BB810E94750C8F
:10059800EA83FB83EA81FB81FBBDEABD0E94ED0D86
:1005A8001CF4979A969808C09798969AA881B9814A
:1005B8000E94750CE883F983E881F981F9BDE8BDEB
:1005C800DFC1BA93AA93949A959A92989398969819
:1005D8009798A881B9810E94CA10EBC1BA93AA93CF
:1005E800EA81EA93AB81A8DF0E94F20DC9C1BA93F0
:1005F800AA930E94F60DAAE9B9E989E19EE30E944F
:100608007C10A5E9B2E00E94FD0D0E94F60DAAE952
:10061800B9E989E19FE30E947C10A7E9B2E00E9452
:10062800FD0DE881F981E0939902F0939A020E9406
:10063800F60DA0E0B0E080E49FE30E947C100E94E9
:10064800E30FABE9B2E00E94FD0DE881F981E09388
:100658009D02F0939E02ADC1C3980E94020EFDCF89
:10066800BA93AA9322970E94530FA885B985BFDF32
:100678000E94060EEF77F070E0938F02F0939002DD
:100688000E94060EE130A0E0FA0719F4EAEFFFEF46
:1006980056C0E330A0E0FA0719F4EBEFFFEF4FC0C4
:1006A800E230A0E0FA0719F4ECEFFFEF48C0E630BB
:1006B800A0E0FA0719F4EDEFFFEF41C0E430A0E045
:1006C800FA0719F4EEEFFFEF3AC0EC30A0E0FA07B2
:1006D80019F4EFEFFFEF33C0E830A0E0FA0731F488
:1006E800E0E0E0939102E09392022DC0E831A0E0AF
:1006F800FA0719F4E1E0F0E022C0E031A0E0FA07DF
:1007080019F4E2E0F0E01BC0E033A0E0FA0719F4C6
:10071800E3E0F0E014C0E032A0E0FA0719F4E4E006
:10072800F0E00DC0E036A0E0FA0719F4E5E0F0E0EB
:1007380006C0E034A0E0FA0731F4E6E0F0E0E09328
:100748009102F0939202A0919302B0919402E091E9
:100758009102F0919202EA1BFB0B8F01E09191024A
:10076800F0919202E0939302F0939402E091950243
:10077800F0919602A0919102B09192020E947E0F90
:10078800BF01E0919702F0919802D8010E947E0F74
:10079800E60FF71F9F01A0919902B0919A02EA0F04
:1007A800FB1FAF01E0919902F0919A02E21BF30B53
:1007B800EE83FF830E940B0EE417F50724F44091A3
:1007C8009D0250919E020E94100E4E175F0724F45E
:1007D80040919B0250919C020E940B0EAE81BF81FA
:1007E800EA17FB0724F40E940B0EEE83FF830E9496
:1007F800100EAE81BF81AE17BF0724F40E94100E01
:10080800EE83FF835A934A93A885B985B1DE0E9487
:100818005A0F2A960895BA93AA93EA81FB814E1635
:100828005F06D4F40E94150E29F0D1DDA881B981A4
:1008380017DFF8CF0E94150E71F4C9DDC398A8819F
:10084800B9810EDF0E94150E29F0F20131962F01B1
:100858003197C39AEFCFE1CF4424552491C0BA937E
:10086800AA93E0E0E0939F02E093A002EC81FD816F
:10087800A0919F02B091A002AE17BF073CF40E945E
:10088800190EAFE9B2E00E941F0EF0CF0E94250EAC
:1008980020C0BA93AA93EC81FD814E165F06BCF482
:1008A8000E94190E0E94060EEF77EF3771F4F201DD
:1008B80031962F013197EA81EA93AB8144DE0E9499
:1008C800F20DAAE0B0E07DDE01C0EACFE4CF442417
:1008D800552426960895BA93AA9379DDE091880263
:1008E800E03021F4E0918902E03019F00E94290EED
:1008F800F5CFE0918802E03021F4E0918902E03000
:1009080009F003C00E94290EF4CF0E94ED0D14F4E3
:100918000E94250E35C0BA93AA9359DDE0918D0245
:10092800E03021F4E0918E02E03019F00E94300EA0
:10093800F5CFE0918D02E03021F4E0918E02E030B5
:1009480009F003C00E94300EF4CF0E94ED0D14F49C
:100958000E94250E15C00E94370E21F40E943F0EFA
:10096800DADF03C00E943F0EB6DF0AC00E94370ECE
:1009780021F40E943F0EAFDF03C00E943F0ECBDF81
:1009880024960895BA93AA93EDEEDE2E0E94F20DF6
:10099800EAEECE2E0E94F20D0CC0BA93AA93E0EFB5
:1009A800CE2E0E94F20DE6EEDE2E0E94F20DEAEE49
:1009B800CE2E22960895E0EFCE2EE6EEDE2E089596
:1009C800A7E0A9DC6E2E7724EDE00E94460E0E9477
:1009D800940DEEEDF0E0FA93EA93F301662777279A
:1009E8000E94B10F84E00E94200C2896A0E6B2E095
:1009F8000E940F0D08951A930A93A7E08CDC6E2EBF
:100A08007724E091B102F091B202E615F70538F4C7
:100A1800E091AB02F091AC026E167F0608F003C0BD
:100A280000E010E026C0E091AF02F091B002E615B8
:100A3800F70538F4E091A902F091AA026E167F0634
:100A480008F003C001E010E014C0E091AD02F0919D
:100A5800AE02E615F70538F4E091A702F091A80276
:100A68006E167F0608F003C002E010E002C003E043
:100A780010E0F8010991199108950E944A0E0E9408
:100A88004F0E0E94530E0E94580E0E945C0E0E9448
:100A9800610E0E947B0E0E94580E0E94800E0E94DA
:100AA8007B0E0E944F0E0E94850EAAE5E6C00E94AA
:100AB800530E0E94580E0E94800E0E94880E0E94BB
:100AC8004A0E0E944F0E0E94530E0E94580E0E941A
:100AD8005C0E0E94610EA5E0B0E048DF0E94800E27
:100AE8000E948C0E0E94530E0E94580E0E94900E77
:100AF8000E94530E0E94580E0E94800E0E948C0E77
:100B08000E94850E0E94580EE2E3F0E0FA93EA9301
:100B1800EAE5F0E0BAC00E94530E0E94580E0E9407
:100B2800800E0E947B0E0E944F0E0E94530E0E9460
:100B3800580E0E945C0E0E94610E0E94950E0E9443
:100B4800880E0E94530E0E94580E0E94800E0E942A
:100B5800880E0E94850E0E94580EEBE2F0E0FA9390
:100B6800EA93EFE5F0E091C00E94530E0E94580E00
:100B78000E94800E0E948C0E0E94530E0E94580EF6
:100B88000E944A0E0E944F0E0E944A0E0E94580E62
:100B98000E945C0E0E94610E0E94950E0E94880EB3
:100BA8000E94530E0E94580E0E944A0E0E94580E30
:100BB8000E94800E0E94880E0E944A0E0E944F0ECC
:100BC8000E94530E0E94580E0E94530E0E94580E07
:100BD8000E949A0EAAE0B0E0BEDE0E94530E0E9468
:100BE800580EE9DEEFE3F0E04CC00E94530E0E947D
:100BF800580E0E94800E0E94880E0E94530E0E947A
:100C0800580E0E945C0E0E94610E0E94880E0E947F
:100C18004A0E0E944F0E0E94530E0E94580E0E94C8
:100C2800530E0E94580E0E94800E0E94880EE2E029
:100C3800F0E018C00E949F0E0E94950E0E94880E38
:100C48000E94530E0E94A90E0E944F0E0E94530E3E
:100C58000E94580E0E945C0E0E94610E0E94880E2F
:100C6800E1E0F0E0FA93EA930E944F0E0E94530EDF
:100C78000E94580E0E94850EA4E6B0E0CCDDE1E2A9
:100C8800F0E0FA93EA93E0E5F0E0FA93EA930E9441
:100C9800AE0E08950E949F0E0E94950E0E94880E27
:100CA8000E94530E0E94580E0E94530E0E944F0E2F
:100CB8000DC00E94530E0E94580E0E94800E0E9482
:100CC8008C0E0E945C0EE4E6F0E00EC0E1E0F0E07D
:100CD800FA93EA930E944F0E0E94530E0E94580EF8
:100CE8000E945C0EEAE5F0E0FA93EA930E94B60EE1
:100CF80054DE08950E94BD0E29F40E94C30E0E947E
:100D08008C0E3CC00E94CD0E119751F40E94C30E68
:100D18000E94950E0E94880E0E94530EA4E624C0DD
:100D28000E94CD0E129769F40E94C30E0E94950E80
:100D38000E94880E0E94530E0E94580EE2E0F0E0D6
:100D480010C00E94CD0E1397C9F40E94C30E0E94D2
:100D5800950E0E94880E0E94530E0E94580EE4E0E1
:100D6800F0E0FA93EA93A8E7B0E055DD0E94530E4D
:100D78000E94580E0E94800E0E94880EACC00E94ED
:100D8800BD0ED1F4E4E6EA93A4E6DDDBA6E2B0E02A
:100D9800CDDA0E94D20E0E948C0E0E94530E0E9441
:100DA800580E0E94900E0E94530E0E94580E0E94E8
:100DB800800E0E948C0E3AC00E94CD0E1197A9F4A5
:100DC8000E94C30E0E948C0E0E94530E0E94580E61
:100DD8000E94530E0E944F0E0E94530E0E94580EFE
:100DE8000E94800E0E948C0E21C00E94CD0E129788
:100DF80069F40E94C30E0E948C0E0E94530E0E943A
:100E0800580E0E94800E0E948C0E10C00E94CD0EBB
:100E1800139761F40E94C30E0E94880E0E94530E1D
:100E28000E94580E0E94800E0E94880E54C00E9494
:100E3800BD0EC9F40E94C30E0E94950E0E94880E32
:100E48000E94530E0E94580EE4E0F0E0FA93EA93F1
:100E58000E944F0E0E94530E0E94580E0E94800E50
:100E68000E948C0E38C00E94CD0E1197B9F40E94D2
:100E7800C30E0E94950E0E94880E0E94530E0E9477
:100E8800580E0E944A0E0E944F0E0E94530E0E9456
:100E9800580E0E94800E0E948C0E1DC00E94CD0E1E
:100EA800129789F40E94C30E0E948C0E0E94530E62
:100EB8000E94580E0E94530E0E94580E0E94800EE7
:100EC8000E948C0E08C00E94CD0E139721F40E9438
:100ED800C30E0E94880E01D008950E94900E0E94B1
:100EE800530E0E94580E0E94850E0E94580E0E94B2
:100EF8005C0E0E949A0E0E94B60E44DD01D0089541
:100F08000E94C30EAAE0B0E026DD0E94800E0E9477
:100F1800880E0E94530E0E94A90E0E944F0E0E9436
:100F2800800E0E948C0E0E94BD0E21F40E94530E6A
:100F3800A4E627C00E94CD0E119759F40E94530EC3
:100F48000E94580E0E94530E0E944F0EE1E0F0E0FE
:100F580015C00E94CD0E129739F40E94530E0E94BC
:100F6800580EE4E0F0E00AC00E94CD0E139759F441
:100F78000E94530E0E94580EE6E0F0E0FA93EA93BE
:100F8800A8E7B0E048DC0E945C0E0E949A0E0E941E
:100F9800B60E03DD01D00895E4E6EA93A4E6D3DAB9
:100FA800A4E1B0E0C3D90E94800E0E94880E0E947E
:100FB800530E0E94580E0E94900E0E94530E0E94DB
:100FC800580E0E94800E0E94880E0E94530E0E94A6
:100FD8004F0E0E94530E0E94580E0E945C0E0E94F3
:100FE8009A0EA5E0B0E055DCE4E6EA93A4E6A4DABC
:100FF800AEE1B0E09BD90E94020E2EDB08950E945C
:10100800D20EACE3B0E0EADA0E944A0E0E944F0E1C
:101018000E94850E0E94580EECE1F0E0FA93EA93E4
:101028000E94D20E0E94AE0E0E94D70E11F473DDFC
:101038000BC00E94E30E119711F439DD05C00E9420
:10104800E30E129701F419DDD6DCE093B302F093B6
:10105800B402309711F4EEDD0BC00E94E30E119735
:1010680011F4C3DD05C00E94E30E129701F47CDD84
:101078000E94D70E19F42ADEDADE0DC00E94E30EB4
:10108800119719F416DE7BDE06C00E94E30E129754
:1010980001F400DE2FDE0895BA93AA93C398EB817A
:1010A800FC81E0938202F0938302E881F981E09366
:1010B8008402F0938502EA81E03021F4E09186020F
:1010C800E03009F006C00E94E80EA4EEB0E00E94ED
:1010D8001E0DEB81FC81309769F4EA81E03011F054
:1010E8008CD060C0E0E00E94460EA9EEB0E00E94FD
:1010F8001E0D58C0E130A0E0FA0789F4EA81E0301B
:1011080021F4E0918602E03011F04DD04BC0E0E0D0
:101118000E94460EA5EFB0E00E941E0D43C0E230CB
:10112800A0E0FA0769F4EA81E03011F0D4D03AC0BF
:10113800E0E00E94460EADEFB0E00E941E0D32C006
:10114800E330A0E0FA0769F4EA81E03011F05ED0FC
:1011580029C0E0E00E94460EA8E0B1E00E941E0D02
:1011680021C0E430A0E0FA0769F4EA81E03011F028
:101178007CD018C0E0E00E94460EAEE0B1E00E94CC
:101188001E0D10C0E530A0E0FA0761F4EA81E030F6
:1011980011F0CCD007C0E0E00E94460EA5E1B1E016
:1011A8000E941E0D0BC2E0918602E03071F40E948D
:1011B800E80EA5EFB0E00E94EC0EABE1B1E00E94B2
:1011C8001E0DE1E0E093860217C0E0918602E03050
:1011D80099F00E94D30CE0E00E94460EACE2B1E028
:1011E8000E941E0D0CDFE0E0E0938602E09384028B
:1011F800E09385020E94F00E089517D9ACE2B1E0A1
:1012080095D833D90E94F90E50D929C00E94E80E0A
:10121800ACE5B1E00E94EC0EA7E6B1E00E941E0D1D
:101228000E94800E0E94FD0EE0E00E94460EA1E79B
:10123800B1E00E94050F0E940C0FABE7B1E00E94DD
:101248001E0D0E94800E0E940C0FA5E8B1E00E94BE
:10125800050F0E94FD0E0E94020E0E94E80EE0E0BB
:10126800E09386020E94F00E0895E0E00E94460E88
:10127800AFE8B1E00E941E0DE1E0E0938702E09143
:101288008702E03039F1989909C0E0E00E94900D9A
:10129800AFE9B1E00E94160F0E94F00E999907C0BD
:1012A800E0E00E94900DAFEAB1E00E941E0D9A990D
:1012B80007C0E0E00E94900DAFEBB1E00E941E0D68
:1012C8009B9907C0E0E00E94900DAFECB1E00E944E
:1012D8001E0DD5CF08950E94E80EADEFB0E00E9434
:1012E800EC0EAFEDB1E00E941E0DE1E0E093870245
:1012F80062DBA8ECB0E01AD8A4E1B0E043DB60DB25
:10130800E0918702E03039F40E94D30CE6EEDE2E3D
:101318000E94F00E0AC0989907C0E0E00E94900D64
:10132800A6EEB1E00E94160FEACF08950E94E80EDB
:10133800A1EFB1E00E94EC0EACEFB1E00E941E0DEF
:10134800EDEEDE2EA2E3B0E00E949A01E0E00E94FA
:10135800460EA7E0B2E00E941E0DE6EEDE2E0E94C9
:10136800F90EE0E00E94460EA2E1B2E00E941E0DD6
:10137800E0EFCE2E0E94F90EE0E00E94460EACE1AE
:10138800B2E00E941E0DEAEECE2E0E94F90E0895DC
:101398001ED8E7E00E94900D0E94940DECE8F0E062
:1013A800FA93EA93E091A502F091A6020E94DE0D5D
:1013B80084E00E94200C2896A0E6B2E00E940F0D5F
:1013C8000895AA93EA93EFB7EA93E6E9E2BFE091BA
:1013D8008102EF5FE0938102A0918102DA1610F09A
:1013E800AE9801C0AE9AA0918102CA1610F0AF98CB
:1013F80001C0AF9AE991EFBFE991A99118951895A5
:10140800E0E0EBBBEABBE8E0E8BBEFEFE7BBE5BB3E
:10141800E0EFE4BBE3E0E2BBECEFE1BBEAE4E3BF0F
:10142800E6E9E2BFE0E0ECBFE1EAEFBDE9E0EEBDEE
:10143800E0E0EDBDECBDE7BDE6BDEBBDEABDE9BD55
:10144800E8BDE2BDE5BDE4BDE3BDE5BFE4BFE1E065
:10145800E9BFE0E8E8B9E0E0E0BFE5BFE4BFEBB929
:10146800E8E1EAB9E6E8E0BDE0E0E0BDE7E4E9B9D3
:10147800E0E6E7B9E4E8E6B9E0B7EF71E0BFA0E17C
:101488000E94420D0E94D30CC398E0E00E94900D88
:10149800A8E3B2E00E94EC0EA9E4B2E00E941E0D9F
:1014A800A2E3B0E00E94CA100E94D30C7894EAEE3E
:1014B800CE2EE6EEDE2EA091A502B091A6021097E0
:1014C80011F0119709F405C0E0E0E093A502E0935C
:1014D800A6020E94E80EA4EEB0E00E94EC0EA9EE6F
:1014E800B0E00E941E0DE0918602E03021F40E94D7
:1014F800EE0166DA4DDF98991CC0E0918602E03073
:1015080021F4A2E8B2E00E941F0EA0918202B091DD
:10151800830216972CF0E0E0E0938202E0938302C6
:10152800AAE0B0E00E949A010E941F0FE0E00E942A
:10153800260F999909C00E941F0FE1E00E94260F0B
:10154800AAE0B0E00E949A01CECFFFCFBA93AA9347
:101558001A930A93AA81BB8112960E94A90F309709
:1015680029F1AA81BB8114960E94A90F8F01309797
:1015780061F00230E0E01E0780F0F80131978F013A
:10158800AA81BB811496ED93FC93AA81BB81129624
:101598000E941F0E3197AC81A083AA81BB810E9453
:1015A800A90FFF2312F00E941F0E06C0AA81BB815B
:1015B800EFEFFFEFED93FC931981088125960895CD
:1015C800BA93AA9326970E94530F10E0AC85BD8565
:1015D800E0E0F0E0ED93FC93EA89FB893196EA8B31
:1015E800FB8B3197E4912E2FE03009F41DC1E12FD8
:1015F800E03039F4253211F411E002C00E942D0FB9
:1016080012C1E130A9F4253219F40E942D0F0AC144
:1016180012E040E000E02D3211F401E004C12B3269
:1016280011F44BE200C1203211F440E2FCC002C0C8
:10163800E23039F450E013E0203311F40068F3C0CD
:1016480003C0E33009F0EFC0203310F02A3308F06C
:1016580007C0AAE05A9F502DE22FE0535E0FE3C067
:10166800E22FE33649F40E94340FE889F989A4810E
:10167800AA930E943A0FD6C0E33741F40E94340F70
:101688000E94400F0E945C0C1E2F0AC0E03761F4D4
:101698000E94340F0E94400F0E94680C1E2F0860A1
:1016A80002600F7730E03CC0E43611F0E93611F4FF
:1016B800046002C0E53731F4E4E5F0E0EE83FF832F
:1016C80015E00CC0E83511F4086003C0E83709F0EC
:1016D800A9C0EEE5F0E0EE83FF8314E002FF17C037
:1016E8000E94340FA889B9891496ED91FD91EA8773
:1016F800FB87AB85AA232AF40E94650FEA87FB873C
:101708004DE2403011F01F5F01C00B7F09C00E94FD
:10171800340FA889B98914960E94A90FEA87FB8714
:1017280000FD11C0151778F407FF08C002FF04C0B8
:101738000B7F242F115001C020E301C020E20E943A
:101748002D0F5150EFCF312F01FF17C03030A1F0CE
:1017580003FF06C0EE81FF812591EE83FF8305C05C
:10176800AE81BF812D91AE83BF830E942D0F503073
:1017780009F051503150EACF4BC020E3EE81FF8190
:101788000E94AD0FE887F987EE81FF813296EE83DC
:10179800FF83E885F985AA85BB85AE17BF0750F09A
:1017A8002F5FA885B985EA85FB85EA1BFB0BEA87CD
:1017B800FB87EFCF2A3328F003FF02C0295F01C05F
:1017C800295D04FD1AC0213320F4A885B985119735
:1017D80009F409C0531710F000FF01C013C020E23C
:1017E80007FF0BC020E3006102FF07C00B7F4A938D
:1017F8000E943A0F503009F051500E942D0F50307E
:1018080009F051503150A885B985129708F0B5CF25
:1018180000FF08C0503031F05150E0E2EA930E94D6
:101828003A0FF8CF10E0D8CEAC85BD85ED91FD918B
:101838000E945A0F64960895FF92F82E26970E94E8
:10184800550FDE011C960E94610F0E94A90F309768
:1018580019F4EFEFFFEF27C0DE0116960E94610F23
:101868008D01DE011C960E94610FED91FD91EE83C2
:10187800FF83E0E0E887E987DE011A960E94610F9E
:10188800ED91FD91FA93EA931A930A93EAEAFAE042
:10189800FA93EA93DE011A9693DE9F01AE81BF8127
:1018A800E0E0EC93F9010E945C0F2A96FF900895FE
:1018B800BA93AA93A991B991EE27FF276D91662350
:1018C80011F03196FBCF0895BA93AA93AA27BB27A4
:1018D800E991F9910590002011F01196FBCFFD01D7
:1018E8000895BA93AA93E991F99130971AF4E0957B
:1018F800F09531960895FFE0FA95F1F70895A7B3AA
:10190800AF70A7BBC19AC098F6DFC29AF4DFA6B33E
:10191800C298F1DFC29AEFDFC298A7FDF5CF08950C
:10192800A07FAB2BA8BBC29A0E947F0CC2980E94D2
:101938007F0C0895AA93C198A7B3A76FA7BBB8B3A4
:10194800BF70A881EDDFA881A295EADFC19A0C9447
:10195800740DC29A0E947F0CE6B3C2980E947F0C55
:10196800E07F08950E947F0CF4DFAE2FF2DFC1986C
:10197800E295EA2B0895AA930E94830CE881F0E08F
:10198800E754FD4FE081A981AE0F0E949E0CE981CA
:10199800E093BD02E881E093BE02229608950E947A
:1019A800830CA2E00E949E0C0E94830CACE00E9473
:1019B8009E0C0E94830CA1E00E949E0CE0E0E09344
:1019C800BE02E093BD020895AA93EF93FF93A88106
:1019D8006894AA3039F0E894E091BF02A091BD0262
:1019E800AE1758F0E091BE02EF5FE093BE02E0E070
:1019F800EA93A091BE02BFDF56F0E091BD02EF5F0F
:101A0800E093BD027CDFC09AA8810E949E0CFF91E2
:101A1800EF910C94740DBA93AA931A93A981BA8181
:101A2800ED91A983BA831E2FE03019F0A12FCCDFE6
:101A3800F5CF10C0BA93AA931A93E981FA81319627
:101A4800E983FA833197E4911E2FE03019F0A12F32
:101A5800BBDFF3CF188123960895AA27BB271197D8
:101A6800F1F70895AA93C198A7B3A76FA7BBB8B316
:101A7800BF70A8810E94940CC19A32C0AA93C298E0
:101A8800C098E881E093BF02E058E093BB02E88188
:101A9800E054E093BC020E944A0F0E944A0F0E9441
:101AA8004A0FDBDFA0E2DEDFD8DFA8E20E944F0F9B
:101AB800A4E00E944F0FA5E80E944F0FA7B3AF7094
:101AC800A7BBC19A0E94B60CE53011F0E0E008C04F
:101AD8000E94830CA6E00E949E0C0E94D30CE1E0B9
:101AE80021960895E7E0F0E08E169F060895A82D48
:101AF8000E948F010E2EF401ACE1B0E0EE0FFF1F43
:101B0800AE0FBF1F0E94B60FA02DB0E00895EA9F48
:101B1800F0016E0F7F1F0895EA93A0E00C94BF0CAC
:101B2800E0E6F2E0FA93EA930895FF27662777271D
:101B38000E94B10F0895F401A0E0B0E0EE0FFF1F7E
:101B48000895F0E00E94C60FE0E0E6CF0E941E0D67
:101B5800E0E0EA93A1E00E94BF0CE2CFE9E9F0E0FF
:101B6800FA93EA93F4010E94710F0E94B10F08954D
:101B7800AE0FBF1F0E94B60F0E94710F0E94B10FD7
:101B880088E00E94200C2C96A0E6B2E00E940F0D7F
:101B9800C398AAE0B0E00E94CA10C39A0895F4015D
:101BA800AEE0B0E0EE0FFF1F0895AE0FBF1F0E941A
:101BB800B60F08950E94710F0E94B10F0895AA935D
:101BC800E881F0E0F9BDE8BDE981F0E0FBBDEABDE0
:101BD8000895A881B9810E94DF0F0895A881B9816D
:101BE8000C949A01E881F9810E94710F0E944F10AC
:101BF80008950E941810ED93FC930895A4E6B0E0B0
:101C08000C94E502E0918F02F09190020895E09122
:101C18009D02F0919E020895E0919B02F0919C0232
:101C28000895F0DFEC71EC3108950E94EB01AA8170
:101C3800BB810C943403ED91FD913196FE93EE93A4
:101C48000895A881B9810C94E502EA81EA93AB81F1
:101C58000E94B5020C94EB01EA81EA93AB810E94E1
:101C6800AE020C94EB01BA93AA93E091A502F0910D
:101C7800A60230970895EA81FB81FA93EA93AA8134
:101C8800BB810895EA93A1E00C94BF0CE2E0F0E078
:101C9800FA93EA930895A8E7B0E00C940F04E1E002
:101CA800F0E0FA93EA930895A4E6B0E00C940F04E8
:101CB800AFE0B0E00E949A01F2CFEAE5F0E0FA93D3
:101CC800EA93A5E0B0E00E944D04A4E1B0E00E94D0
:101CD800D104E4E6EA93A4E60E94A702A6E2B0E0F3
:101CE8000E949A01E4E6F0E0FA93EA930895A4E1E9
:101CF800B0E00E94BA04CACFE4E6F0E0FA93EA93AF
:101D080008950E94DF04CBCFA4E1B0E00C94AF04A7
:101D1800A4E1B0E00C94BA04E3E0F0E0FA93EA93AB
:101D2800BACFA5E0B0E00E94AF04E6CFEAE5F0E064
:101D3800FA93EA930895E4E6EA93A4E60E94A702D8
:101D4800A1E2B0E00E949A01D7CFAAE5B0E00E94D4
:101D58000F04A5CFA2E3B0E00E943304A4E1B0E0F1
:101D68000C94C604A5E0B0E00E944D04A4E1B0E0E4
:101D78000895E091A302F091A40230970895E4E653
:101D8800EA93A4E60E94A702A6E2B0E00E949A01A4
:101D9800B3CFA091A302B091A4020895E0E5F0E0CA
:101DA800FA93EA930895A2E3B0E00E949A010E9490
:101DB800FF04E093B302F093B40230970895A09122
:101DC800B302B091B40208950E94D30CE0E0A4CE0F
:101DD8000E941E0DE0E056CFE0E0F0E0FA93EA93AF
:101DE800EA93A0E0B0E00C945008A4E6B0E00C94AC
:101DF8009A01A4E6B0E00E94BC02A8ECB0E00C9402
:101E0800CA100E941E0DECE9FFEFFA93EA930895B9
:101E1800ACE9BFEF0E94BC02A8ECB0E00E94CA1077
:101E2800E0E030CF0E941E0DE0E0E0938702A2E3DD
:101E3800B0E00C949A01E0918202F0918302FA9347
:101E4800EA930895EA93A0918402B09185020C94D4
:101E580050082A93AD85BE85EF85F88909950895C0
:101E6800E889F9893497E88BF98B0895AD85BE85A3
:101E7800EF85F88909950895A889B9891496ED918F
:101E8800FD91EE83FF83AE81BF8108950E94310DDD
:101E9800A0E30C94360D0E949E0C0C94310D5A93BD
:101EA8004A933A932A931A930A9308955D814C8131
:101EB8003B812A811981088108950024AF0DB01D46
:101EC8000895F195E195F0400895F0956095709525
:101ED800E195FF4F6F4F7F4F08956F2F660F660B89
:101EE800762F0895FA9FF02DEB9FF00DEA9FE02DD5
:101EF800F10D08951CD0F6DF0EF4E3DF08950024F9
:101F0800112490E1AA0FBB1F001C111C0E1A1F0AF6
:101F180018F40E0E1F1E01C0A1609A9599F7FD01D5
:101F2800D001089504D0EBDF0EF4CBDF0895E894D8
:101F3800F7FF02C0C6DF6894B7FF06C0B195A19548
:101F4800B04000F8039400FA0895ED91FC911197C0
:101F580008950590F491E02D08957A936A93FA9381
:101F6800EA930895119602D0FE2F1197E199FECFBA
:101F7800FF93FFB7F894AEBBBFBBE09AEDB3FFBFCA
:101F8800FF91089507D01196EF93EF2F03D0EF91AB
:101F980011970895E19B02C0A895FCCF9FB7F894CC
:101FA800AEBBBFBBE09A8DB3E81719F0EDBBE29A60
:101FB800E19A9FBF089500240A160B0608953097EA
:101FC8006040704009F070580895552342F4503825
:101FD80011F4E0FF04C03196691F791F6BF050E8D7
:101FE800572711F45F9373C05F3F31F0660F000C01
:101FF80057956795752F08955F9300200AF072C072
:102008006BC050E8192E1522880F991F9527550F78
:10201800879550E8072E0522660F771F7527550FFD
:1020280067950895689401C0E8945F93F2DF70386B
:1020380018F07F3F08F44BC056E1571BAAF451959E
:1020480058300EF4593030F0EFEFFFEF6FEF7FE7C5
:1020580077F91AC077275523B9F0EE0FFF1F661FCF
:10206800771F5A95D1F710C07727583028F0EF2FEF
:10207800F62F672F5850F9CF552331F0769567958D
:10208800F795E7955A95D1F700200AF41EDF5F917E
:102098000895689401C0E894309760407040B1F0AA
:1020A800002426F0772312F400940FDF172E7EE128
:1020B800112032F07A95EE0FFF1F661F111CF9CF21
:1020C800EF2FF62F612D5F938ADF5F910895EE273A
:1020D800FF27BF015F910895EFEFFFEF6FE77FEFF5
:1020E8005F910895EFEFFFEF6FE77FE75F91089546
:1020F8005F9387DF703859F3903849F301240894C7
:10210800791F23F424F300203AF3ECCF0F921F93A6
:102118002F933F934F93112722279927689FA00158
:102128008F9F302D410D591F6B9F300D411D591F39
:102138008E9F27D0BF9F25D06A9F23D0BE9F1DD0DA
:10214800AF9F1BD0AE9F110D291F391F491F591F63
:10215800E32FF42F652F522F4F913F912F911F910D
:102168000F9066232AF0550FEE1FFF1F661F02C04F
:1021780073954BF22ADF5F910895100D211D391FC9
:1021880002C0200D311D491F591F0895109639F0BE
:10219800A8958DEC9AE00197F1F71197C9F7089582
:00000001FF
