:080000000C9413010C940000A4
:100008000C9400000C9400000C9400000C94000068
:100018000C9400000C9400000C9400000C94000058
:100028000C94A4050C9479050C9400000C94000021
:100038000C9400000C9400000C9400000C94000038
:100048000C9400000C9400000C9400001027E803A6
:1000580064000A0001000010000110000100000007
:100068000000000000000000AA0001000A0064006F
:10007800C80060FFC80043454B2053454E534F52BC
:1000880020200025642564256425642564256425CD
:10009800640042616361204C696E650073656E732C
:1000A8006F723A2564203D20256420200042616358
:1000B80061204261636B67726F756E640043656EA1
:1000C80074657220506F696E74202020200073655B
:1000D8006E736F723A2564202D2D3E2025642020F2
:1000E800004D656E75004A616C616E6B616E2052E1
:1000F8006F626F74004B616C69627261736920533F
:10010800656E736F720054657374204D6F746F72EF
:10011800005465737420546F6D626F6C0052756E75
:1001280020426F7400486F6C64203120746F207314
:10013800746172740052756E6E696E672E2E2E0091
:100148002B313030202B313030002D313030202D04
:10015800313030002B313030202D313030002D310E
:100168003030202B31303000486F6C6420312074DF
:100178006F206578697400746F6D626F6C203D2024
:1001880031202020202000746F6D626F6C203D208C
:1001980032202020202000746F6D626F6C203D207B
:1001A80033202020202000746F6D626F6C203D206A
:1001B800342020202020002564202020004C4547A2
:1001C800494F4E004D414E2034204A4F4D42414E3A
:1001D800470054455354000001002D4E414E00493C
:1001E8004E46000080C001000200660008000400BE
:1001F800680001009D02740001009F027600010062
:10020800A10278000200A3027A000100A5027C0086
:100218000100B002E0010200B402EC010000F89411
:10022800EE27ECBBF1E0FBBFEBBFE5BFF8E1F1BDAA
:10023800E1BD8DE0A2E0BB27ED938A95E9F780E068
:1002480098E0A0E6ED930197E9F7EEEEF1E08591ED
:100258009591009761F0A591B59105901590BF0112
:10026800F00105900D920197E1F7FB01F0CFEFE562
:10027800EDBFE8E0EEBFC0E6D2E00C94A505AA9376
:10028800E881E066E7B9369A349BFECF349AE5B147
:1002980021960895BA93AA93A881B9810E94E20B86
:1002A8005DC1CC24DD240E943009D4F40E943509B4
:1002B800EA17FB0734F4A0E9B2E0AC0DBD1DE1E09C
:1002C8000AC00E943509AE17BF0734F4A0E9B2E0AE
:1002D800AC0DBD1DE0E0EC93F60131966F01E3CF64
:1002E8000895A0919602E0E4EA9FB001A0919502DA
:1002F800E0E20E944509A0919402E0E10E944509CC
:10030800A0919302E8E00E944509A0919202E4E0DE
:100318000E944509A0919102E2E00E944509A0913E
:100328009002E1E0EA9FF001E60FF71FE0939702E1
:10033800F09398020895B5DFD4DF0895CC24DD2426
:100348000E943009C4F40E944A09EA0FFB1FFF9378
:10035800EF93AC2D94DFAF91BF910E945009AAE9A9
:10036800B0E00E9458090E944A090E946D09F601EE
:1003780031966F01E5CF0895CC24DD240E94300921
:10038800C4F40E948409EA0FFB1FFF93EF93AC2D7E
:1003980076DFAF91BF910E945009A5EBB0E00E94B3
:1003A80058090E9484090E946D09F60131966F016F
:1003B800E5CF0895CC24DD240E9430090CF047C015
:1003C800F601ACE1B0E0EE0FFF1FEA0FFB1FBF0123
:1003D8000E9484090E948A090F010E944A090E940A
:1003E8008A09D001AE0FBF1FE2E0F0E00E94AE0A1A
:1003F800DB010E94DE0A0E948F09A5ECB0E00E9492
:100408009409E8E6F2E0FA93EA93E6EDF0E0FA936D
:10041800EA93F6010E94890A0E94C90AF601ACE132
:10042800B0E0EE0FFF1F0E948A090E94890A0E940D
:10043800C90A88E00E94DA072C96A8E6B2E00E9472
:10044800C908C398C39AF60131966F01B5CF0895CC
:100458000E949B09929A93989698979A7FC00E94B7
:100468009B099298939A969A979878C00E949B09AC
:100478009298939A9698979A71C00E949B09929A1B
:100488009398969A97986AC0BA93AA93AA81BB81BF
:100498000E94F70A1CF4929A939808C09298939A2B
:1004A800AA81BB810E942F08EA83FB83EA81FB8132
:1004B800FBBDEABD0E94A5091CF4979A969808C04E
:1004C8009798969AA881B9810E942F08E883F983A2
:1004D800E881F981F9BDE8BDAEC1BA93AA93949AAF
:1004E800959A9298939896989798A881B9810E941E
:1004F800E20B34C0BA93AA930E94AA09AAE9B9E9FF
:1005080089E19EE30E94940BADE9B2E00E94B10933
:100518000E94AA09AAE9B9E989E19FE30E94940B1C
:10052800AFE9B2E00E94B109E881F981E093A10244
:10053800F093A2020E94AA09A0E0B0E080E49FE341
:100548000E94940B0E94FB0AA3EAB2E00E94B10940
:10055800E881F981E093A502F093A6022296089516
:10056800BA93AA9322970E946B0AA885B985C2DF1D
:100578000E94B609EF77F070E0939702F093980223
:100588000E94B609E130A0E0FA0719F4EAEFFFEF9C
:1005980056C0E330A0E0FA0719F4EBEFFFEF4FC0C5
:1005A800E230A0E0FA0719F4ECEFFFEF48C0E630BC
:1005B800A0E0FA0719F4EDEFFFEF41C0E430A0E046
:1005C800FA0719F4EEEFFFEF3AC0EC30A0E0FA07B3
:1005D80019F4EFEFFFEF33C0E830A0E0FA0731F489
:1005E800E0E0E0939902E0939A022DC0E831A0E0A0
:1005F800FA0719F4E1E0F0E022C0E031A0E0FA07E0
:1006080019F4E2E0F0E01BC0E033A0E0FA0719F4C7
:10061800E3E0F0E014C0E032A0E0FA0719F4E4E007
:10062800F0E00DC0E036A0E0FA0719F4E5E0F0E0EC
:1006380006C0E034A0E0FA0731F4E6E0F0E0E09329
:100648009902F0939A02A0919B02B0919C02E091CA
:100658009902F0919A02EA1BFB0B8F01E091990233
:10066800F0919A02E0939B02F0939C02E0919D0224
:10067800F0919E02A0919902B0919A020E94960A66
:10068800BF01E0919F02F091A002D8010E94960A52
:10069800E60FF71F9F01A091A102B091A202EA0FF5
:1006A800FB1FAF01E091A102F091A202E21BF30B44
:1006B800EE83FF830E94BB09E417F50724F44091F9
:1006C800A5025091A6020E94C0094E175F0724F4A4
:1006D8004091A3025091A4020E94BB09AE81BF8140
:1006E800EA17FB0724F40E94BB09EE83FF830E94EC
:1006F800C009AE81BF81AE17BF0724F40E94C009AC
:10070800EE83FF835A934A93A885B985BDDE0E947C
:10071800720A2A960895BA93AA93EA81FB814E1623
:100728005F06D4F40E94C50929F005DEA881B981C5
:1007380017DFF8CF0E94C50971F4FDDDC398A881C1
:10074800B9810EDF0E94C50929F0F20131962F0107
:100758003197C39AEFCFE1CF442455246CC0BA93A4
:10076800AA93E0E0E093A702E093A802EC81FD8160
:10077800A091A702B091A802AE17BF074CF4DBDD29
:10078800AA81BB81EDDEA7EAB2E00E94C909EECFDB
:100798000E94CF0926960895BA93AA93CCDDE091DA
:1007A8009002E03021F4E0919102E03019F00E94CB
:1007B800D309F5CFE0919002E03021F4E091910265
:1007C800E03009F003C00E94D309F4CF0E94A509C4
:1007D80014F40E94CF092FC0BA93AA93ACDDE0911C
:1007E8009502E03021F4E0919602E03019F00E9481
:1007F800DA09F5CFE0919502E03021F4E091960214
:10080800E03009F003C00E94DA09F4CF0E94A5097C
:1008180014F40E94CF090FC0BA93AA93AAE2B0E0D9
:100828000E94CE0A309721F40E94E109D5DF03C067
:100838000E94E109B1DF24960895BA93AA93EEEED7
:100848000E94E809A881B98125DD0C948B08BA9328
:10085800AA93E0EFE0938C02A881B9811BDDE6EE54
:100868000E94E8090C948B08E0EFE0938C02E6EE16
:10087800E0938B0208950E94F2090E94FA09AAE007
:10088800B0E0CADF0E94F209EDE2F0E0FA93EA93E1
:10089800EFE5F0E00E94FF09DADFE4E6EA93A4E678
:1008A800DEDDA9E1B0E0F6DC0E94FA09A4E1B0E0DF
:1008B800B3DFE3E0F0E00E94080AE1E0F0E0FA9339
:1008C800EA93A4E6B0E027DF0E94FA09AAE0B0E0C4
:1008D800A3DFE2E0F0E00E94080AC6DF0E94F20906
:1008E800EEE1F0E0FA93EA93E0E5F0E00E94FF0918
:1008F800A4DF0895C0DF0895C39AE091AE02E03006
:1009080021F4E091AD02E03009F006C00E940E0A21
:10091800A9EEB0E00E94D808E091AB02F091AC02D9
:10092800309731F4E091AE02E03009F01FD01DC0DD
:10093800E130A0E0FA0731F4E091AE02E03009F0CE
:100948003DD013C0E230A0E0FA0731F4E091AE02E6
:10095800E03009F044D009C0E330A0E0FA0729F4F8
:10096800E091AE02E03009F067D00895E091AD0261
:10097800E03071F40E940E0AA5E2B1E00E949409E9
:10098800ADE2B1E00E94D808E1E0E093AD0215C005
:10099800E091AD02E03089F00E948D080E94110AB2
:1009A800ADE3B1E00E94D808A5DFE0E0E093AD0236
:1009B800E093AB02E093AC029FDF0895BFDCACE2AA
:1009C800B1E068DCD9DCA4E6B0E064DCF3DCE0E0AC
:1009D800E093AD02E1E0F0E00E94160A2BC00E940D
:1009E8000E0AAEE0B1E00E949409A8E4B1E00E94CA
:1009F800D808E4E6EA93A4E60E941B0AA2E5B1E05F
:100A08000E94D808ECE9EA93ACE90E941B0AACE51D
:100A1800B1E00E94D808E4E6EA93ACE90E941B0A18
:100A2800A6E6B1E00E94D808ECE9EA93A4E610DD56
:100A38000E940E0A61DF08950E94110AA0E7B1E042
:100A48000E94D808E1E0E093AF02E091AF02E03005
:100A580009F44AC0989904C0E0918F02E03009F087
:100A680023C00E948F09AFE7B1E00E94D8080E9416
:100A7800220A989904C0E0918F02E03009F013C06F
:100A88000E942C0A64F0E0E0E0938F02E3E0F0E0DB
:100A98000E94160AE0E0E093AF022EDF04C0E0E017
:100AA800E0938F02E6CF07C0989B05C00E94390AE1
:100AB800E0E0E0938F02999906C00E948F09AFE8A1
:100AC800B1E00E94D8089A9906C00E948F09AFE940
:100AD800B1E00E94D8089B9906C00E948F09AFEA2E
:100AE800B1E00E94D808B1CF0895AA93EA93EFB76E
:100AF800EA93E6E9E2BFE0918E02EF5FE0938E02AF
:100B0800E0918B02A0918E02EA1710F0AE9801C016
:100B1800AE9AE0918C02A0918E02EA1710F0AF987D
:100B280001C0AF9AE0918D02A0918E02EA1710F0F1
:100B3800AD9801C0AD9AE991EFBFE991A9911895D7
:100B48001895E0E0EBBBEABBE8E0E8BBEFEFE7BBFA
:100B5800E5BBE0EFE4BBE3E0E2BBECEFE1BBEAE4DA
:100B6800E3BFE6E9E2BFE0E0ECBFE1EAEFBDE9E0C0
:100B7800EEBDE0E0EDBDECBDE7BDE6BDEBBDEABD19
:100B8800E9BDE8BDE2BDE5BDE4BDE3BDE5BFE4BF49
:100B9800E3E0E9BFE0E8E8B9E0E0E0BFE5BFE4BFD3
:100BA800EBB9E8E1EAB9E6E8E0BDE0E0E0BDE7E49A
:100BB800E9B9E0E6E7B9E4E8E6B9E0B7EF71E0BF24
:100BC800A0E10E94FC080E948D08C3980E948F092A
:100BD800A5ECB1E00E949409ACECB1E00E943F0A98
:100BE8000E948D087894EAEEE0938C02E6EEE0939A
:100BF8008B02EFEFE0938D020E94110AAAEDB1E09B
:100C08000E943F0AAAE2B0E00E94CE0A309721F083
:100C1800E130A0E0FA0709F406C0AAE2B0E0E0E09B
:100C2800F0E00E94DE0A989904C0E091AF02E0303B
:100C380009F023C05FDE0E94220A989908C0E0915B
:100C4800AF02E03021F4E0918F02E03009F014C0E7
:100C58000E942C0A2CF0E1E0E093AE024DDE08C0C1
:100C6800E0E0E093AE02E093AD0246DE0E94390A6E
:100C7800E0E0E0938F02E1CF07C0989B05C00E9497
:100C8800390AE0E0E0938F02999904C0E091AF023D
:100C9800E03009F013C0E091AB02F091AC0231965C
:100CA8000E94160AA091AB02B091AC0214972CF0E6
:100CB800E0E0E093AB02E093AC021EDEB4CFFFCFDE
:100CC800BA93AA931A930A93AA81BB8112960E9497
:100CD800C10A309729F1AA81BB8114960E94C10AE2
:100CE8008F01309761F00230E0E01E0780F0F801D4
:100CF80031978F01AA81BB811496ED93FC93AA8149
:100D0800BB8112960E94C9093197AC81A083AA8140
:100D1800BB810E94C10AFF2312F00E94C90906C0C4
:100D2800AA81BB81EFEFFFEFED93FC931981088156
:100D380025960895BA93AA9326970E946B0A10E005
:100D4800AC85BD85E0E0F0E0ED93FC93EA89FB8992
:100D58003196EA8BFB8B3197E4912E2FE03009F422
:100D68001DC1E12FE03039F4253211F411E002C041
:100D78000E94450A12C1E130A9F4253219F40E94F3
:100D8800450A0AC112E040E000E02D3211F401E00A
:100D980004C12B3211F44BE200C1203211F440E2BD
:100DA800FCC002C0E23039F450E013E0203311F403
:100DB8000068F3C003C0E33009F0EFC0203310F03F
:100DC8002A3308F007C0AAE05A9F502DE22FE053BB
:100DD8005E0FE3C0E22FE33649F40E944C0AE8892B
:100DE800F989A481AA930E94520AD6C0E33741F434
:100DF8000E944C0A0E94580A0E9416081E2F0AC018
:100E0800E03761F40E944C0A0E94580A0E942208A6
:100E18001E2F086002600F7730E03CC0E43611F006
:100E2800E93611F4046002C0E53731F4E4E5F0E096
:100E3800EE83FF8315E00CC0E83511F4086003C0A9
:100E4800E83709F0A9C0EEE5F0E0EE83FF8314E08F
:100E580002FF17C00E944C0AA889B9891496ED911F
:100E6800FD91EA87FB87AB85AA232AF40E947D0AB5
:100E7800EA87FB874DE2403011F01F5F01C00B7F0E
:100E880009C00E944C0AA889B98914960E94C10A0F
:100E9800EA87FB8700FD11C0151778F407FF08C023
:100EA80002FF04C00B7F242F115001C020E301C0B2
:100EB80020E20E94450A5150EFCF312F01FF17C0A1
:100EC8003030A1F003FF06C0EE81FF812591EE834B
:100ED800FF8305C0AE81BF812D91AE83BF830E9481
:100EE800450A503009F051503150EACF4BC020E349
:100EF800EE81FF810E94C50AE887F987EE81FF81AC
:100F08003296EE83FF83E885F985AA85BB85AE17FF
:100F1800BF0750F02F5FA885B985EA85FB85EA1BD6
:100F2800FB0BEA87FB87EFCF2A3328F003FF02C0C9
:100F3800295F01C0295D04FD1AC0213320F4A8856A
:100F4800B985119709F409C0531710F000FF01C0C3
:100F580013C020E207FF0BC020E3006102FF07C0B7
:100F68000B7F4A930E94520A503009F051500E9458
:100F7800450A503009F051503150A885B98512976B
:100F880008F0B5CF00FF08C0503031F05150E0E212
:100F9800EA930E94520AF8CF10E0D8CEAC85BD85FE
:100FA800ED91FD910E94720A64960895FF92F82EC1
:100FB80026970E946D0ADE011C960E94790A0E94FB
:100FC800C10A309719F4EFEFFFEF27C0DE0116963C
:100FD8000E94790A8D01DE011C960E94790AED9122
:100FE800FD91EE83FF83E0E0E887E987DE011A964A
:100FF8000E94790AED91FD91FA93EA931A930A9364
:10100800E4E6F6E0FA93EA93DE011A9693DE9F018E
:10101800AE81BF81E0E0EC93F9010E94740A2A9640
:10102800FF900895BA93AA93A991B991EE27FF2743
:101038006D91662311F03196FBCF0895BA93AA9368
:10104800AA27BB27E991F9910590002011F0119684
:10105800FBCFFD010895BA93AA93E991F9913097CE
:101068001AF4E095F09531960895FFE0FA95F1F7B6
:101078000895A7B3AF70A7BBC19AC098F6DFC29A0C
:10108800F4DFA6B3C298F1DFC29AEFDFC298A7FDDA
:10109800F5CF0895A07FAB2BA8BBC29A0E94390850
:1010A800C2980E9439080895AA93C198A7B3A76F58
:1010B800A7BBB8B3BF70A881EDDFA881A295EADF0E
:1010C800C19A0C942E09C29A0E943908E6B3C298B4
:1010D8000E943908E07F08950E943908F4DFAE2F96
:1010E800F2DFC198E295EA2B0895AA930E943D0881
:1010F800E881F0E0EC54FD4FE081A981AE0F0E9439
:101108005808E981E093B802E881E093B902229691
:1011180008950E943D08A2E00E9458080E943D08D8
:10112800ACE00E9458080E943D08A1E00E945808BF
:10113800E0E0E093B902E093B8020895AA93EF9330
:10114800FF93A8816894AA3039F0E894E091BA0234
:10115800A091B802AE1758F0E091B902EF5FE093A2
:10116800B902E0E0EA93A091B902BFDF56F0E0913E
:10117800B802EF5FE093B8027CDFC09AA8810E94B2
:101188005808FF91EF910C942E09BA93AA931A93D9
:10119800A981BA81ED91A983BA831E2FE03019F095
:1011A800A12FCCDFF5CF10C0BA93AA931A93E98187
:1011B800FA813196E983FA833197E4911E2FE03062
:1011C80019F0A12FBBDFF3CF188123960895AA2722
:1011D800BB271197F1F70895AA93C198A7B3A76FF2
:1011E800A7BBB8B3BF70A8810E944E08C19A32C08D
:1011F800AA93C298C098E881E093BA02E058E093B5
:10120800B602E881E054E093B7020E94620A0E94A5
:10121800620A0E94620ADBDFA0E2DEDFD8DFA8E212
:101228000E94670AA4E00E94670AA5E80E94670A6C
:10123800A7B3AF70A7BBC19A0E947008E53011F040
:10124800E0E008C00E943D08A6E00E9458080E94FD
:101258008D08E1E021960895E7E0F0E0CE16DF067C
:101268000895AC2D0E9443010E2EF601ACE1B0E0CA
:10127800EE0FFF1FAE0FBF1F0E94CE0AA02DB0E0D9
:101288000895EA9FF0016E0F7F1F0895F601A0E010
:10129800B0E0EE0FFF1F0895F0E00E94DE0AE0E0E4
:1012A800EA93A0E00C9479080E94D808E0E0EA9359
:1012B800A1E00E947908E8E6F2E0FA93EA93E4EA0A
:1012C800F0E0FA93EA93F6010E94890A0E94C90A9B
:1012D8000895AE0FBF1F0E94CE0A0E94890A0E947D
:1012E800C90A88E00E94DA072C96A8E6B2E00E94B4
:1012F800C908C398AAE0B0E00E94E20BC39A089517
:10130800F601AEE0B0E0EE0FFF1F0895AE0FBF1F6D
:101318000E94CE0A0895E0E0EA93A0E00C947908D0
:101328000E94D808E0E0EA93A1E00C947908AA9317
:10133800E881F0E0F9BDE8BDE981F0E0FBBDEABD78
:101348000895A881B9810E94F70A0895E881F98172
:101358000E94890A0E94670B08950E94300BED9342
:10136800FC930895E0919702F09198020895E09116
:10137800A502F091A6020895E091A302F091A402BB
:101388000895F0DFEC71EC310895ED91FD913196FF
:10139800FE93EE930895A881B9810C947102EA81B5
:1013A800EA93AB810E9441020C949F01EA81EA937F
:1013B800AB810E943A020C949F01EA81FB81FA9367
:1013C800EA93AA81BB810895E0938B02A881B98131
:1013D8000E944E01EAEEE0938C020895E1E0F0E00D
:1013E800FA93EA93A0E5B0E00C948F03E4E6F0E00A
:1013F800FA93EA930895FA93EA93A2E3B0E00E947D
:10140800B303A4E1B0E00895FA93EA93A6E9B0E043
:101418000C948F030E948D087ECFE0E0EA93A1E050
:101428000C947908E093AB02F093AC0208950E9403
:101438002C02A2E3B0E00E94E20BEFCFE091600241
:10144800F09161023196E0936002F0936102089591
:10145800E1E0E0938F02A3E0B0E00E944E01A0918A
:101468006002B091610255970895E0E0E093600250
:10147800E093610208950E94D808A4E6B0E00C94B5
:10148800E20B2A93AD85BE85EF85F8890995089505
:10149800E889F9893497E88BF98B0895AD85BE857D
:1014A800EF85F88909950895A889B9891496ED9169
:1014B800FD91EE83FF83AE81BF8108950E94EB0802
:1014C800A0E30C94F0080E9458080C94EB085A9377
:1014D8004A933A932A931A930A9308955D814C810B
:1014E8003B812A811981088108950024AF0DB01D20
:1014F8000895F195E195F0400895F09560957095FF
:10150800E195FF4F6F4F7F4F08956F2F660F660B62
:10151800762F0895FA9FF02DEB9FF00DEA9FE02DAE
:10152800F10D08951CD0F6DF0EF4E3DF08950024D2
:10153800112490E1AA0FBB1F001C111C0E1A1F0AD0
:1015480018F40E0E1F1E01C0A1609A9599F7FD01AF
:10155800D001089504D0EBDF0EF4CBDF0895E894B2
:10156800F7FF02C0C6DF6894B7FF06C0B195A19522
:10157800B04000F8039400FA0895ED91FC9111979A
:1015880008950590F491E02D08957A936A93FA935B
:10159800EA930895119602D0FE2F1197E199FECF94
:1015A800FF93FFB7F894AEBBBFBBE09AEDB3FFBFA4
:1015B800FF91089507D01196EF93EF2F03D0EF9185
:1015C80011970895E19B02C0A895FCCF9FB7F894A6
:1015D800AEBBBFBBE09A8DB3E81719F0EDBBE29A3A
:1015E800E19A9FBF089500240A160B0608953097C4
:1015F8006040704009F070580895552342F45038FF
:1016080011F4E0FF04C03196691F791F6BF050E8B0
:10161800572711F45F9373C05F3F31F0660F000CDA
:1016280057956795752F08955F9300200AF072C04B
:101638006BC050E8192E1522880F991F9527550F52
:10164800879550E8072E0522660F771F7527550FD7
:1016580067950895689401C0E8945F93F2DF703845
:1016680018F07F3F08F44BC056E1571BAAF4519578
:1016780058300EF4593030F0EFEFFFEF6FEF7FE79F
:1016880077F91AC077275523B9F0EE0FFF1F661FA9
:10169800771F5A95D1F710C07727583028F0EF2FC9
:1016A800F62F672F5850F9CF552331F07695679567
:1016B800F795E7955A95D1F700200AF41EDF5F9158
:1016C8000895689401C0E894309760407040B1F084
:1016D800002426F0772312F400940FDF172E7EE102
:1016E800112032F07A95EE0FFF1F661F111CF9CFFB
:1016F800EF2FF62F612D5F938ADF5F910895EE2714
:10170800FF27BF015F910895EFEFFFEF6FE77FEFCE
:101718005F910895EFEFFFEF6FE77FE75F9108951F
:101728005F9387DF703859F3903849F301240894A0
:10173800791F23F424F300203AF3ECCF0F921F9380
:101748002F933F934F93112722279927689FA00132
:101758008F9F302D410D591F6B9F300D411D591F13
:101768008E9F27D0BF9F25D06A9F23D0BE9F1DD0B4
:10177800AF9F1BD0AE9F110D291F391F491F591F3D
:10178800E32FF42F652F522F4F913F912F911F91E7
:101798000F9066232AF0550FEE1FFF1F661F02C029
:1017A80073954BF22ADF5F910895100D211D391FA3
:1017B80002C0200D311D491F591F0895109639F098
:1017C800A8958DEC9AE00197F1F71197C9F708955C
:00000001FF
