:0A0000000C9435010C9400000C94E0
:10000A0000000C9400000C9400000C9400000C9466
:10001A0000000C9400000C9400000C9400000C9456
:10002A006D090C9442090C9400000C9400000C9485
:10003A0000000C9400000C9400000C9400000C9436
:10004A0000000C9400000C9400001027E8036400E0
:10005A000A00010000100001100001000000000069
:10006A00000000000000AA0001000A006400C800A5
:10007A0060FFC800D7006400B400BE0078002564A1
:10008A00256425642564256425642564004261632A
:10009A0061204C696E650073656E736F723A2564F0
:1000AA00203D202564202000426163612042616373
:1000BA006B67726F756E640043656E74657220506B
:1000CA006F696E74202020200073656E736F723A18
:1000DA002564202D2D3E2025642020002564202023
:1000EA0020004D656E750043616C696272617469C6
:1000FA006F6E0052756E20426F74004D6170004D34
:10010A006F746F7200427574746F6E00436C617025
:10011A0020584400436C69636B203220746F20734B
:10012A00746172740052756E6E696E672E2E2E009F
:10013A004D6170204269727500436C69636B2032AD
:10014A0020746F2073656C656374004D6170204D77
:10015A00657261680054657374204D6F746F720024
:10016A002B313030202B313030002D313030202DE2
:10017A00313030002B313030202D313030002D31EC
:10018A003030202B31303000436C69636B203120D2
:10019A00746F206578697400746F6D626F6C203DAE
:1001AA002031202020202000746F6D626F6C203D6A
:1001BA002032202020202000746F6D626F6C203D59
:1001CA002033202020202000746F6D626F6C203D48
:1001DA002034202020202000486F6C6420312074B5
:1001EA006F2065786974004C4547494F4E004D4170
:1001FA004E2034204A4F4D42414E470001002D4EB9
:10020A00414E00494E46000080C0010002006600CF
:10021A0008000400680001009C02740001009E02AC
:10022A0076000100A00278000200A2027A00010012
:10023A00A4027C000100AA027E000100AC02800038
:10024A000100AE0282000100B00284000100B40283
:10025A0086000100B80206020200BC021202000077
:10026A00F894EE27ECBBF1E0FBBFEBBFE5BFF8E18A
:10027A00F1BDE1BD8DE0A2E0BB27ED938A95E9F7D8
:10028A0080E098E0A0E6ED930197E9F7E4E1F2E077
:10029A0085919591009761F0A591B591059015907A
:1002AA00BF01F00105900D920197E1F7FB01F0CF34
:1002BA00EFE5EDBFE8E0EEBFC0E6D2E00C946E09D0
:1002CA00AA93E881E066E7B9369A349BFECF349A5E
:1002DA00E5B121960895BA93AA93A881B9810E949B
:1002EA00731027C3CC24DD240E94EB0CD4F40E94A3
:1002FA00F00CEA17FB0734F4AFE8B2E0AC0DBD1D11
:10030A00E1E00AC00E94F00CAE17BF0734F4AFE870
:10031A00B2E0AC0DBD1DE0E0EC93F60131966F0141
:10032A00E3CF0895A0919502E0E4EA9FB001A0917D
:10033A009402E0E20E94000DA0919302E0E10E9483
:10034A00000DA0919202E8E00E94000DA091910296
:10035A00E4E00E94000DA0919002E2E00E94000DEC
:10036A00A0918F02E1E0EA9FF001E60FF71FE09308
:10037A009602F09397020895B5DFD4DF0895B2DFAD
:10038A00E9E00E94050D0E94090DE8E8F0E0FA9301
:10039A00EA93E0918F020E940E0DE09190020E9472
:1003AA000E0DE09191020E940E0DE09192020E94C0
:1003BA000E0DE09193020E940E0DE09194020E94AC
:1003CA000E0DE09195020E940E0D8CE10E94950B94
:1003DA00A096CEC2CC24DD240E94EB0CD4F40E9459
:1003EA00140DEA0FFB1FFF93EF93AC2D69DFAF915A
:1003FA00BF910E941A0DA7E9B0E00E941F0D0E944A
:10040A00270D0E94140D0E94310DF60131966F01DD
:10041A00E3CF0895CC24DD240E94EB0CD4F40E948F
:10042A00480DEA0FFB1FFF93EF93AC2D49DFAF9105
:10043A00BF910E941A0DA2EBB0E00E941F0D0E940C
:10044A00270D0E94480D0E94310DF60131966F0169
:10045A00E3CF0895CC24DD240E94EB0C0CF044C0B9
:10046A00F601ACE1B0E0EE0FFF1FEA0FFB1FBF0180
:10047A000E94480D0E944E0D0F010E94140D0E9409
:10048A004E0DD001AE0FBF1FE2E0F0E00E943F0F19
:10049A00DB010E946F0FE0E00E94050DA2ECB0E0C4
:1004AA000E941F0DE3EDF0E0FA93EA93F6010E9431
:1004BA001A0F0E945A0FF601ACE1B0E0EE0FFF1FCF
:1004CA000E944E0D0E941A0F0E945A0F88E00E9445
:1004DA00950B2C96A0E6B2E00E94840CC398C39AAE
:1004EA00F60131966F01B8CF08950E94530D929A82
:1004FA0093989698979A1DC20E94530D9298939A30
:10050A00969A979816C20E94530D9298939A969823
:10051A00979A0FC20E94530D929A9398969A979817
:10052A0008C2BA93AA93AA81BB810E94880F1CF4BD
:10053A00929A939808C09298939AAA81BB810E9432
:10054A00EA0BEA83FB83EA81FB81FBBDEABD0E94D9
:10055A005D0D1CF4979A969808C09798969AA88168
:10056A00B9810E94EA0BE883F983E881F981F9BD30
:10057A00E8BDC1C1BA93AA93949A959A929893980E
:10058A0096989798A881B9810E947310D2C1BA939C
:10059A00AA93EA81EA93AB81A8DF0E94620DABC1FC
:1005AA00BA93AA930E94660DAAE9B9E989E19EE382
:1005BA000E942510ACE9B2E00E946D0D0E94660D02
:1005CA00AAE9B9E989E19FE30E942510AEE9B2E000
:1005DA000E946D0DE881F981E093A002F093A102D7
:1005EA000E94660DA0E0B0E080E49FE30E9425101F
:1005FA000E948C0FA2EAB2E00E946D0DE881F98197
:10060A00E093A402F093A50294C1C398A4E6B0E0D3
:10061A00B1DFFCCFBA93AA9322970E94FC0EA88559
:10062A00B985BEDF0E94720DEF77F070E0939602F3
:10063A00F09397020E94720DE130A0E0FA0719F4D4
:10064A00EAEFFFEF56C0E330A0E0FA0719F4EBEF48
:10065A00FFEF4FC0E230A0E0FA0719F4ECEFFFEF2A
:10066A0048C0E630A0E0FA0719F4EDEFFFEF41C009
:10067A00E430A0E0FA0719F4EEEFFFEF3AC0EC30ED
:10068A00A0E0FA0719F4EFEFFFEF33C0E830A0E07B
:10069A00FA0731F4E0E0E0939802E09399022DC062
:1006AA00E831A0E0FA0719F4E1E0F0E022C0E03115
:1006BA00A0E0FA0719F4E2E0F0E01BC0E033A0E0A2
:1006CA00FA0719F4E3E0F0E014C0E032A0E0FA0718
:1006DA0019F4E4E0F0E00DC0E036A0E0FA0719F4FE
:1006EA00E5E0F0E006C0E034A0E0FA0731F4E6E025
:1006FA00F0E0E0939802F0939902A0919A02B091E7
:10070A009B02E0919802F0919902EA1BFB0B8F0180
:10071A00E0919802F0919902E0939A02F0939B0279
:10072A00E0919C02F0919D02A0919802B0919902E9
:10073A000E94270FBF01E0919E02F0919F02D8010B
:10074A000E94270FE60FF71F9F01A091A002B09108
:10075A00A102EA0FFB1FAF01E091A002F091A102F2
:10076A00E21BF30BEE83FF830E94770DE417F50774
:10077A0024F44091A4025091A5020E947C0D4E17C8
:10078A005F0724F44091A2025091A3020E94770DC0
:10079A00AE81BF81EA17FB0724F40E94770DEE832E
:1007AA00FF830E947C0DAE81BF81AE17BF0724F480
:1007BA000E947C0DEE83FF835A934A93A885B985DC
:1007CA00B0DE0E94030F2A960895BA93AA93EA818B
:1007DA00FB814E165F06D4F40E94810D29F0CCDD10
:1007EA00A881B98117DFF8CF0E94810D71F4C4DDA9
:1007FA00C398A881B9810EDF0E94810D29F0F20108
:10080A0031962F013197C39AEFCFE1CF4424552473
:10081A0072C0BA93AA93E0E0E093A602E093A7021B
:10082A00EC81FD81A091A602B091A702AE17BF0785
:10083A004CF4A2DDAA81BB81EDDEA6EAB2E00E94F9
:10084A00850DEECF0E948B0D26960895BA93AA9332
:10085A0093DDE0918F02E03021F4E0919002E030E4
:10086A0019F00E948F0DF5CFE0918F02E03021F44C
:10087A00E0919002E03009F003C00E948F0DF4CF9E
:10088A000E945D0D14F40E948B0D35C0BA93AA9391
:10089A0073DDE0919402E03021F4E0919502E030BA
:1008AA0019F00E94960DF5CFE0919402E03021F400
:1008BA00E0919502E03009F003C00E94960DF4CF52
:1008CA000E945D0D14F40E948B0D15C00E949D0DAF
:1008DA0021F40E94A50DDADF03C00E94A50DB6DF40
:1008EA000AC00E949D0D21F40E94A50DAFDF03C02E
:1008FA000E94A50DCBDF24960895BA93AA93EEEE33
:10090A00E09383020E94620DEAEEE09384020E9461
:10091A00620D0FC0BA93AA93E0EFE09384020E949B
:10092A00620DE6EEE09383020E94620DEAEEE09326
:10093A00840222960895E0EFE0938402E6EEE093C3
:10094A0083020895A7E0BCDC8E2E9924EDE00E9474
:10095A00AC0D0E94090DE6EEF0E0FA93EA93F40179
:10096A00662777270E945A0F84E00E94950B2896E3
:10097A00A0E6B2E00E94840C08951A930A93A7E0B5
:10098A009FDC8E2E9924E091B402F091B502E8150D
:10099A00F90538F4E091AE02F091AF028E169F0687
:1009AA0008F003C000E010E026C0E091B202F09126
:1009BA00B302E815F90538F4E091AC02F091AD0202
:1009CA008E169F0608F003C001E010E014C0E09103
:1009DA00B002F091B102E815F90538F4E091AA02E3
:1009EA00F091AB028E169F0608F003C002E010E0F9
:1009FA0002C003E010E0F8010991199108950E94DC
:100A0A00B00D0E94B50D0E94B90D0E94C10D0E9441
:100A1A00C60D0E94E20D0E94E50D0E94E90D0E949A
:100A2A00E20D0E94B50D0E94F00DE3E2F0E0ACC0C9
:100A3A000E94B90D0E94E90D0E94F30D0E94B50DA6
:100A4A000E94B90DE8E2F0E00E94F60D4ADF0E942A
:100A5A00E90D0E94140E0E941B0E0E94B90D0E94FD
:100A6A00E90D0E94230E67DF0E94C10DEAE5F0E05E
:100A7A008FC00E94B90D0E94E90D0E94E20D0E94EA
:100A8A00B50D0E94B90DE5E2F0E00E94F60D0E9454
:100A9A00260E0E94290E0E94E90D0E94290E4BDFA4
:100AAA00EFE2F0E00E942C0E73C00E94B90D0E9482
:100ABA00E90D0E94140E0E94B00D0E94310E0E9490
:100ACA00B90DE5E2F0E00E94F60D0E94260E0E94A2
:100ADA00290E0E94B00D0E94E50D0E94E90D0E94A8
:100AEA00F30D0E94310E0E94B90DEAE5F0E0FA9387
:100AFA00EA93AAE0B0E00E94290E1DDFE2E3F0E0EB
:100B0A0043C00E943A0E0E94E50D0E94E90D0E9420
:100B1A00290E0E94C10DEFE5F0E00E943F0EA4E10C
:100B2A00B0E0F8DE0E94450EAFE00E944A0E0E9435
:100B3A00F30D0E94310E0E94B90D0E94E90D0E9428
:100B4A00F30D0E94310E0E94F00DE3E2F0E01CC0AA
:100B5A000E94450EA9E10E944E0EC3DE0E94E90DD5
:100B6A000E94230E0E943A0E0E94B50D0E94B90DF2
:100B7A000E94C10D0E94C60D0E94580E0E94310E9D
:100B8A000E94F00DEEE1F0E0FA93EA93E0E5F0E07E
:100B9A00FA93EA93A2E3B0E03CDE0E945B0E08956A
:100BAA000E94450EAEE10E944E0E0E94260E0E9441
:100BBA00290E0E94B00DA6E90FC00E943A0E0E94AB
:100BCA00E50D0E94E90D0E94230EA2E3B0E0D2DCFB
:100BDA000DC00E943A0EA8E7B0E0F7DD0E94B90DF9
:100BEA00E3E2F0E00E942C0E0E943F0EA4E1B0E086
:100BFA0091DE08950E945F0E39F40E94450EAEE11F
:100C0A000E944A0E6EDE3AC00E94650E119759F490
:100C1A000E94450EAEE10E944E0E0E94260E0E94D0
:100C2A00580EA0E522C00E94650E129761F40E9438
:100C3A00450EAEE10E944E0E0E94260E0E94290E1B
:100C4A00E2E0F0E00FC00E94650E1397B9F40E942B
:100C5A00450EAEE10E944E0E0E94260E0E94290EFB
:100C6A00E4E0F0E0FA93EA93A6E9B0E0AEDD0E9490
:100C7A003A0E0E94E50D0E94E90D28DE8DC00E9401
:100C8A005F0E89F40E94450EAEE10E946A0E0E9430
:100C9A00230E0E941B0E0E943A0E0E94E50D0E942E
:100CAA00E90D1FDE30C00E94650E119779F40E948B
:100CBA00450EAEE10E944A0E0E94230E0E943A0E91
:100CCA000E94310E0E94E90D0CDE1DC00E94650EC5
:100CDA00129759F40E94450EAEE10E944A0E0E94F4
:100CEA00230E0E94E90DFDDD0EC00E94650E1397CA
:100CFA0051F40E94450EAEE10E944A0E0E94290E4E
:100D0A000E94E90DE3DD48C00E945F0E99F40E943B
:100D1A00450EAEE10E944E0E0E94260E0E94290E3A
:100D2A00E4E0F0E0FA93EA930E94310E0E94E90DA2
:100D3A00D8DD32C00E94650E119789F40E94450ED3
:100D4A00AEE10E944E0E0E94260E0E94290E0E94BB
:100D5A00B00D0E94310E0E94E90DC3DD1DC00E9434
:100D6A00650E129779F40E94450EAEE10E944A0E72
:100D7A000E94230E0E943A0E0E94E50D0E94E90D80
:100D8A00B0DD0AC00E94650E139731F40E94450E29
:100D9A00AEE10E944A0E9ADD01D008950E941B0E10
:100DAA000E943A0E0E94E50D0E94F00DE9E1F0E082
:100DBA000E942C0E0E943F0E0E945B0E01D00895E5
:100DCA000E94450EAEE1B0E086DA0E94740EAAE0F7
:100DDA00B0E00E94260E0E94580EAAE5B0E0F5DCAB
:100DEA000E943A0E0E94B50D0E94E90D7ADD0E941A
:100DFA005F0E21F40E943A0EA4E62BC00E94650EF3
:100E0A00119761F40E943A0E0E94E50D0E943A0E73
:100E1A00A6E9B0E0DADCE1E0F0E018C00E94650E75
:100E2A00129751F40E943A0E0E94E50DE4E0F0E0B8
:100E3A00FA93EA93A6E90DC00E94650E139759F436
:100E4A000E943A0E0E94E50DE6E0F0E0FA93EA937A
:100E5A00A8E7B0E0BADCEBE4F0E00E942C0E0E94B6
:100E6A003F0EA4E1B0E056DD01D008950E94450E80
:100E7A00A4E10E946A0E0E94580E0E94E50D0E948B
:100E8A001B0E0E943A0E0E94E50D0E94E90D0E9477
:100E9A00580E0E94B50D0E94B90DE3E2F0E00E94DF
:100EAA002C0E0E943F0EB1DB0895E0E5F0E0FA93C4
:100EBA00EA93ADE2B0E06BDB0E94B00D0E94B50D83
:100ECA000E94F00DEEE1F0E0FA93EA93E0E5F0E03B
:100EDA000E943F0E0E945B0E0E94790E11F4C9DD3A
:100EEA000BC00E94850E119711F4A2DD05C00E9465
:100EFA00850E129701F483DD40DDE093B602F0938C
:100F0A00B702309711F424DE0BC00E94850E1197A8
:100F1A0011F4F7DD05C00E94850E129701F4C5DDB4
:100F2A000E94790E19F455DEEFDE0DC00E94850E7F
:100F3A00119719F442DEA3DE06C00E94850E1297AD
:100F4A0001F42EDE57DE0895BA93AA93C398EB8173
:100F5A00FC81E0938702F0938802E881F981E093AB
:100F6A008902F0938A02EA81E03021F4E0918B024F
:100F7A00E03009F006C00E948A0EACEEB0E00E9492
:100F8A00930CEB81FC81309769F4EA81E03011F02F
:100F9A0090D066C0E0E00E94AC0DA1EFB0E00E94E4
:100FAA00930C5EC0E130A0E0FA0789F4EA81E030F0
:100FBA0021F4E0918B02E03011F053D051C0E0E00F
:100FCA000E94AC0DADEFB0E00E94930C49C0E23034
:100FDA00A0E0FA0799F4EA81E03021F4E0918B026B
:100FEA00E03021F0A881B9816ED03AC0E0E00E94D9
:100FFA00AC0DA5E0B1E00E94930C32C0E330A0E052
:10100A00FA0769F4EA81E03011F0A8D029C0E0E0DB
:10101A000E94AC0DA9E0B1E00E94930C21C0E4301B
:10102A00A0E0FA0769F4EA81E03011F0C5D018C0EF
:10103A00E0E00E94AC0DAFE0B1E00E94930C10C05A
:10104A00E530A0E0FA0761F4EA81E03011F0EFD070
:10105A0007C0E0E00E94AC0DA6E1B1E00E94930C4B
:10106A0021C2E0918B02E03071F40E948A0EADEF4A
:10107A00B0E00E948E0EAEE1B1E00E94930CE1E076
:10108A00E0938B0215C0E0918B02E03089F00E9458
:10109A00480CE0E00E94AC0DAFE2B1E00E94930C74
:1010AA0004DFE0E0E0938B020E94920E0E94980E09
:1010BA00089590D9ACE2B1E00ED9ACD9A4E6B0E07B
:1010CA000AD9C8D975C0BA93AA93E881F981309729
:1010DA00F1F4E0918B02E03071F4E1E0E0938B02ED
:1010EA000E948A0EAAE3B1E00E948E0EA3E4B1E048
:1010FA000E94930C0BC0E0918B02E03039F00E9401
:10110A00A10E0E94920EE0E00E94A80E25C0E130D6
:10111A00A0E0FA0709F5E0918B02E03071F4E1E012
:10112A00E0938B020E948A0EA5E5B1E00E948E0E22
:10113A00A3E4B1E00E94930C0FC0E0918B02E0306F
:10114A0059F0AAE2B0E0E1E0F0E00E946F0F0E94DD
:10115A00920EE0E00E94A80E0C94460C0E948A0EA1
:10116A00AFE5B1E00E948E0EAAE6B1E00E94930CB0
:10117A000E94740E0E94AB0EE0E00E94AC0DA4E740
:10118A00B1E00E94B30E0E94BA0EAEE7B1E00E942F
:10119A00930C0E94740E0E94BA0EA8E8B1E00E9455
:1011AA00B30E0E94AB0EA4E6B0E0E4D90E948A0E08
:1011BA00E0E00E94A80E0895E0E00E94AC0DA2E9CA
:1011CA00B1E00E94930CE1E0E0938C02E0918C0282
:1011DA00E03061F198990EC0E0E00E94050DA2EAA4
:1011EA00B1E00E94930CE0E0E0938C020E94C40EEE
:1011FA000E94980E999907C0E0E00E94050DA2EBA3
:10120A00B1E00E94930C9A9907C0E0E00E94050D94
:10121A00A2ECB1E00E94930C9B9907C0E0E00E9407
:10122A00050DA2EDB1E00E94930CD0CF08950E9463
:10123A00480CE0E00E94AC0DA2EEB1E00E94930CD3
:10124A00E0E00E94050DABE1B1E00E94930C989B8F
:10125A0013C0E6EEE0938302989B0EC00E94C40E70
:10126A00989B0AC0EEEEE0938302989B05C00E9409
:10127A00C40E989B01C0E7CF0895AA93EA93EFB7EB
:10128A00EA93E6E9E2BFE0918602EF5FE093860225
:10129A00E0918302A0918602EA1710F0AE9801C08D
:1012AA00AE9AE0918402A0918602EA1710F0AF98F4
:1012BA0001C0AF9AE0918502A0918602EA1710F068
:1012CA00AD9801C0AD9AE991EFBFE991A99118953E
:1012DA001895E0E0EBBBEABBE8E0E8BBEFEFE7BB61
:1012EA00E5BBE0EFE4BBE3E0E2BBECEFE1BBEAE441
:1012FA00E3BFE6E9E2BFE0E0ECBFE1EAEFBDE9E027
:10130A00EEBDE0E0EDBDECBDE7BDE6BDEBBDEABD7F
:10131A00E9BDE8BDE2BDE5BDE4BDE3BDE5BFE4BFAF
:10132A00E1E0E9BFE0E8E8B9E0E0E0BFE5BFE4BF3B
:10133A00EBB9E8E1EAB9E6E8E0BDE0E0E0BDE7E400
:10134A00E9B9E0E6E7B9E4E8E6B9E0B7EF71E0BF8A
:10135A00A0E10E94B70C0E94480CC398E0E00E94EA
:10136A00050DA1EFB1E00E948E0EA8EFB1E00E9438
:10137A00930CA4E6B0E00E9473100E94480C789483
:10138A00EAEEE0938402E6EEE0938302EFEFE09365
:10139A008502AAE2B0E00E945F0F309721F0E130A7
:1013AA00A0E0FA0709F402C00E94A10E0E948A0E68
:1013BA00ACEEB0E00E948E0EA1EFB0E00E94930C5A
:1013CA00E0918B02E03019F40E94C401BBDA9899CB
:1013DA0024C0E0918B02E03021F4A7E8B2E00E9439
:1013EA00850DE0918B02E03021F0A9E8B2E00E947D
:1013FA00850DA0918702B091880216972CF0E0E043
:10140A00E0938702E0938802AAE0B0E00E947001AC
:10141A000E94C80EE0E00E94CF0E999909C00E946E
:10142A00C80EE1E00E94CF0EAAE0B0E00E9470016F
:10143A00C7CFFFCFBA93AA931A930A93AA81BB8103
:10144A0012960E94520F309729F1AA81BB811496F5
:10145A000E94520F8F01309761F00230E0E01E07C0
:10146A0080F0F80131978F01AA81BB811496ED9320
:10147A00FC93AA81BB8112960E94850D3197AC819B
:10148A00A083AA81BB810E94520FFF2312F00E94FF
:10149A00850D06C0AA81BB81EFEFFFEFED93FC93A8
:1014AA001981088125960895BA93AA9326970E94CE
:1014BA00FC0E10E0AC85BD85E0E0F0E0ED93FC9316
:1014CA00EA89FB893196EA8BFB8B3197E4912E2FBF
:1014DA00E03009F41DC1E12FE03039F4253211F46E
:1014EA0011E002C00E94D60E12C1E130A9F42532E1
:1014FA0019F40E94D60E0AC112E040E000E02D3233
:10150A0011F401E004C12B3211F44BE200C1203284
:10151A0011F440E2FCC002C0E23039F450E013E0BA
:10152A00203311F40068F3C003C0E33009F0EFC0C0
:10153A00203310F02A3308F007C0AAE05A9F502D32
:10154A00E22FE0535E0FE3C0E22FE33649F40E9434
:10155A00DD0EE889F989A481AA930E94E30ED6C018
:10156A00E33741F40E94DD0E0E94E90E0E94D10B7E
:10157A001E2F0AC0E03761F40E94DD0E0E94E90EB8
:10158A000E94DD0B1E2F086002600F7730E03CC01E
:10159A00E43611F0E93611F4046002C0E53731F49B
:1015AA00E4E5F0E0EE83FF8315E00CC0E83511F4C2
:1015BA00086003C0E83709F0A9C0EEE5F0E0EE8361
:1015CA00FF8314E002FF17C00E94DD0EA889B989C3
:1015DA001496ED91FD91EA87FB87AB85AA232AF43D
:1015EA000E940E0FEA87FB874DE2403011F01F5F21
:1015FA0001C00B7F09C00E94DD0EA889B989149623
:10160A000E94520FEA87FB8700FD11C0151778F474
:10161A0007FF08C002FF04C00B7F242F115001C02E
:10162A0020E301C020E20E94D60E5150EFCF312FA5
:10163A0001FF17C03030A1F003FF06C0EE81FF8121
:10164A002591EE83FF8305C0AE81BF812D91AE83C4
:10165A00BF830E94D60E503009F051503150EACF64
:10166A004BC020E3EE81FF810E94560FE887F9877D
:10167A00EE81FF813296EE83FF83E885F985AA859C
:10168A00BB85AE17BF0750F02F5FA885B985EA85DD
:10169A00FB85EA1BFB0BEA87FB87EFCF2A3328F08F
:1016AA0003FF02C0295F01C0295D04FD1AC021336E
:1016BA0020F4A885B985119709F409C0531710F0C9
:1016CA0000FF01C013C020E207FF0BC020E3006146
:1016DA0002FF07C00B7F4A930E94E30E503009F0C5
:1016EA0051500E94D60E503009F051503150A88501
:1016FA00B985129708F0B5CF00FF08C0503031F015
:10170A005150E0E2EA930E94E30EF8CF10E0D8CEFF
:10171A00AC85BD85ED91FD910E94030F64960895F5
:10172A00FF92F82E26970E94FE0EDE011C960E945A
:10173A000A0F0E94520F309719F4EFEFFFEF27C0FC
:10174A00DE0116960E940A0F8D01DE011C960E9488
:10175A000A0FED91FD91EE83FF83E0E0E887E987C8
:10176A00DE011A960E940A0FED91FD91FA93EA930F
:10177A001A930A93EFE1FAE0FA93EA93DE011A96D2
:10178A0093DE9F01AE81BF81E0E0EC93F9010E94F4
:10179A00050F2A96FF900895BA93AA93A991B99131
:1017AA00EE27FF276D91662311F03196FBCF08953E
:1017BA00BA93AA93AA27BB27E991F9910590002029
:1017CA0011F01196FBCFFD010895BA93AA93E991FE
:1017DA00F99130971AF4E095F09531960895FFE063
:1017EA00FA95F1F70895A7B3AF70A7BBC19AC0984D
:1017FA00F6DFC29AF4DFA6B3C298F1DFC29AEFDF2E
:10180A00C298A7FDF5CF0895A07FAB2BA8BBC29ABB
:10181A000E94F40BC2980E94F40B0895AA93C198EF
:10182A00A7B3A76FA7BBB8B3BF70A881EDDFA88124
:10183A00A295EADFC19A0C94E90CC29A0E94F40BB1
:10184A00E6B3C2980E94F40BE07F08950E94F40B5D
:10185A00F4DFAE2FF2DFC198E295EA2B0895AA933E
:10186A000E94F80BE881F0E0E454FD4FE081A98181
:10187A00AE0F0E94130CE981E093C002E881E09365
:10188A00C102229608950E94F80BA2E00E94130C4E
:10189A000E94F80BACE00E94130C0E94F80BA1E026
:1018AA000E94130CE0E0E093C102E093C0020895A5
:1018BA00AA93EF93FF93A8816894AA3039F0E89429
:1018CA00E091C202A091C002AE1758F0E091C102A5
:1018DA00EF5FE093C102E0E0EA93A091C102BFDFAB
:1018EA0056F0E091C002EF5FE093C0027CDFC09A3D
:1018FA00A8810E94130CFF91EF910C94E90CBA9302
:10190A00AA931A93A981BA81ED91A983BA831E2F4A
:10191A00E03019F0A12FCCDFF5CF10C0BA93AA930B
:10192A001A93E981FA813196E983FA833197E4912E
:10193A001E2FE03019F0A12FBBDFF3CF18812396B9
:10194A000895AA27BB271197F1F70895AA93C1987A
:10195A00A7B3A76FA7BBB8B3BF70A8810E94090C31
:10196A00C19A32C0AA93C298C098E881E093C20291
:10197A00E058E093BE02E881E054E093BF020E947F
:10198A00F30E0E94F30E0E94F30EDBDFA0E2DEDF0D
:10199A00D8DFA8E20E94F80EA4E00E94F80EA5E89B
:1019AA000E94F80EA7B3AF70A7BBC19A0E942B0C76
:1019BA00E53011F0E0E008C00E94F80BA6E00E94B2
:1019CA00130C0E94480CE1E021960895E7E0F0E04C
:1019DA00CE16DF060895AC2D0E9465010E2EF60183
:1019EA00ACE1B0E0EE0FFF1FAE0FBF1F0E945F0F0A
:1019FA00A02DB0E00895EA9FF0016E0F7F1F0895B1
:101A0A00EA93A0E00C94340CE0E6F2E0FA93EA934D
:101A1A000895FF27662777270E945A0F0895F6012F
:101A2A00A0E0B0E0EE0FFF1F0895F0E00E946F0FF4
:101A3A00E0E0E6CF0E94930CE0E0EA93A1E00E9486
:101A4A00340CE2CFE1EAF0E0FA93EA93F6010E945D
:101A5A001A0F0E945A0F0895AE0FBF1F0E945F0F00
:101A6A000E941A0F0E945A0F88E00E94950B2C962A
:101A7A00A0E6B2E00E94840CC398AAE0B0E00E94FB
:101A8A007310C39A0895F601AEE0B0E0EE0FFF1F9F
:101A9A000895AE0FBF1F0E945F0F0895AA93E881B1
:101AAA00F0E0F9BDE8BDE981F0E0FBBDEABD0895CB
:101ABA00A881B9810E94880F0895A881B9810C94E0
:101ACA007001E881F9810E941A0F0E94F80F0895A7
:101ADA000E94C10FED93FC930895E0919602F09154
:101AEA0097020895E091A402F091A5020895E09169
:101AFA00A202F091A3020895F0DFEC71EC3108958F
:101B0A00ED91FD913196FE93EE930895A881B981E6
:101B1A000C94BF02EA81EA93AB810E948F020C9473
:101B2A00C101EA81EA93AB810E9488020C94C10147
:101B3A00BA93AA93AAE2B0E00E945F0F3097089581
:101B4A00EA81FB81FA93EA93AA81BB810895EA9319
:101B5A00A1E00C94340CE2E0F0E0FA93EA930895E1
:101B6A00A8E7B0E00C94EA03E1E0F0E0FA93EA9324
:101B7A00A0E5B0E00C94EA03EDE2F0E0FA93EA9310
:101B8A000895E0E5F0E0FA93EA93A2E3B0E00E9458
:101B9A000E04A4E1B0E00E948F04E4E6EA93A4E60E
:101BAA000E948102AEE1B0E00E947001E4E6F0E03A
:101BBA00FA93EA93A4E1B0E008950E947604CBCFA9
:101BCA00A4E6B0E00C94EA03E4E6F0E0FA93EA93C0
:101BDA00A4E1B0E008950E94A004C6CF0E946B045D
:101BEA00BACFFA93EA93EFE5F0E0FA93EA93A2E325
:101BFA00B0E00E940E04A4E1B0E00E948F04E4E683
:101C0A00EA93A4E60E948102AEE1B0E00E9470016C
:101C1A00E4E6F0E0FA93EA93A0E0B0E008950E94C7
:101C2A007604E1E0F0E0FA93EA93CACFE3E0F0E069
:101C3A00FA93EA93A6E9B0E00C94EA030E947604C8
:101C4A0093CF0E946B04C0CF0E946B048DCFFA938E
:101C5A00EA93EFE5F0E00895A6E9B0E00E94EA030E
:101C6A00E1E0F0E0FA93EA93ABCFE1E0F0E0FA9337
:101C7A00EA930895FA93EA93A2E3B0E00C940E046F
:101C8A00E4E6EA93A4E60C948102B0E00E947001B3
:101C9A009BCFB0E00E947001E4E6F0E0FA93EA9389
:101CAA00A0E0B0E008950E946B04DFCFA4E1B0E0A9
:101CBA000C948204E0918D02F0918E02309708957F
:101CCA00A0918D02B0918E020895B0E00E94700139
:101CDA00E0E5F0E0FA93EA93A4E1B0E00895E4E6DF
:101CEA00F0E0FA93EA930895A2E3B0E00E9470014B
:101CFA000E94C204E093B602F093B70230970895A7
:101D0A00A091B602B091B70208950E94480CE0E093
:101D1A0077CE0E94930CE0E01ACFE0E0E0938902CC
:101D2A00E0938A020895E0E0F0E0FA93EA93EA93F6
:101D3A00A0E0B0E00C94A907AAE2B0E0E0E0F0E08D
:101D4A000E946F0F0895E0938B02EDCFA4E6B0E0F6
:101D5A000E949602A8ECB0E00C9473100E94930CB7
:101D6A00ECE9FFEFFA93EA930895ACE9BFEF0E941A
:101D7A009602A8ECB0E00E947310E0E0E8CEA2E37D
:101D8A00B0E00C947001E0918702F0918802FA9316
:101D9A00EA930895EA93A0918902B0918A020C9479
:101DAA00A9072A93AD85BE85EF85F8890995089517
:101DBA00E889F9893497E88BF98B0895AD85BE8552
:101DCA00EF85F88909950895A889B9891496ED913E
:101DDA00FD91EE83FF83AE81BF8108950E94A60C18
:101DEA00A0E30C94AB0C0E94130C0C94A60C5A930F
:101DFA004A933A932A931A930A9308955D814C81E0
:101E0A003B812A811981088108950024AF0DB01DF4
:101E1A000895F195E195F0400895F09560957095D3
:101E2A00E195FF4F6F4F7F4F08956F2F660F660B37
:101E3A00762F0895FA9FF02DEB9FF00DEA9FE02D83
:101E4A00F10D08951CD0F6DF0EF4E3DF08950024A7
:101E5A00112490E1AA0FBB1F001C111C0E1A1F0AA5
:101E6A0018F40E0E1F1E01C0A1609A9599F7FD0184
:101E7A00D001089504D0EBDF0EF4CBDF0895E89487
:101E8A00F7FF02C0C6DF6894B7FF06C0B195A195F7
:101E9A00B04000F8039400FA0895ED91FC9111976F
:101EAA0008950590F491E02D08957A936A93FA9330
:101EBA00EA930895119602D0FE2F1197E199FECF69
:101ECA00FF93FFB7F894AEBBBFBBE09AEDB3FFBF79
:101EDA00FF91089507D01196EF93EF2F03D0EF915A
:101EEA0011970895E19B02C0A895FCCF9FB7F8947B
:101EFA00AEBBBFBBE09A8DB3E81719F0EDBBE29A0F
:101F0A00E19A9FBF089500240A160B060895309798
:101F1A006040704009F070580895552342F45038D3
:101F2A0011F4E0FF04C03196691F791F6BF050E885
:101F3A00572711F45F9373C05F3F31F0660F000CAF
:101F4A0057956795752F08955F9300200AF072C020
:101F5A006BC050E8192E1522880F991F9527550F27
:101F6A00879550E8072E0522660F771F7527550FAC
:101F7A0067950895689401C0E8945F93F2DF70381A
:101F8A0018F07F3F08F44BC056E1571BAAF451954D
:101F9A0058300EF4593030F0EFEFFFEF6FEF7FE774
:101FAA0077F91AC077275523B9F0EE0FFF1F661F7E
:101FBA00771F5A95D1F710C07727583028F0EF2F9E
:101FCA00F62F672F5850F9CF552331F0769567953C
:101FDA00F795E7955A95D1F700200AF41EDF5F912D
:101FEA000895689401C0E894309760407040B1F059
:101FFA00002426F0772312F400940FDF172E7EE1D7
:10200A00112032F07A95EE0FFF1F661F111CF9CFCF
:10201A00EF2FF62F612D5F938ADF5F910895EE27E8
:10202A00FF27BF015F910895EFEFFFEF6FE77FEFA3
:10203A005F910895EFEFFFEF6FE77FE75F910895F4
:10204A005F9387DF703859F3903849F30124089475
:10205A00791F23F424F300203AF3ECCF0F921F9355
:10206A002F933F934F93112722279927689FA00107
:10207A008F9F302D410D591F6B9F300D411D591FE8
:10208A008E9F27D0BF9F25D06A9F23D0BE9F1DD089
:10209A00AF9F1BD0AE9F110D291F391F491F591F12
:1020AA00E32FF42F652F522F4F913F912F911F91BC
:1020BA000F9066232AF0550FEE1FFF1F661F02C0FE
:1020CA0073954BF22ADF5F910895100D211D391F78
:1020DA0002C0200D311D491F591F0895109639F06D
:1020EA00A8958DEC9AE00197F1F71197C9F7089531
:00000001FF
